{
  "contractName": "CDOLib",
  "abi": [
    {
      "constant": false,
      "inputs": [
        {
          "name": "trancheLevel",
          "type": "uint256"
        },
        {
          "name": "minting",
          "type": "uint256"
        },
        {
          "name": "tranche",
          "type": "CDOLib.Tranche storage"
        },
        {
          "name": "trancheToken",
          "type": "TrancheToken"
        }
      ],
      "name": "purchaseShares",
      "outputs": [],
      "payable": false,
      "stateMutability": "nonpayable",
      "type": "function"
    },
    {
      "anonymous": false,
      "inputs": [
        {
          "indexed": true,
          "name": "cdoAddress",
          "type": "address"
        },
        {
          "indexed": false,
          "name": "minted",
          "type": "uint256"
        },
        {
          "indexed": false,
          "name": "trancheLevel",
          "type": "uint256"
        }
      ],
      "name": "LogSharesPurchased",
      "type": "event"
    }
  ],
  "bytecode": "0x6060604052341561000f57600080fd5b6102ae8061001e6000396000f300606060405260043610610041576000357c0100000000000000000000000000000000000000000000000000000000900463ffffffff16806396c1020614610046575b600080fd5b61008d600480803590602001909190803590602001909190803590602001909190803573ffffffffffffffffffffffffffffffffffffffff1690602001909190505061008f565b005b60008090505b838110156101d4578260000180548060010182816100b39190610231565b916000526020600020900160008473ffffffffffffffffffffffffffffffffffffffff16639a1b706233308b6000604051602001526040518463ffffffff167c0100000000000000000000000000000000000000000000000000000000028152600401808473ffffffffffffffffffffffffffffffffffffffff1673ffffffffffffffffffffffffffffffffffffffff1681526020018373ffffffffffffffffffffffffffffffffffffffff1673ffffffffffffffffffffffffffffffffffffffff1681526020018281526020019350505050602060405180830381600087803b151561019f57600080fd5b6102c65a03f115156101b057600080fd5b50505060405180519050909190915090600019169055508080600101915050610095565b3073ffffffffffffffffffffffffffffffffffffffff167ffe5841c2a80467306497e880c9de7b027915c456a60ce4291251865d567babbe8587604051808381526020018281526020019250505060405180910390a25050505050565b81548183558181151161025857818360005260206000209182019101610257919061025d565b5b505050565b61027f91905b8082111561027b576000816000905550600101610263565b5090565b905600a165627a7a723058204f73d38386bb25400ea6739a3ee2dff0ae54bdb215ebbbc6a4d6c747660cd6cd0029",
  "source": "pragma solidity ^0.4.18;\r\n\r\nimport \"../CDO/TrancheToken.sol\";\r\nimport \"zeppelin-solidity/contracts/math/SafeMath.sol\";\r\n\r\n/**\r\n * CDOLib is a library that contains the definition of\r\n * a Tranche struct and the minting process of TrancheTokens.\r\n *\r\n * Because CDO is defined in a generic matter, all methods in\r\n * the CDO.sol will be defined here in the future. CDO.sol will\r\n * act as a storage contract for each unique CDO created and CDOLib\r\n * will be the master interface.\r\n *\r\n * This design allows for code re-use and cheap (gas) CDO's.\r\n *\r\n * TODO: Gas optimize through ordering of variable declarations\r\n * before putting into production. Also need to run gas tests\r\n * to check if the contract gets run enough in a production\r\n * environment that it is cheaper to keep local calls only\r\n * vs. making library calls each time. This will lead to the\r\n * final design decision of whether to abstract logic into\r\n * a master library contract or keep it in each CDO.sol.\r\n * (Comparing Gas Cost at Deployment vs Running of Functions)\r\n *\r\n * Code has been left in a readable / organized manner.\r\n *\r\n * Author: Devan Purhar\r\n */\r\n\r\nlibrary CDOLib {\r\n   using SafeMath for *;\r\n\r\n   event LogSharesPurchased(\r\n       address indexed cdoAddress,\r\n       uint minted,\r\n       uint trancheLevel\r\n   );\r\n\r\n  struct Tranche {\r\n    bytes32[] issuances;\r\n    uint balance;\r\n    uint numberOfIssuances;\r\n    uint interestRate;\r\n    uint riskRating;\r\n    uint trancheLevel;\r\n  }\r\n\r\n  function purchaseShares(\r\n      uint trancheLevel,\r\n      uint minting,\r\n      Tranche storage tranche,\r\n      TrancheToken trancheToken\r\n  )\r\n      public\r\n  {\r\n\r\n    for (uint i = 0; i < minting; i++) {\r\n        tranche.issuances.push(trancheToken.mintTrancheToken(\r\n            msg.sender,\r\n            address(this),\r\n            trancheLevel\r\n          ));\r\n    }\r\n\r\n    LogSharesPurchased(address(this), minting, trancheLevel);\r\n\r\n  }\r\n\r\n}\r\n",
  "sourcePath": "/mnt/c/Users/devan/fixer/check-dharma/contracts/libraries/CDOLib.sol",
  "compiler": {
    "name": "solc",
    "version": "0.4.18+commit.9cf6e910.Emscripten.clang"
  },
  "schemaVersion": "1.0.1",
  "updatedAt": "2018-11-27T07:48:41.619Z"
}