{
  "contractName": "CollateralizedSimpleInterestTermsContract",
  "abi": [
    {
      "constant": true,
      "inputs": [
        {
          "name": "agreementId",
          "type": "bytes32"
        }
      ],
      "name": "getValueRepaidToDate",
      "outputs": [
        {
          "name": "_valueRepaid",
          "type": "uint256"
        }
      ],
      "payable": false,
      "stateMutability": "view",
      "type": "function"
    },
    {
      "constant": true,
      "inputs": [],
      "name": "DAY_LENGTH_IN_SECONDS",
      "outputs": [
        {
          "name": "",
          "type": "uint256"
        }
      ],
      "payable": false,
      "stateMutability": "view",
      "type": "function"
    },
    {
      "constant": true,
      "inputs": [],
      "name": "MONTH_LENGTH_IN_SECONDS",
      "outputs": [
        {
          "name": "",
          "type": "uint256"
        }
      ],
      "payable": false,
      "stateMutability": "view",
      "type": "function"
    },
    {
      "constant": true,
      "inputs": [
        {
          "name": "_agreementId",
          "type": "bytes32"
        }
      ],
      "name": "getTermEndTimestamp",
      "outputs": [
        {
          "name": "",
          "type": "uint256"
        }
      ],
      "payable": false,
      "stateMutability": "view",
      "type": "function"
    },
    {
      "constant": true,
      "inputs": [],
      "name": "WEEK_LENGTH_IN_SECONDS",
      "outputs": [
        {
          "name": "",
          "type": "uint256"
        }
      ],
      "payable": false,
      "stateMutability": "view",
      "type": "function"
    },
    {
      "constant": false,
      "inputs": [
        {
          "name": "agreementId",
          "type": "bytes32"
        },
        {
          "name": "payer",
          "type": "address"
        },
        {
          "name": "beneficiary",
          "type": "address"
        },
        {
          "name": "unitsOfRepayment",
          "type": "uint256"
        },
        {
          "name": "tokenAddress",
          "type": "address"
        }
      ],
      "name": "registerRepayment",
      "outputs": [
        {
          "name": "_success",
          "type": "bool"
        }
      ],
      "payable": false,
      "stateMutability": "nonpayable",
      "type": "function"
    },
    {
      "constant": true,
      "inputs": [],
      "name": "HOUR_LENGTH_IN_SECONDS",
      "outputs": [
        {
          "name": "",
          "type": "uint256"
        }
      ],
      "payable": false,
      "stateMutability": "view",
      "type": "function"
    },
    {
      "constant": true,
      "inputs": [],
      "name": "NUM_AMORTIZATION_UNIT_TYPES",
      "outputs": [
        {
          "name": "",
          "type": "uint256"
        }
      ],
      "payable": false,
      "stateMutability": "view",
      "type": "function"
    },
    {
      "constant": true,
      "inputs": [],
      "name": "INTEREST_RATE_SCALING_FACTOR_PERCENT",
      "outputs": [
        {
          "name": "",
          "type": "uint256"
        }
      ],
      "payable": false,
      "stateMutability": "view",
      "type": "function"
    },
    {
      "constant": false,
      "inputs": [
        {
          "name": "agreementId",
          "type": "bytes32"
        },
        {
          "name": "debtor",
          "type": "address"
        }
      ],
      "name": "registerTermStart",
      "outputs": [
        {
          "name": "_success",
          "type": "bool"
        }
      ],
      "payable": false,
      "stateMutability": "nonpayable",
      "type": "function"
    },
    {
      "constant": true,
      "inputs": [
        {
          "name": "agreementId",
          "type": "bytes32"
        },
        {
          "name": "timestamp",
          "type": "uint256"
        }
      ],
      "name": "getExpectedRepaymentValue",
      "outputs": [
        {
          "name": "_expectedRepaymentValue",
          "type": "uint256"
        }
      ],
      "payable": false,
      "stateMutability": "view",
      "type": "function"
    },
    {
      "constant": true,
      "inputs": [],
      "name": "contractRegistry",
      "outputs": [
        {
          "name": "",
          "type": "address"
        }
      ],
      "payable": false,
      "stateMutability": "view",
      "type": "function"
    },
    {
      "constant": true,
      "inputs": [],
      "name": "INTEREST_RATE_SCALING_FACTOR_MULTIPLIER",
      "outputs": [
        {
          "name": "",
          "type": "uint256"
        }
      ],
      "payable": false,
      "stateMutability": "view",
      "type": "function"
    },
    {
      "constant": true,
      "inputs": [
        {
          "name": "parameters",
          "type": "bytes32"
        }
      ],
      "name": "unpackParametersFromBytes",
      "outputs": [
        {
          "name": "_principalTokenIndex",
          "type": "uint256"
        },
        {
          "name": "_principalAmount",
          "type": "uint256"
        },
        {
          "name": "_interestRate",
          "type": "uint256"
        },
        {
          "name": "_amortizationUnitType",
          "type": "uint256"
        },
        {
          "name": "_termLengthInAmortizationUnits",
          "type": "uint256"
        }
      ],
      "payable": false,
      "stateMutability": "pure",
      "type": "function"
    },
    {
      "constant": true,
      "inputs": [],
      "name": "YEAR_LENGTH_IN_SECONDS",
      "outputs": [
        {
          "name": "",
          "type": "uint256"
        }
      ],
      "payable": false,
      "stateMutability": "view",
      "type": "function"
    },
    {
      "constant": true,
      "inputs": [
        {
          "name": "",
          "type": "bytes32"
        }
      ],
      "name": "valueRepaid",
      "outputs": [
        {
          "name": "",
          "type": "uint256"
        }
      ],
      "payable": false,
      "stateMutability": "view",
      "type": "function"
    },
    {
      "inputs": [
        {
          "name": "contractRegistry",
          "type": "address"
        }
      ],
      "payable": false,
      "stateMutability": "nonpayable",
      "type": "constructor"
    },
    {
      "anonymous": false,
      "inputs": [
        {
          "indexed": true,
          "name": "agreementId",
          "type": "bytes32"
        },
        {
          "indexed": true,
          "name": "principalToken",
          "type": "address"
        },
        {
          "indexed": false,
          "name": "principalAmount",
          "type": "uint256"
        },
        {
          "indexed": false,
          "name": "interestRate",
          "type": "uint256"
        },
        {
          "indexed": true,
          "name": "amortizationUnitType",
          "type": "uint256"
        },
        {
          "indexed": false,
          "name": "termLengthInAmortizationUnits",
          "type": "uint256"
        }
      ],
      "name": "LogSimpleInterestTermStart",
      "type": "event"
    },
    {
      "anonymous": false,
      "inputs": [
        {
          "indexed": false,
          "name": "agreementId",
          "type": "bytes32"
        },
        {
          "indexed": false,
          "name": "payer",
          "type": "address"
        },
        {
          "indexed": false,
          "name": "beneficiary",
          "type": "address"
        },
        {
          "indexed": false,
          "name": "unitsOfRepayment",
          "type": "uint256"
        },
        {
          "indexed": false,
          "name": "tokenAddress",
          "type": "address"
        }
      ],
      "name": "LogRegisterRepayment",
      "type": "event"
    }
  ],
  "bytecode": "0x6060604052341561000f57600080fd5b604051602080611a68833981016040528080519060200190919050508080600160006101000a81548173ffffffffffffffffffffffffffffffffffffffff021916908373ffffffffffffffffffffffffffffffffffffffff16021790555050506119ea8061007e6000396000f3006060604052600436106100e6576000357c0100000000000000000000000000000000000000000000000000000000900463ffffffff16806303a896a1146100eb5780630776298214610126578063208638941461014f5780632762dd8c1461017857806340018a0d146101b35780635f0280ba146101dc5780636f69c96f146102815780638b47e58a146102aa57806393529cdf146102d3578063977a5e64146102fc57806399114d841461035a578063abf410e51461039e578063de53a13c146103f3578063ed8907d71461041c578063fd127a4114610473578063fd40d52e1461049c575b600080fd5b34156100f657600080fd5b6101106004808035600019169060200190919050506104d7565b6040518082815260200191505060405180910390f35b341561013157600080fd5b6101396104fb565b6040518082815260200191505060405180910390f35b341561015a57600080fd5b610162610504565b6040518082815260200191505060405180910390f35b341561018357600080fd5b61019d600480803560001916906020019091905050610510565b6040518082815260200191505060405180910390f35b34156101be57600080fd5b6101c6610532565b6040518082815260200191505060405180910390f35b34156101e757600080fd5b61026760048080356000191690602001909190803573ffffffffffffffffffffffffffffffffffffffff1690602001909190803573ffffffffffffffffffffffffffffffffffffffff1690602001909190803590602001909190803573ffffffffffffffffffffffffffffffffffffffff1690602001909190505061053e565b604051808215151515815260200191505060405180910390f35b341561028c57600080fd5b6102946107b3565b6040518082815260200191505060405180910390f35b34156102b557600080fd5b6102bd6107b9565b6040518082815260200191505060405180910390f35b34156102de57600080fd5b6102e66107be565b6040518082815260200191505060405180910390f35b341561030757600080fd5b61034060048080356000191690602001909190803573ffffffffffffffffffffffffffffffffffffffff169060200190919050506107c4565b604051808215151515815260200191505060405180910390f35b341561036557600080fd5b610388600480803560001916906020019091908035906020019091905050610a43565b6040518082815260200191505060405180910390f35b34156103a957600080fd5b6103b1610c4f565b604051808273ffffffffffffffffffffffffffffffffffffffff1673ffffffffffffffffffffffffffffffffffffffff16815260200191505060405180910390f35b34156103fe57600080fd5b610406610c75565b6040518082815260200191505060405180910390f35b341561042757600080fd5b610441600480803560001916906020019091905050610c7e565b604051808681526020018581526020018481526020018381526020018281526020019550505050505060405180910390f35b341561047e57600080fd5b610486610d76565b6040518082815260200191505060405180910390f35b34156104a757600080fd5b6104c1600480803560001916906020019091905050610d83565b6040518082815260200191505060405180910390f35b60008060008360001916600019168152602001908152602001600020549050919050565b6018610e100281565b601e6018610e10020281565b600061051a61195f565b61052383610d9b565b90508060600151915050919050565b60076018610e10020281565b600061054861195f565b600160009054906101000a900473ffffffffffffffffffffffffffffffffffffffff1673ffffffffffffffffffffffffffffffffffffffff16636fa9d0566000604051602001526040518163ffffffff167c0100000000000000000000000000000000000000000000000000000000028152600401602060405180830381600087803b15156105d657600080fd5b6102c65a03f115156105e757600080fd5b5050506040518051905073ffffffffffffffffffffffffffffffffffffffff163373ffffffffffffffffffffffffffffffffffffffff1614151561062a57600080fd5b61063387610d9b565b9050806000015173ffffffffffffffffffffffffffffffffffffffff168373ffffffffffffffffffffffffffffffffffffffff1614156107a45761069a846000808a600019166000191681526020019081526020016000205461129790919063ffffffff16565b6000808960001916600019168152602001908152602001600020819055507ff1a888d220228f843ac3044ef257c80642e6434d1ddc7ebee0a2813cced3406c87878787876040518086600019166000191681526020018573ffffffffffffffffffffffffffffffffffffffff1673ffffffffffffffffffffffffffffffffffffffff1681526020018473ffffffffffffffffffffffffffffffffffffffff1673ffffffffffffffffffffffffffffffffffffffff1681526020018381526020018273ffffffffffffffffffffffffffffffffffffffff1673ffffffffffffffffffffffffffffffffffffffff1681526020019550505050505060405180910390a1600191506107a9565b600091505b5095945050505050565b610e1081565b600581565b61271081565b6000806000600160009054906101000a900473ffffffffffffffffffffffffffffffffffffffff1673ffffffffffffffffffffffffffffffffffffffff1663079dd4b76000604051602001526040518163ffffffff167c0100000000000000000000000000000000000000000000000000000000028152600401602060405180830381600087803b151561085757600080fd5b6102c65a03f1151561086857600080fd5b5050506040518051905073ffffffffffffffffffffffffffffffffffffffff163373ffffffffffffffffffffffffffffffffffffffff161415156108ab57600080fd5b6108b585856112b5565b9150600160009054906101000a900473ffffffffffffffffffffffffffffffffffffffff1673ffffffffffffffffffffffffffffffffffffffff1663869f05116000604051602001526040518163ffffffff167c0100000000000000000000000000000000000000000000000000000000028152600401602060405180830381600087803b151561094557600080fd5b6102c65a03f1151561095657600080fd5b5050506040518051905073ffffffffffffffffffffffffffffffffffffffff1663649404bd86866000604051602001526040518363ffffffff167c01000000000000000000000000000000000000000000000000000000000281526004018083600019166000191681526020018273ffffffffffffffffffffffffffffffffffffffff1673ffffffffffffffffffffffffffffffffffffffff16815260200192505050602060405180830381600087803b1515610a1257600080fd5b6102c65a03f11515610a2357600080fd5b505050604051805190509050818015610a395750805b9250505092915050565b6000610a4d61195f565b60008085600160009054906101000a900473ffffffffffffffffffffffffffffffffffffffff1673ffffffffffffffffffffffffffffffffffffffff16632f866f736000604051602001526040518163ffffffff167c0100000000000000000000000000000000000000000000000000000000028152600401602060405180830381600087803b1515610adf57600080fd5b6102c65a03f11515610af057600080fd5b5050506040518051905073ffffffffffffffffffffffffffffffffffffffff1663f6f494c9826000604051602001526040518263ffffffff167c0100000000000000000000000000000000000000000000000000000000028152600401808260001916600019168152602001915050602060405180830381600087803b1515610b7857600080fd5b6102c65a03f11515610b8957600080fd5b5050506040518051905073ffffffffffffffffffffffffffffffffffffffff163073ffffffffffffffffffffffffffffffffffffffff16141515610bcc57600080fd5b610bd587610d9b565b9350610be084611746565b9250836040015186111515610bf85760009450610c45565b836060015186101515610c0d57829450610c45565b610c17868561179c565b9150610c428460a00151610c3484866117e690919063ffffffff16565b61182190919063ffffffff16565b94505b5050505092915050565b600160009054906101000a900473ffffffffffffffffffffffffffffffffffffffff1681565b60646127100281565b6000806000806000806000806000807fff000000000000000000000000000000000000000000000000000000000000006001028b1694507effffffffffffffffffffffff000000000000000000000000000000000000006001028b16935072ffffff000000000000000000000000000000006001028b1692506ff00000000000000000000000000000006001028b1691506f0ffff0000000000000000000000000006001028b169050610d328560f861183c565b610d3d85609861183c565b610d4885608061183c565b610d5385607c61183c565b610d5e85606c61183c565b99509950995099509950505050505091939590929450565b61016d6018610e10020281565b60006020528060005260406000206000915090505481565b610da361195f565b600080600080600080600080600080600080600160009054906101000a900473ffffffffffffffffffffffffffffffffffffffff1673ffffffffffffffffffffffffffffffffffffffff16632f866f736000604051602001526040518163ffffffff167c0100000000000000000000000000000000000000000000000000000000028152600401602060405180830381600087803b1515610e4357600080fd5b6102c65a03f11515610e5457600080fd5b5050506040518051905073ffffffffffffffffffffffffffffffffffffffff1663314a522e8f6000604051602001526040518263ffffffff167c0100000000000000000000000000000000000000000000000000000000028152600401808260001916600019168152602001915050602060405180830381600087803b1515610edc57600080fd5b6102c65a03f11515610eed57600080fd5b505050604051805190509b50610f028c610c7e565b809b50819c50829d50839e50849f505050505050600160009054906101000a900473ffffffffffffffffffffffffffffffffffffffff1673ffffffffffffffffffffffffffffffffffffffff16639d23c4c76000604051602001526040518163ffffffff167c0100000000000000000000000000000000000000000000000000000000028152600401602060405180830381600087803b1515610fa457600080fd5b6102c65a03f11515610fb557600080fd5b5050506040518051905073ffffffffffffffffffffffffffffffffffffffff16635715c5b78c6000604051602001526040518263ffffffff167c010000000000000000000000000000000000000000000000000000000002815260040180828152602001915050602060405180830381600087803b151561103557600080fd5b6102c65a03f1151561104657600080fd5b505050604051805190509550600073ffffffffffffffffffffffffffffffffffffffff168673ffffffffffffffffffffffffffffffffffffffff161415151561108e57600080fd5b60048081111561109a57fe5b88111515156110a857600080fd5b8760048111156110b457fe5b94506110bf85611859565b9350600160009054906101000a900473ffffffffffffffffffffffffffffffffffffffff1673ffffffffffffffffffffffffffffffffffffffff16632f866f736000604051602001526040518163ffffffff167c0100000000000000000000000000000000000000000000000000000000028152600401602060405180830381600087803b151561114f57600080fd5b6102c65a03f1151561116057600080fd5b5050506040518051905073ffffffffffffffffffffffffffffffffffffffff1663d69dbf638f6000604051602001526040518263ffffffff167c0100000000000000000000000000000000000000000000000000000000028152600401808260001916600019168152602001915050602060405180830381600087803b15156111e857600080fd5b6102c65a03f115156111f957600080fd5b50505060405180519050925061121884886117e690919063ffffffff16565b915061122d838361129790919063ffffffff16565b905060e0604051908101604052808773ffffffffffffffffffffffffffffffffffffffff1681526020018b815260200184815260200182815260200186600481111561127557fe5b81526020018881526020018a8152509c50505050505050505050505050919050565b60008082840190508381101515156112ab57fe5b8091505092915050565b6000806000806000806000806000600160009054906101000a900473ffffffffffffffffffffffffffffffffffffffff1673ffffffffffffffffffffffffffffffffffffffff1663079dd4b76000604051602001526040518163ffffffff167c0100000000000000000000000000000000000000000000000000000000028152600401602060405180830381600087803b151561135157600080fd5b6102c65a03f1151561136257600080fd5b5050506040518051905073ffffffffffffffffffffffffffffffffffffffff163373ffffffffffffffffffffffffffffffffffffffff161415156113a557600080fd5b600160009054906101000a900473ffffffffffffffffffffffffffffffffffffffff1673ffffffffffffffffffffffffffffffffffffffff16632f866f736000604051602001526040518163ffffffff167c0100000000000000000000000000000000000000000000000000000000028152600401602060405180830381600087803b151561143357600080fd5b6102c65a03f1151561144457600080fd5b5050506040518051905073ffffffffffffffffffffffffffffffffffffffff16636be39bda8c6000604051604001526040518263ffffffff167c01000000000000000000000000000000000000000000000000000000000281526004018082600019166000191681526020019150506040805180830381600087803b15156114cb57600080fd5b6102c65a03f115156114dc57600080fd5b5050506040518051906020018051905080985081995050506114fd87610c7e565b809650819750829850839950849a505050505050600160009054906101000a900473ffffffffffffffffffffffffffffffffffffffff1673ffffffffffffffffffffffffffffffffffffffff16639d23c4c76000604051602001526040518163ffffffff167c0100000000000000000000000000000000000000000000000000000000028152600401602060405180830381600087803b151561159f57600080fd5b6102c65a03f115156115b057600080fd5b5050506040518051905073ffffffffffffffffffffffffffffffffffffffff16635715c5b7876000604051602001526040518263ffffffff167c010000000000000000000000000000000000000000000000000000000002815260040180828152602001915050602060405180830381600087803b151561163057600080fd5b6102c65a03f1151561164157600080fd5b505050604051805190509050600073ffffffffffffffffffffffffffffffffffffffff168173ffffffffffffffffffffffffffffffffffffffff161415801561168a5750600583105b80156116c157503073ffffffffffffffffffffffffffffffffffffffff168873ffffffffffffffffffffffffffffffffffffffff16145b1561173357828173ffffffffffffffffffffffffffffffffffffffff168c600019167f2c500aaec6833a053693d8c2a18a3ed5649a4609699abaf7778c3d389cc40c0588888760405180848152602001838152602001828152602001935050505060405180910390a460019850611738565b600098505b505050505050505092915050565b60008061177b60646127100261176d8560c0015186602001516117e690919063ffffffff16565b61182190919063ffffffff16565b905061179481846020015161129790919063ffffffff16565b915050919050565b60008060006117b884604001518661194690919063ffffffff16565b91506117c78460800151611859565b90506117dc818361182190919063ffffffff16565b9250505092915050565b60008060008414156117fb576000915061181a565b828402905082848281151561180c57fe5b0414151561181657fe5b8091505b5092915050565b600080828481151561182f57fe5b0490508091505092915050565b60008160020a836001900481151561185057fe5b04905092915050565b600080600481111561186757fe5b82600481111561187357fe5b141561188357610e109050611941565b6001600481111561189057fe5b82600481111561189c57fe5b14156118af576018610e10029050611941565b600260048111156118bc57fe5b8260048111156118c857fe5b14156118de5760076018610e1002029050611941565b600360048111156118eb57fe5b8260048111156118f757fe5b141561190d57601e6018610e1002029050611941565b60048081111561191957fe5b82600481111561192557fe5b141561193c5761016d6018610e1002029050611941565b600080fd5b919050565b600082821115151561195457fe5b818303905092915050565b60e060405190810160405280600073ffffffffffffffffffffffffffffffffffffffff168152602001600081526020016000815260200160008152602001600060048111156119aa57fe5b8152602001600081526020016000815250905600a165627a7a72305820a83341fe07efc2613a8f4df843b739849cc1989a45267a7ea7c6fd75087434ae0029",
  "source": "/*\r\n\r\n  Copyright 2017 Dharma Labs Inc.\r\n\r\n  Licensed under the Apache License, Version 2.0 (the \"License\");\r\n  you may not use this file except in compliance with the License.\r\n  You may obtain a copy of the License at\r\n\r\n    http://www.apache.org/licenses/LICENSE-2.0\r\n\r\n  Unless required by applicable law or agreed to in writing, software\r\n  distributed under the License is distributed on an \"AS IS\" BASIS,\r\n  WITHOUT WARRANTIES OR CONDITIONS OF ANY KIND, either express or implied.\r\n  See the License for the specific language governing permissions and\r\n  limitations under the License.\r\n\r\n*/\r\n\r\npragma solidity 0.4.18;\r\n\r\nimport \"./SimpleInterestTermsContract.sol\";\r\nimport \"../Collateralizer.sol\";\r\n\r\n\r\n/**\r\n * Example collateralized terms contract for usage in simple interest debt agreements\r\n *\r\n * Authors: nadavhollander, saturnial, jdkanani, graemecode\r\n */\r\ncontract CollateralizedSimpleInterestTermsContract is SimpleInterestTermsContract {\r\n\r\n    function CollateralizedSimpleInterestTermsContract(\r\n        address contractRegistry\r\n    ) public SimpleInterestTermsContract(contractRegistry) {}\r\n\r\n    function registerTermStart(\r\n        bytes32 agreementId,\r\n        address debtor\r\n    )\r\n        public\r\n        onlyDebtKernel\r\n        returns (bool _success)\r\n    {\r\n        bool registered = super.registerTermStart(agreementId, debtor);\r\n        bool collateralized = contractRegistry.collateralizer().collateralize(agreementId, debtor);\r\n\r\n        return registered && collateralized;\r\n    }\r\n\r\n    function getTermEndTimestamp(\r\n        bytes32 _agreementId\r\n    )\r\n        public\r\n        view\r\n        returns (uint)\r\n    {\r\n        SimpleInterestParams memory params = unpackParamsForAgreementID(_agreementId);\r\n\r\n        return params.termEndUnixTimestamp;\r\n    }\r\n}\r\n",
  "sourcePath": "/mnt/c/Users/devan/fixer/check-dharma/contracts/examples/CollateralizedSimpleInterestTermsContract.sol",
  "compiler": {
    "name": "solc",
    "version": "0.4.18+commit.9cf6e910.Emscripten.clang"
  },
  "schemaVersion": "1.0.1",
  "updatedAt": "2018-11-27T07:48:42.353Z"
}