{
  "contractName": "DebtRegistry",
  "abi": [
    {
      "constant": true,
      "inputs": [],
      "name": "EDIT_CONTEXT",
      "outputs": [
        {
          "name": "",
          "type": "string"
        }
      ],
      "payable": false,
      "stateMutability": "view",
      "type": "function"
    },
    {
      "constant": true,
      "inputs": [
        {
          "name": "agreementId",
          "type": "bytes32"
        }
      ],
      "name": "getTermsContractParameters",
      "outputs": [
        {
          "name": "",
          "type": "bytes32"
        }
      ],
      "payable": false,
      "stateMutability": "view",
      "type": "function"
    },
    {
      "constant": false,
      "inputs": [],
      "name": "unpause",
      "outputs": [],
      "payable": false,
      "stateMutability": "nonpayable",
      "type": "function"
    },
    {
      "constant": false,
      "inputs": [
        {
          "name": "agent",
          "type": "address"
        }
      ],
      "name": "addAuthorizedEditAgent",
      "outputs": [],
      "payable": false,
      "stateMutability": "nonpayable",
      "type": "function"
    },
    {
      "constant": false,
      "inputs": [
        {
          "name": "agreementId",
          "type": "bytes32"
        },
        {
          "name": "newBeneficiary",
          "type": "address"
        }
      ],
      "name": "modifyBeneficiary",
      "outputs": [],
      "payable": false,
      "stateMutability": "nonpayable",
      "type": "function"
    },
    {
      "constant": true,
      "inputs": [],
      "name": "paused",
      "outputs": [
        {
          "name": "",
          "type": "bool"
        }
      ],
      "payable": false,
      "stateMutability": "view",
      "type": "function"
    },
    {
      "constant": true,
      "inputs": [],
      "name": "getAuthorizedInsertAgents",
      "outputs": [
        {
          "name": "",
          "type": "address[]"
        }
      ],
      "payable": false,
      "stateMutability": "view",
      "type": "function"
    },
    {
      "constant": true,
      "inputs": [
        {
          "name": "agreementId",
          "type": "bytes32"
        }
      ],
      "name": "getTerms",
      "outputs": [
        {
          "name": "",
          "type": "address"
        },
        {
          "name": "",
          "type": "bytes32"
        }
      ],
      "payable": false,
      "stateMutability": "view",
      "type": "function"
    },
    {
      "constant": false,
      "inputs": [],
      "name": "pause",
      "outputs": [],
      "payable": false,
      "stateMutability": "nonpayable",
      "type": "function"
    },
    {
      "constant": true,
      "inputs": [
        {
          "name": "debtor",
          "type": "address"
        }
      ],
      "name": "getDebtorsDebts",
      "outputs": [
        {
          "name": "",
          "type": "bytes32[]"
        }
      ],
      "payable": false,
      "stateMutability": "view",
      "type": "function"
    },
    {
      "constant": true,
      "inputs": [],
      "name": "owner",
      "outputs": [
        {
          "name": "",
          "type": "address"
        }
      ],
      "payable": false,
      "stateMutability": "view",
      "type": "function"
    },
    {
      "constant": true,
      "inputs": [],
      "name": "INSERT_CONTEXT",
      "outputs": [
        {
          "name": "",
          "type": "string"
        }
      ],
      "payable": false,
      "stateMutability": "view",
      "type": "function"
    },
    {
      "constant": true,
      "inputs": [
        {
          "name": "agreementId",
          "type": "bytes32"
        }
      ],
      "name": "get",
      "outputs": [
        {
          "name": "",
          "type": "address"
        },
        {
          "name": "",
          "type": "address"
        },
        {
          "name": "",
          "type": "address"
        },
        {
          "name": "",
          "type": "uint256"
        },
        {
          "name": "",
          "type": "address"
        },
        {
          "name": "",
          "type": "bytes32"
        },
        {
          "name": "",
          "type": "uint256"
        }
      ],
      "payable": false,
      "stateMutability": "view",
      "type": "function"
    },
    {
      "constant": false,
      "inputs": [
        {
          "name": "agent",
          "type": "address"
        }
      ],
      "name": "revokeEditAgentAuthorization",
      "outputs": [],
      "payable": false,
      "stateMutability": "nonpayable",
      "type": "function"
    },
    {
      "constant": true,
      "inputs": [
        {
          "name": "agreementId",
          "type": "bytes32"
        }
      ],
      "name": "doesEntryExist",
      "outputs": [
        {
          "name": "exists",
          "type": "bool"
        }
      ],
      "payable": false,
      "stateMutability": "view",
      "type": "function"
    },
    {
      "constant": false,
      "inputs": [
        {
          "name": "agent",
          "type": "address"
        }
      ],
      "name": "addAuthorizedInsertAgent",
      "outputs": [],
      "payable": false,
      "stateMutability": "nonpayable",
      "type": "function"
    },
    {
      "constant": true,
      "inputs": [
        {
          "name": "agreementId",
          "type": "bytes32"
        }
      ],
      "name": "getBeneficiary",
      "outputs": [
        {
          "name": "",
          "type": "address"
        }
      ],
      "payable": false,
      "stateMutability": "view",
      "type": "function"
    },
    {
      "constant": false,
      "inputs": [
        {
          "name": "agent",
          "type": "address"
        }
      ],
      "name": "revokeInsertAgentAuthorization",
      "outputs": [],
      "payable": false,
      "stateMutability": "nonpayable",
      "type": "function"
    },
    {
      "constant": false,
      "inputs": [
        {
          "name": "_version",
          "type": "address"
        },
        {
          "name": "_beneficiary",
          "type": "address"
        },
        {
          "name": "_debtor",
          "type": "address"
        },
        {
          "name": "_underwriter",
          "type": "address"
        },
        {
          "name": "_underwriterRiskRating",
          "type": "uint256"
        },
        {
          "name": "_termsContract",
          "type": "address"
        },
        {
          "name": "_termsContractParameters",
          "type": "bytes32"
        },
        {
          "name": "_salt",
          "type": "uint256"
        }
      ],
      "name": "insert",
      "outputs": [
        {
          "name": "_agreementId",
          "type": "bytes32"
        }
      ],
      "payable": false,
      "stateMutability": "nonpayable",
      "type": "function"
    },
    {
      "constant": true,
      "inputs": [
        {
          "name": "agreementId",
          "type": "bytes32"
        }
      ],
      "name": "getIssuanceBlockTimestamp",
      "outputs": [
        {
          "name": "timestamp",
          "type": "uint256"
        }
      ],
      "payable": false,
      "stateMutability": "view",
      "type": "function"
    },
    {
      "constant": false,
      "inputs": [
        {
          "name": "newOwner",
          "type": "address"
        }
      ],
      "name": "transferOwnership",
      "outputs": [],
      "payable": false,
      "stateMutability": "nonpayable",
      "type": "function"
    },
    {
      "constant": true,
      "inputs": [
        {
          "name": "agreementId",
          "type": "bytes32"
        }
      ],
      "name": "getTermsContract",
      "outputs": [
        {
          "name": "",
          "type": "address"
        }
      ],
      "payable": false,
      "stateMutability": "view",
      "type": "function"
    },
    {
      "constant": true,
      "inputs": [],
      "name": "getAuthorizedEditAgents",
      "outputs": [
        {
          "name": "",
          "type": "address[]"
        }
      ],
      "payable": false,
      "stateMutability": "view",
      "type": "function"
    },
    {
      "anonymous": false,
      "inputs": [
        {
          "indexed": true,
          "name": "agreementId",
          "type": "bytes32"
        },
        {
          "indexed": true,
          "name": "beneficiary",
          "type": "address"
        },
        {
          "indexed": true,
          "name": "underwriter",
          "type": "address"
        },
        {
          "indexed": false,
          "name": "underwriterRiskRating",
          "type": "uint256"
        },
        {
          "indexed": false,
          "name": "termsContract",
          "type": "address"
        },
        {
          "indexed": false,
          "name": "termsContractParameters",
          "type": "bytes32"
        }
      ],
      "name": "LogInsertEntry",
      "type": "event"
    },
    {
      "anonymous": false,
      "inputs": [
        {
          "indexed": true,
          "name": "agreementId",
          "type": "bytes32"
        },
        {
          "indexed": true,
          "name": "previousBeneficiary",
          "type": "address"
        },
        {
          "indexed": true,
          "name": "newBeneficiary",
          "type": "address"
        }
      ],
      "name": "LogModifyEntryBeneficiary",
      "type": "event"
    },
    {
      "anonymous": false,
      "inputs": [
        {
          "indexed": true,
          "name": "agent",
          "type": "address"
        },
        {
          "indexed": false,
          "name": "callingContext",
          "type": "string"
        }
      ],
      "name": "Authorized",
      "type": "event"
    },
    {
      "anonymous": false,
      "inputs": [
        {
          "indexed": true,
          "name": "agent",
          "type": "address"
        },
        {
          "indexed": false,
          "name": "callingContext",
          "type": "string"
        }
      ],
      "name": "AuthorizationRevoked",
      "type": "event"
    },
    {
      "anonymous": false,
      "inputs": [],
      "name": "Pause",
      "type": "event"
    },
    {
      "anonymous": false,
      "inputs": [],
      "name": "Unpause",
      "type": "event"
    },
    {
      "anonymous": false,
      "inputs": [
        {
          "indexed": true,
          "name": "previousOwner",
          "type": "address"
        },
        {
          "indexed": true,
          "name": "newOwner",
          "type": "address"
        }
      ],
      "name": "OwnershipTransferred",
      "type": "event"
    }
  ],
  "bytecode": "0x606060405260008060146101000a81548160ff021916908315150217905550336000806101000a81548173ffffffffffffffffffffffffffffffffffffffff021916908373ffffffffffffffffffffffffffffffffffffffff1602179055506123298061006d6000396000f300606060405260043610610133576000357c0100000000000000000000000000000000000000000000000000000000900463ffffffff1680632be84c6614610138578063314a522e146101c65780633f4ba83a1461020957806342cc6b041461021e5780635969549e146102575780635c975abb1461029d57806364a666f2146102ca5780636be39bda146103345780638456cb59146103aa5780638ad1d846146103bf5780638da5cb5b1461044d5780638dadc81d146104a25780638eaa6ac014610530578063932993951461064d5780639758af1e14610686578063ad655998146106c5578063ba20dda4146106fe578063c205e64c14610765578063cf9df5eb1461079e578063d69dbf631461088e578063f2fde38b146108c9578063f6f494c914610902578063f94df67814610969575b600080fd5b341561014357600080fd5b61014b6109d3565b6040518080602001828103825283818151815260200191508051906020019080838360005b8381101561018b578082015181840152602081019050610170565b50505050905090810190601f1680156101b85780820380516001836020036101000a031916815260200191505b509250505060405180910390f35b34156101d157600080fd5b6101eb600480803560001916906020019091905050610a0c565b60405180826000191660001916815260200191505060405180910390f35b341561021457600080fd5b61021c610a4a565b005b341561022957600080fd5b610255600480803573ffffffffffffffffffffffffffffffffffffffff16906020019091905050610b08565b005b341561026257600080fd5b61029b60048080356000191690602001909190803573ffffffffffffffffffffffffffffffffffffffff16906020019091905050610bb1565b005b34156102a857600080fd5b6102b0610d44565b604051808215151515815260200191505060405180910390f35b34156102d557600080fd5b6102dd610d57565b6040518080602001828103825283818151815260200191508051906020019060200280838360005b83811015610320578082015181840152602081019050610305565b505050509050019250505060405180910390f35b341561033f57600080fd5b610359600480803560001916906020019091905050610d6e565b604051808373ffffffffffffffffffffffffffffffffffffffff1673ffffffffffffffffffffffffffffffffffffffff16815260200182600019166000191681526020019250505060405180910390f35b34156103b557600080fd5b6103bd610dee565b005b34156103ca57600080fd5b6103f6600480803573ffffffffffffffffffffffffffffffffffffffff16906020019091905050610eae565b6040518080602001828103825283818151815260200191508051906020019060200280838360005b8381101561043957808201518184015260208101905061041e565b505050509050019250505060405180910390f35b341561045857600080fd5b610460610f4f565b604051808273ffffffffffffffffffffffffffffffffffffffff1673ffffffffffffffffffffffffffffffffffffffff16815260200191505060405180910390f35b34156104ad57600080fd5b6104b5610f74565b6040518080602001828103825283818151815260200191508051906020019080838360005b838110156104f55780820151818401526020810190506104da565b50505050905090810190601f1680156105225780820380516001836020036101000a031916815260200191505b509250505060405180910390f35b341561053b57600080fd5b610555600480803560001916906020019091905050610fad565b604051808873ffffffffffffffffffffffffffffffffffffffff1673ffffffffffffffffffffffffffffffffffffffff1681526020018773ffffffffffffffffffffffffffffffffffffffff1673ffffffffffffffffffffffffffffffffffffffff1681526020018673ffffffffffffffffffffffffffffffffffffffff1673ffffffffffffffffffffffffffffffffffffffff1681526020018581526020018473ffffffffffffffffffffffffffffffffffffffff1673ffffffffffffffffffffffffffffffffffffffff168152602001836000191660001916815260200182815260200197505050505050505060405180910390f35b341561065857600080fd5b610684600480803573ffffffffffffffffffffffffffffffffffffffff1690602001909190505061112a565b005b341561069157600080fd5b6106ab6004808035600019169060200190919050506111d3565b604051808215151515815260200191505060405180910390f35b34156106d057600080fd5b6106fc600480803573ffffffffffffffffffffffffffffffffffffffff1690602001909190505061124a565b005b341561070957600080fd5b6107236004808035600019169060200190919050506112f3565b604051808273ffffffffffffffffffffffffffffffffffffffff1673ffffffffffffffffffffffffffffffffffffffff16815260200191505060405180910390f35b341561077057600080fd5b61079c600480803573ffffffffffffffffffffffffffffffffffffffff16906020019091905050611351565b005b34156107a957600080fd5b610870600480803573ffffffffffffffffffffffffffffffffffffffff1690602001909190803573ffffffffffffffffffffffffffffffffffffffff1690602001909190803573ffffffffffffffffffffffffffffffffffffffff1690602001909190803573ffffffffffffffffffffffffffffffffffffffff1690602001909190803590602001909190803573ffffffffffffffffffffffffffffffffffffffff16906020019091908035600019169060200190919080359060200190919050506113fa565b60405180826000191660001916815260200191505060405180910390f35b341561089957600080fd5b6108b3600480803560001916906020019091905050611835565b6040518082815260200191505060405180910390f35b34156108d457600080fd5b610900600480803573ffffffffffffffffffffffffffffffffffffffff16906020019091905050611873565b005b341561090d57600080fd5b6109276004808035600019169060200190919050506119c8565b604051808273ffffffffffffffffffffffffffffffffffffffff1673ffffffffffffffffffffffffffffffffffffffff16815260200191505060405180910390f35b341561097457600080fd5b61097c611a26565b6040518080602001828103825283818151815260200191508051906020019060200280838360005b838110156109bf5780820151818401526020810190506109a4565b505050509050019250505060405180910390f35b6040805190810160405280601281526020017f646562742d72656769737472792d65646974000000000000000000000000000081525081565b600081610a18816111d3565b1515610a2357600080fd5b60016000846000191660001916815260200190815260200160002060050154915050919050565b6000809054906101000a900473ffffffffffffffffffffffffffffffffffffffff1673ffffffffffffffffffffffffffffffffffffffff163373ffffffffffffffffffffffffffffffffffffffff16141515610aa557600080fd5b600060149054906101000a900460ff161515610ac057600080fd5b60008060146101000a81548160ff0219169083151502179055507f7805862f689e2f13df9f062ff482ad3ad112aca9e0847911ed832e158c525b3360405160405180910390a1565b6000809054906101000a900473ffffffffffffffffffffffffffffffffffffffff1673ffffffffffffffffffffffffffffffffffffffff163373ffffffffffffffffffffffffffffffffffffffff16141515610b6357600080fd5b610bae816040805190810160405280601281526020017f646562742d72656769737472792d6564697400000000000000000000000000008152506006611a3d9092919063ffffffff16565b50565b6000610bc7336006611c1990919063ffffffff16565b1515610bd257600080fd5b600060149054906101000a900460ff16151515610bee57600080fd5b82610bf8816111d3565b1515610c0357600080fd5b82600073ffffffffffffffffffffffffffffffffffffffff168173ffffffffffffffffffffffffffffffffffffffff1614151515610c4057600080fd5b60016000866000191660001916815260200190815260200160002060010160009054906101000a900473ffffffffffffffffffffffffffffffffffffffff1692508360016000876000191660001916815260200190815260200160002060010160006101000a81548173ffffffffffffffffffffffffffffffffffffffff021916908373ffffffffffffffffffffffffffffffffffffffff1602179055508373ffffffffffffffffffffffffffffffffffffffff168373ffffffffffffffffffffffffffffffffffffffff1686600019167f7afbd1e661f2fdce6222afdac74cd28b1847177e232db3d0f0dcf3739e8d809460405160405180910390a45050505050565b600060149054906101000a900460ff1681565b610d5f61216e565b610d696003611c72565b905090565b60008082610d7b816111d3565b1515610d8657600080fd5b60016000856000191660001916815260200190815260200160002060040160009054906101000a900473ffffffffffffffffffffffffffffffffffffffff16600160008660001916600019168152602001908152602001600020600501549250925050915091565b6000809054906101000a900473ffffffffffffffffffffffffffffffffffffffff1673ffffffffffffffffffffffffffffffffffffffff163373ffffffffffffffffffffffffffffffffffffffff16141515610e4957600080fd5b600060149054906101000a900460ff16151515610e6557600080fd5b6001600060146101000a81548160ff0219169083151502179055507f6985a02210a168e66602d3235cb6db0e70f92b3ba4d376a33c0f3d9434bff62560405160405180910390a1565b610eb6612182565b600260008373ffffffffffffffffffffffffffffffffffffffff1673ffffffffffffffffffffffffffffffffffffffff168152602001908152602001600020805480602002602001604051908101604052809291908181526020018280548015610f4357602002820191906000526020600020905b81546000191681526020019060010190808311610f2b575b50505050509050919050565b6000809054906101000a900473ffffffffffffffffffffffffffffffffffffffff1681565b6040805190810160405280601481526020017f646562742d72656769737472792d696e7365727400000000000000000000000081525081565b600080600080600080600060016000896000191660001916815260200190815260200160002060000160009054906101000a900473ffffffffffffffffffffffffffffffffffffffff16600160008a6000191660001916815260200190815260200160002060010160009054906101000a900473ffffffffffffffffffffffffffffffffffffffff16600160008b6000191660001916815260200190815260200160002060020160009054906101000a900473ffffffffffffffffffffffffffffffffffffffff16600160008c6000191660001916815260200190815260200160002060030154600160008d6000191660001916815260200190815260200160002060040160009054906101000a900473ffffffffffffffffffffffffffffffffffffffff16600160008e6000191660001916815260200190815260200160002060050154600160008f60001916600019168152602001908152602001600020600601549650965096509650965096509650919395979092949650565b6000809054906101000a900473ffffffffffffffffffffffffffffffffffffffff1673ffffffffffffffffffffffffffffffffffffffff163373ffffffffffffffffffffffffffffffffffffffff1614151561118557600080fd5b6111d0816040805190810160405280601281526020017f646562742d72656769737472792d6564697400000000000000000000000000008152506006611d0a9092919063ffffffff16565b50565b60008073ffffffffffffffffffffffffffffffffffffffff1660016000846000191660001916815260200190815260200160002060010160009054906101000a900473ffffffffffffffffffffffffffffffffffffffff1673ffffffffffffffffffffffffffffffffffffffff1614159050919050565b6000809054906101000a900473ffffffffffffffffffffffffffffffffffffffff1673ffffffffffffffffffffffffffffffffffffffff163373ffffffffffffffffffffffffffffffffffffffff161415156112a557600080fd5b6112f0816040805190810160405280601481526020017f646562742d72656769737472792d696e736572740000000000000000000000008152506003611a3d9092919063ffffffff16565b50565b6000816112ff816111d3565b151561130a57600080fd5b60016000846000191660001916815260200190815260200160002060010160009054906101000a900473ffffffffffffffffffffffffffffffffffffffff16915050919050565b6000809054906101000a900473ffffffffffffffffffffffffffffffffffffffff1673ffffffffffffffffffffffffffffffffffffffff163373ffffffffffffffffffffffffffffffffffffffff161415156113ac57600080fd5b6113f7816040805190810160405280601481526020017f646562742d72656769737472792d696e736572740000000000000000000000008152506003611d0a9092919063ffffffff16565b50565b6000611404612196565b600061141a336003611c1990919063ffffffff16565b151561142557600080fd5b600060149054906101000a900460ff1615151561144157600080fd5b89600073ffffffffffffffffffffffffffffffffffffffff168173ffffffffffffffffffffffffffffffffffffffff161415151561147e57600080fd5b60e0604051908101604052808d73ffffffffffffffffffffffffffffffffffffffff1681526020018c73ffffffffffffffffffffffffffffffffffffffff1681526020018a73ffffffffffffffffffffffffffffffffffffffff1681526020018981526020018873ffffffffffffffffffffffffffffffffffffffff1681526020018760001916815260200142815250925061151b838b87612000565b9150600073ffffffffffffffffffffffffffffffffffffffff1660016000846000191660001916815260200190815260200160002060010160009054906101000a900473ffffffffffffffffffffffffffffffffffffffff1673ffffffffffffffffffffffffffffffffffffffff1614151561159657600080fd5b8260016000846000191660001916815260200190815260200160002060008201518160000160006101000a81548173ffffffffffffffffffffffffffffffffffffffff021916908373ffffffffffffffffffffffffffffffffffffffff16021790555060208201518160010160006101000a81548173ffffffffffffffffffffffffffffffffffffffff021916908373ffffffffffffffffffffffffffffffffffffffff16021790555060408201518160020160006101000a81548173ffffffffffffffffffffffffffffffffffffffff021916908373ffffffffffffffffffffffffffffffffffffffff1602179055506060820151816003015560808201518160040160006101000a81548173ffffffffffffffffffffffffffffffffffffffff021916908373ffffffffffffffffffffffffffffffffffffffff16021790555060a0820151816005019060001916905560c08201518160060155905050600260008b73ffffffffffffffffffffffffffffffffffffffff1673ffffffffffffffffffffffffffffffffffffffff1681526020019081526020016000208054806001018281611746919061222f565b916000526020600020900160008490919091509060001916905550826040015173ffffffffffffffffffffffffffffffffffffffff16836020015173ffffffffffffffffffffffffffffffffffffffff1683600019167f10919d8a6bfbd0c46213ad51d6258e42af00bbf36133aada8a058bbe4f4a9240866060015187608001518860a00151604051808481526020018373ffffffffffffffffffffffffffffffffffffffff1673ffffffffffffffffffffffffffffffffffffffff1681526020018260001916600019168152602001935050505060405180910390a481935050505098975050505050505050565b600081611841816111d3565b151561184c57600080fd5b60016000846000191660001916815260200190815260200160002060060154915050919050565b6000809054906101000a900473ffffffffffffffffffffffffffffffffffffffff1673ffffffffffffffffffffffffffffffffffffffff163373ffffffffffffffffffffffffffffffffffffffff161415156118ce57600080fd5b600073ffffffffffffffffffffffffffffffffffffffff168173ffffffffffffffffffffffffffffffffffffffff161415151561190a57600080fd5b8073ffffffffffffffffffffffffffffffffffffffff166000809054906101000a900473ffffffffffffffffffffffffffffffffffffffff1673ffffffffffffffffffffffffffffffffffffffff167f8be0079c531659141344cd1fd0a4f28419497f9722a3daafe3b4186f6b6457e060405160405180910390a3806000806101000a81548173ffffffffffffffffffffffffffffffffffffffff021916908373ffffffffffffffffffffffffffffffffffffffff16021790555050565b6000816119d4816111d3565b15156119df57600080fd5b60016000846000191660001916815260200190815260200160002060040160009054906101000a900473ffffffffffffffffffffffffffffffffffffffff16915050919050565b611a2e61216e565b611a386006611c72565b905090565b611a478383612159565b1515611a5257600080fd5b60018360000160008473ffffffffffffffffffffffffffffffffffffffff1673ffffffffffffffffffffffffffffffffffffffff16815260200190815260200160002060006101000a81548160ff021916908315150217905550826002018054806001018281611ac2919061225b565b9160005260206000209001600084909190916101000a81548173ffffffffffffffffffffffffffffffffffffffff021916908373ffffffffffffffffffffffffffffffffffffffff1602179055505060018360020180549050038360010160008473ffffffffffffffffffffffffffffffffffffffff1673ffffffffffffffffffffffffffffffffffffffff168152602001908152602001600020819055508173ffffffffffffffffffffffffffffffffffffffff167f571925c699f9072cec76b6c6c000571cc8d0bb5c47e5819202e2e9496c6508b5826040518080602001828103825283818151815260200191508051906020019080838360005b83811015611bda578082015181840152602081019050611bbf565b50505050905090810190601f168015611c075780820380516001836020036101000a031916815260200191505b509250505060405180910390a2505050565b60008260000160008373ffffffffffffffffffffffffffffffffffffffff1673ffffffffffffffffffffffffffffffffffffffff16815260200190815260200160002060009054906101000a900460ff16905092915050565b611c7a61216e565b81600201805480602002602001604051908101604052809291908181526020018280548015611cfe57602002820191906000526020600020905b8160009054906101000a900473ffffffffffffffffffffffffffffffffffffffff1673ffffffffffffffffffffffffffffffffffffffff1681526020019060010190808311611cb4575b50505050509050919050565b6000806000611d198686611c19565b1515611d2457600080fd5b8560010160008673ffffffffffffffffffffffffffffffffffffffff1673ffffffffffffffffffffffffffffffffffffffff168152602001908152602001600020549250600186600201805490500391508560020182815481101515611d8657fe5b906000526020600020900160009054906101000a900473ffffffffffffffffffffffffffffffffffffffff1690508560000160008673ffffffffffffffffffffffffffffffffffffffff1673ffffffffffffffffffffffffffffffffffffffff16815260200190815260200160002060006101000a81549060ff0219169055808660020184815481101515611e1757fe5b906000526020600020900160006101000a81548173ffffffffffffffffffffffffffffffffffffffff021916908373ffffffffffffffffffffffffffffffffffffffff160217905550828660010160008373ffffffffffffffffffffffffffffffffffffffff1673ffffffffffffffffffffffffffffffffffffffff168152602001908152602001600020819055508560010160008673ffffffffffffffffffffffffffffffffffffffff1673ffffffffffffffffffffffffffffffffffffffff168152602001908152602001600020600090558560020182815481101515611efc57fe5b906000526020600020900160006101000a81549073ffffffffffffffffffffffffffffffffffffffff021916905560018660020181818054905003915081611f449190612287565b508473ffffffffffffffffffffffffffffffffffffffff167f0814e4ee85854cea446b4a27a460e5ffb41516230dbc02f226c07907e432241c856040518080602001828103825283818151815260200191508051906020019080838360005b83811015611fbe578082015181840152602081019050611fa3565b50505050905090810190601f168015611feb5780820380516001836020036101000a031916815260200191505b509250505060405180910390a2505050505050565b60008360000151838560400151866060015187608001518860a0015187604051808873ffffffffffffffffffffffffffffffffffffffff1673ffffffffffffffffffffffffffffffffffffffff166c010000000000000000000000000281526014018773ffffffffffffffffffffffffffffffffffffffff1673ffffffffffffffffffffffffffffffffffffffff166c010000000000000000000000000281526014018673ffffffffffffffffffffffffffffffffffffffff1673ffffffffffffffffffffffffffffffffffffffff166c010000000000000000000000000281526014018581526020018473ffffffffffffffffffffffffffffffffffffffff1673ffffffffffffffffffffffffffffffffffffffff166c010000000000000000000000000281526014018360001916600019168152602001828152602001975050505050505050604051809103902090509392505050565b60006121658383611c19565b15905092915050565b602060405190810160405280600081525090565b602060405190810160405280600081525090565b60e060405190810160405280600073ffffffffffffffffffffffffffffffffffffffff168152602001600073ffffffffffffffffffffffffffffffffffffffff168152602001600073ffffffffffffffffffffffffffffffffffffffff16815260200160008152602001600073ffffffffffffffffffffffffffffffffffffffff16815260200160008019168152602001600081525090565b8154818355818115116122565781836000526020600020918201910161225591906122b3565b5b505050565b8154818355818115116122825781836000526020600020918201910161228191906122d8565b5b505050565b8154818355818115116122ae578183600052602060002091820191016122ad91906122d8565b5b505050565b6122d591905b808211156122d15760008160009055506001016122b9565b5090565b90565b6122fa91905b808211156122f65760008160009055506001016122de565b5090565b905600a165627a7a72305820391fd9c8ab442975f8d277fcfa202aa8761f287c1439ab93babef77863dd01910029",
  "source": "/*\r\n\r\n  Copyright 2017 Dharma Labs Inc.\r\n\r\n  Licensed under the Apache License, Version 2.0 (the \"License\");\r\n  you may not use this file except in compliance with the License.\r\n  You may obtain a copy of the License at\r\n\r\n    http://www.apache.org/licenses/LICENSE-2.0\r\n\r\n  Unless required by applicable law or agreed to in writing, software\r\n  distributed under the License is distributed on an \"AS IS\" BASIS,\r\n  WITHOUT WARRANTIES OR CONDITIONS OF ANY KIND, either express or implied.\r\n  See the License for the specific language governing permissions and\r\n  limitations under the License.\r\n\r\n*/\r\n \r\npragma solidity 0.4.18;\r\n\r\nimport { PermissionsLib, PermissionEvents } from \"./libraries/PermissionsLib.sol\";\r\nimport \"zeppelin-solidity/contracts/math/SafeMath.sol\";\r\nimport \"zeppelin-solidity/contracts/lifecycle/Pausable.sol\";\r\n\r\n\r\n/**\r\n * The DebtRegistry stores the parameters and beneficiaries of all debt agreements in\r\n * Dharma protocol.  It authorizes a limited number of agents to\r\n * perform mutations on it -- those agents can be changed at any\r\n * time by the contract's owner.\r\n *\r\n * Author: Nadav Hollander -- Github: nadavhollander\r\n */\r\ncontract DebtRegistry is Pausable, PermissionEvents {\r\n    using SafeMath for uint;\r\n    using PermissionsLib for PermissionsLib.Permissions;\r\n\r\n    struct Entry {\r\n        address version;\r\n        address beneficiary;\r\n        address underwriter;\r\n        uint underwriterRiskRating;\r\n        address termsContract;\r\n        bytes32 termsContractParameters;\r\n        uint issuanceBlockTimestamp;\r\n    }\r\n\r\n    // Primary registry mapping agreement IDs to their corresponding entries\r\n    mapping (bytes32 => Entry) internal registry;\r\n\r\n    // Maps debtor addresses to a list of their debts' agreement IDs\r\n    mapping (address => bytes32[]) internal debtorToDebts;\r\n\r\n    PermissionsLib.Permissions internal entryInsertPermissions;\r\n    PermissionsLib.Permissions internal entryEditPermissions;\r\n\r\n    string public constant INSERT_CONTEXT = \"debt-registry-insert\";\r\n    string public constant EDIT_CONTEXT = \"debt-registry-edit\";\r\n\r\n    event LogInsertEntry(\r\n        bytes32 indexed agreementId,\r\n        address indexed beneficiary,\r\n        address indexed underwriter,\r\n        uint underwriterRiskRating,\r\n        address termsContract,\r\n        bytes32 termsContractParameters\r\n    );\r\n\r\n    event LogModifyEntryBeneficiary(\r\n        bytes32 indexed agreementId,\r\n        address indexed previousBeneficiary,\r\n        address indexed newBeneficiary\r\n    );\r\n\r\n    modifier onlyAuthorizedToInsert() {\r\n        require(entryInsertPermissions.isAuthorized(msg.sender));\r\n        _;\r\n    }\r\n\r\n    modifier onlyAuthorizedToEdit() {\r\n        require(entryEditPermissions.isAuthorized(msg.sender));\r\n        _;\r\n    }\r\n\r\n    modifier onlyExtantEntry(bytes32 agreementId) {\r\n        require(doesEntryExist(agreementId));\r\n        _;\r\n    }\r\n\r\n    modifier nonNullBeneficiary(address beneficiary) {\r\n        require(beneficiary != address(0));\r\n        _;\r\n    }\r\n\r\n    /* Ensures an entry with the specified agreement ID exists within the debt registry. */\r\n    function doesEntryExist(bytes32 agreementId)\r\n        public\r\n        view\r\n        returns (bool exists)\r\n    {\r\n        return registry[agreementId].beneficiary != address(0);\r\n    }\r\n\r\n    /**\r\n     * Inserts a new entry into the registry, if the entry is valid and sender is\r\n     * authorized to make 'insert' mutations to the registry.\r\n     */\r\n    function insert(\r\n        address _version,\r\n        address _beneficiary,\r\n        address _debtor,\r\n        address _underwriter,\r\n        uint _underwriterRiskRating,\r\n        address _termsContract,\r\n        bytes32 _termsContractParameters,\r\n        uint _salt\r\n    )\r\n        public\r\n        onlyAuthorizedToInsert\r\n        whenNotPaused\r\n        nonNullBeneficiary(_beneficiary)\r\n        returns (bytes32 _agreementId)\r\n    {\r\n        Entry memory entry = Entry(\r\n            _version,\r\n            _beneficiary,\r\n            _underwriter,\r\n            _underwriterRiskRating,\r\n            _termsContract,\r\n            _termsContractParameters,\r\n            block.timestamp\r\n        );\r\n\r\n        bytes32 agreementId = _getAgreementId(entry, _debtor, _salt);\r\n\r\n        require(registry[agreementId].beneficiary == address(0));\r\n\r\n        registry[agreementId] = entry;\r\n        debtorToDebts[_debtor].push(agreementId);\r\n\r\n        LogInsertEntry(\r\n            agreementId,\r\n            entry.beneficiary,\r\n            entry.underwriter,\r\n            entry.underwriterRiskRating,\r\n            entry.termsContract,\r\n            entry.termsContractParameters\r\n        );\r\n\r\n        return agreementId;\r\n    }\r\n\r\n    /**\r\n     * Modifies the beneficiary of a debt issuance, if the sender\r\n     * is authorized to make 'modifyBeneficiary' mutations to\r\n     * the registry.\r\n     */\r\n    function modifyBeneficiary(bytes32 agreementId, address newBeneficiary)\r\n        public\r\n        onlyAuthorizedToEdit\r\n        whenNotPaused\r\n        onlyExtantEntry(agreementId)\r\n        nonNullBeneficiary(newBeneficiary)\r\n    {\r\n        address previousBeneficiary = registry[agreementId].beneficiary;\r\n\r\n        registry[agreementId].beneficiary = newBeneficiary;\r\n\r\n        LogModifyEntryBeneficiary(\r\n            agreementId,\r\n            previousBeneficiary,\r\n            newBeneficiary\r\n        );\r\n    }\r\n\r\n    /**\r\n     * Adds an address to the list of agents authorized\r\n     * to make 'insert' mutations to the registry.\r\n     */\r\n    function addAuthorizedInsertAgent(address agent)\r\n        public\r\n        onlyOwner\r\n    {\r\n        entryInsertPermissions.authorize(agent, INSERT_CONTEXT);\r\n    }\r\n\r\n    /**\r\n     * Adds an address to the list of agents authorized\r\n     * to make 'modifyBeneficiary' mutations to the registry.\r\n     */\r\n    function addAuthorizedEditAgent(address agent)\r\n        public\r\n        onlyOwner\r\n    {\r\n        entryEditPermissions.authorize(agent, EDIT_CONTEXT);\r\n    }\r\n\r\n    /**\r\n     * Removes an address from the list of agents authorized\r\n     * to make 'insert' mutations to the registry.\r\n     */\r\n    function revokeInsertAgentAuthorization(address agent)\r\n        public\r\n        onlyOwner\r\n    {\r\n        entryInsertPermissions.revokeAuthorization(agent, INSERT_CONTEXT);\r\n    }\r\n\r\n    /**\r\n     * Removes an address from the list of agents authorized\r\n     * to make 'modifyBeneficiary' mutations to the registry.\r\n     */\r\n    function revokeEditAgentAuthorization(address agent)\r\n        public\r\n        onlyOwner\r\n    {\r\n        entryEditPermissions.revokeAuthorization(agent, EDIT_CONTEXT);\r\n    }\r\n\r\n    /**\r\n     * Returns the parameters of a debt issuance in the registry.\r\n     *\r\n     * TODO(kayvon): protect this function with our `onlyExtantEntry` modifier once the restriction\r\n     * on the size of the call stack has been addressed.\r\n     */\r\n    function get(bytes32 agreementId)\r\n        public\r\n        view\r\n        returns(address, address, address, uint, address, bytes32, uint)\r\n    {\r\n        return (\r\n            registry[agreementId].version,\r\n            registry[agreementId].beneficiary,\r\n            registry[agreementId].underwriter,\r\n            registry[agreementId].underwriterRiskRating,\r\n            registry[agreementId].termsContract,\r\n            registry[agreementId].termsContractParameters,\r\n            registry[agreementId].issuanceBlockTimestamp\r\n        );\r\n    }\r\n\r\n    /**\r\n     * Returns the beneficiary of a given issuance\r\n     */\r\n    function getBeneficiary(bytes32 agreementId)\r\n        public\r\n        view\r\n        onlyExtantEntry(agreementId)\r\n        returns(address)\r\n    {\r\n        return registry[agreementId].beneficiary;\r\n    }\r\n\r\n    /**\r\n     * Returns the terms contract address of a given issuance\r\n     */\r\n    function getTermsContract(bytes32 agreementId)\r\n        public\r\n        view\r\n        onlyExtantEntry(agreementId)\r\n        returns (address)\r\n    {\r\n        return registry[agreementId].termsContract;\r\n    }\r\n\r\n    /**\r\n     * Returns the terms contract parameters of a given issuance\r\n     */\r\n    function getTermsContractParameters(bytes32 agreementId)\r\n        public\r\n        view\r\n        onlyExtantEntry(agreementId)\r\n        returns (bytes32)\r\n    {\r\n        return registry[agreementId].termsContractParameters;\r\n    }\r\n\r\n    /**\r\n     * Returns a tuple of the terms contract and its associated parameters\r\n     * for a given issuance\r\n     */\r\n    function getTerms(bytes32 agreementId)\r\n        public\r\n        view\r\n        onlyExtantEntry(agreementId)\r\n        returns(address, bytes32)\r\n    {\r\n        return (\r\n            registry[agreementId].termsContract,\r\n            registry[agreementId].termsContractParameters\r\n        );\r\n    }\r\n\r\n    /**\r\n     * Returns the timestamp of the block at which a debt agreement was issued.\r\n     */\r\n    function getIssuanceBlockTimestamp(bytes32 agreementId)\r\n        public\r\n        view\r\n        onlyExtantEntry(agreementId)\r\n        returns (uint timestamp)\r\n    {\r\n        return registry[agreementId].issuanceBlockTimestamp;\r\n    }\r\n\r\n    /**\r\n     * Returns the list of agents authorized to make 'insert' mutations\r\n     */\r\n    function getAuthorizedInsertAgents()\r\n        public\r\n        view\r\n        returns(address[])\r\n    {\r\n        return entryInsertPermissions.getAuthorizedAgents();\r\n    }\r\n\r\n    /**\r\n     * Returns the list of agents authorized to make 'modifyBeneficiary' mutations\r\n     */\r\n    function getAuthorizedEditAgents()\r\n        public\r\n        view\r\n        returns(address[])\r\n    {\r\n        return entryEditPermissions.getAuthorizedAgents();\r\n    }\r\n\r\n    /**\r\n     * Returns the list of debt agreements a debtor is party to,\r\n     * with each debt agreement listed by agreement ID.\r\n     */\r\n    function getDebtorsDebts(address debtor)\r\n        public\r\n        view\r\n        returns(bytes32[])\r\n    {\r\n        return debtorToDebts[debtor];\r\n    }\r\n\r\n    /**\r\n     * Helper function for computing the hash of a given issuance,\r\n     * and, in turn, its agreementId\r\n     */\r\n    function _getAgreementId(Entry _entry, address _debtor, uint _salt)\r\n        internal\r\n        pure\r\n        returns(bytes32)\r\n    {\r\n        return keccak256(\r\n            _entry.version,\r\n            _debtor,\r\n            _entry.underwriter,\r\n            _entry.underwriterRiskRating,\r\n            _entry.termsContract,\r\n            _entry.termsContractParameters,\r\n            _salt\r\n        );\r\n    }\r\n}\r\n",
  "sourcePath": "/mnt/c/Users/devan/fixer/check-dharma/contracts/DebtRegistry.sol",
  "compiler": {
    "name": "solc",
    "version": "0.4.18+commit.9cf6e910.Emscripten.clang"
  },
  "schemaVersion": "1.0.1",
  "updatedAt": "2018-11-27T07:48:42.733Z"
}