{
  "contractName": "DebtKernel",
  "abi": [
    {
      "constant": false,
      "inputs": [
        {
          "name": "orderAddresses",
          "type": "address[6]"
        },
        {
          "name": "orderValues",
          "type": "uint256[8]"
        },
        {
          "name": "orderBytes32",
          "type": "bytes32[1]"
        }
      ],
      "name": "cancelDebtOrder",
      "outputs": [],
      "payable": false,
      "stateMutability": "nonpayable",
      "type": "function"
    },
    {
      "constant": false,
      "inputs": [],
      "name": "unpause",
      "outputs": [],
      "payable": false,
      "stateMutability": "nonpayable",
      "type": "function"
    },
    {
      "constant": true,
      "inputs": [
        {
          "name": "",
          "type": "bytes32"
        }
      ],
      "name": "debtOrderCancelled",
      "outputs": [
        {
          "name": "",
          "type": "bool"
        }
      ],
      "payable": false,
      "stateMutability": "view",
      "type": "function"
    },
    {
      "constant": true,
      "inputs": [],
      "name": "paused",
      "outputs": [
        {
          "name": "",
          "type": "bool"
        }
      ],
      "payable": false,
      "stateMutability": "view",
      "type": "function"
    },
    {
      "constant": false,
      "inputs": [],
      "name": "pause",
      "outputs": [],
      "payable": false,
      "stateMutability": "nonpayable",
      "type": "function"
    },
    {
      "constant": true,
      "inputs": [
        {
          "name": "",
          "type": "bytes32"
        }
      ],
      "name": "issuanceCancelled",
      "outputs": [
        {
          "name": "",
          "type": "bool"
        }
      ],
      "payable": false,
      "stateMutability": "view",
      "type": "function"
    },
    {
      "constant": true,
      "inputs": [],
      "name": "owner",
      "outputs": [
        {
          "name": "",
          "type": "address"
        }
      ],
      "payable": false,
      "stateMutability": "view",
      "type": "function"
    },
    {
      "constant": true,
      "inputs": [],
      "name": "TOKEN_TRANSFER_PROXY",
      "outputs": [
        {
          "name": "",
          "type": "address"
        }
      ],
      "payable": false,
      "stateMutability": "view",
      "type": "function"
    },
    {
      "constant": false,
      "inputs": [
        {
          "name": "debtTokenAddress",
          "type": "address"
        }
      ],
      "name": "setDebtToken",
      "outputs": [],
      "payable": false,
      "stateMutability": "nonpayable",
      "type": "function"
    },
    {
      "constant": false,
      "inputs": [
        {
          "name": "version",
          "type": "address"
        },
        {
          "name": "debtor",
          "type": "address"
        },
        {
          "name": "termsContract",
          "type": "address"
        },
        {
          "name": "termsContractParameters",
          "type": "bytes32"
        },
        {
          "name": "underwriter",
          "type": "address"
        },
        {
          "name": "underwriterRiskRating",
          "type": "uint256"
        },
        {
          "name": "salt",
          "type": "uint256"
        }
      ],
      "name": "cancelIssuance",
      "outputs": [],
      "payable": false,
      "stateMutability": "nonpayable",
      "type": "function"
    },
    {
      "constant": true,
      "inputs": [],
      "name": "NULL_ISSUANCE_HASH",
      "outputs": [
        {
          "name": "",
          "type": "bytes32"
        }
      ],
      "payable": false,
      "stateMutability": "view",
      "type": "function"
    },
    {
      "constant": false,
      "inputs": [
        {
          "name": "creditor",
          "type": "address"
        },
        {
          "name": "orderAddresses",
          "type": "address[6]"
        },
        {
          "name": "orderValues",
          "type": "uint256[8]"
        },
        {
          "name": "orderBytes32",
          "type": "bytes32[1]"
        },
        {
          "name": "signaturesV",
          "type": "uint8[3]"
        },
        {
          "name": "signaturesR",
          "type": "bytes32[3]"
        },
        {
          "name": "signaturesS",
          "type": "bytes32[3]"
        }
      ],
      "name": "fillDebtOrder",
      "outputs": [
        {
          "name": "_agreementId",
          "type": "bytes32"
        }
      ],
      "payable": false,
      "stateMutability": "nonpayable",
      "type": "function"
    },
    {
      "constant": true,
      "inputs": [],
      "name": "EXTERNAL_QUERY_GAS_LIMIT",
      "outputs": [
        {
          "name": "",
          "type": "uint16"
        }
      ],
      "payable": false,
      "stateMutability": "view",
      "type": "function"
    },
    {
      "constant": false,
      "inputs": [
        {
          "name": "newOwner",
          "type": "address"
        }
      ],
      "name": "transferOwnership",
      "outputs": [],
      "payable": false,
      "stateMutability": "nonpayable",
      "type": "function"
    },
    {
      "constant": true,
      "inputs": [],
      "name": "debtToken",
      "outputs": [
        {
          "name": "",
          "type": "address"
        }
      ],
      "payable": false,
      "stateMutability": "view",
      "type": "function"
    },
    {
      "inputs": [
        {
          "name": "tokenTransferProxyAddress",
          "type": "address"
        }
      ],
      "payable": false,
      "stateMutability": "nonpayable",
      "type": "constructor"
    },
    {
      "anonymous": false,
      "inputs": [
        {
          "indexed": true,
          "name": "_agreementId",
          "type": "bytes32"
        },
        {
          "indexed": false,
          "name": "_principal",
          "type": "uint256"
        },
        {
          "indexed": false,
          "name": "_principalToken",
          "type": "address"
        },
        {
          "indexed": true,
          "name": "_underwriter",
          "type": "address"
        },
        {
          "indexed": false,
          "name": "_underwriterFee",
          "type": "uint256"
        },
        {
          "indexed": true,
          "name": "_relayer",
          "type": "address"
        },
        {
          "indexed": false,
          "name": "_relayerFee",
          "type": "uint256"
        }
      ],
      "name": "LogDebtOrderFilled",
      "type": "event"
    },
    {
      "anonymous": false,
      "inputs": [
        {
          "indexed": true,
          "name": "_agreementId",
          "type": "bytes32"
        },
        {
          "indexed": true,
          "name": "_cancelledBy",
          "type": "address"
        }
      ],
      "name": "LogIssuanceCancelled",
      "type": "event"
    },
    {
      "anonymous": false,
      "inputs": [
        {
          "indexed": true,
          "name": "_debtOrderHash",
          "type": "bytes32"
        },
        {
          "indexed": true,
          "name": "_cancelledBy",
          "type": "address"
        }
      ],
      "name": "LogDebtOrderCancelled",
      "type": "event"
    },
    {
      "anonymous": false,
      "inputs": [
        {
          "indexed": true,
          "name": "_errorId",
          "type": "uint8"
        },
        {
          "indexed": true,
          "name": "_orderHash",
          "type": "bytes32"
        }
      ],
      "name": "LogError",
      "type": "event"
    },
    {
      "anonymous": false,
      "inputs": [],
      "name": "Pause",
      "type": "event"
    },
    {
      "anonymous": false,
      "inputs": [],
      "name": "Unpause",
      "type": "event"
    },
    {
      "anonymous": false,
      "inputs": [
        {
          "indexed": true,
          "name": "previousOwner",
          "type": "address"
        },
        {
          "indexed": true,
          "name": "newOwner",
          "type": "address"
        }
      ],
      "name": "OwnershipTransferred",
      "type": "event"
    }
  ],
  "bytecode": "0x606060405260008060146101000a81548160ff021916908315150217905550341561002957600080fd5b60405160208061276a83398101604052808051906020019091905050336000806101000a81548173ffffffffffffffffffffffffffffffffffffffff021916908373ffffffffffffffffffffffffffffffffffffffff16021790555080600260006101000a81548173ffffffffffffffffffffffffffffffffffffffff021916908373ffffffffffffffffffffffffffffffffffffffff16021790555050612694806100d66000396000f3006060604052600436106100db576000357c0100000000000000000000000000000000000000000000000000000000900463ffffffff16806320385f2f146100e05780633f4ba83a1461017f5780635428368f146101945780635c975abb146101d35780638456cb59146102005780638591b2ad146102155780638da5cb5b1461025457806390e14899146102a95780639b345d75146102fe578063a8b3bb8714610337578063e283040d146103ec578063e6488fc91461041d578063f06bbf751461057b578063f2fde38b146105ac578063f8d89898146105e5575b600080fd5b34156100eb57600080fd5b61017d6004808060c001906006806020026040519081016040528092919082600660200280828437820191505050505091908061010001906008806020026040519081016040528092919082600860200280828437820191505050505091908060200190600180602002604051908101604052809291908260016020028082843782019150505050509190505061063a565b005b341561018a57600080fd5b610192610739565b005b341561019f57600080fd5b6101b96004808035600019169060200190919050506107f7565b604051808215151515815260200191505060405180910390f35b34156101de57600080fd5b6101e6610817565b604051808215151515815260200191505060405180910390f35b341561020b57600080fd5b61021361082a565b005b341561022057600080fd5b61023a6004808035600019169060200190919050506108ea565b604051808215151515815260200191505060405180910390f35b341561025f57600080fd5b61026761090a565b604051808273ffffffffffffffffffffffffffffffffffffffff1673ffffffffffffffffffffffffffffffffffffffff16815260200191505060405180910390f35b34156102b457600080fd5b6102bc61092f565b604051808273ffffffffffffffffffffffffffffffffffffffff1673ffffffffffffffffffffffffffffffffffffffff16815260200191505060405180910390f35b341561030957600080fd5b610335600480803573ffffffffffffffffffffffffffffffffffffffff16906020019091905050610955565b005b341561034257600080fd5b6103ea600480803573ffffffffffffffffffffffffffffffffffffffff1690602001909190803573ffffffffffffffffffffffffffffffffffffffff1690602001909190803573ffffffffffffffffffffffffffffffffffffffff169060200190919080356000191690602001909190803573ffffffffffffffffffffffffffffffffffffffff169060200190919080359060200190919080359060200190919050506109f4565b005b34156103f757600080fd5b6103ff610b27565b60405180826000191660001916815260200191505060405180910390f35b341561042857600080fd5b61055d600480803573ffffffffffffffffffffffffffffffffffffffff16906020019091908060c0019060068060200260405190810160405280929190826006602002808284378201915050505050919080610100019060088060200260405190810160405280929190826008602002808284378201915050505050919080602001906001806020026040519081016040528092919082600160200280828437820191505050505091908060600190600380602002604051908101604052809291908260036020028082843782019150505050509190806060019060038060200260405190810160405280929190826003602002808284378201915050505050919080606001906003806020026040519081016040528092919082600360200280828437820191505050505091905050610b2f565b60405180826000191660001916815260200191505060405180910390f35b341561058657600080fd5b61058e610e7e565b604051808261ffff1661ffff16815260200191505060405180910390f35b34156105b757600080fd5b6105e3600480803573ffffffffffffffffffffffffffffffffffffffff16906020019091905050610e84565b005b34156105f057600080fd5b6105f8610fd9565b604051808273ffffffffffffffffffffffffffffffffffffffff1673ffffffffffffffffffffffffffffffffffffffff16815260200191505060405180910390f35b610642612497565b600060149054906101000a900460ff1615151561065e57600080fd5b610669848484610fff565b905080600001516020015173ffffffffffffffffffffffffffffffffffffffff163373ffffffffffffffffffffffffffffffffffffffff161415156106ad57600080fd5b6001600460008361012001516000191660001916815260200190815260200160002060006101000a81548160ff0219169083151502179055503373ffffffffffffffffffffffffffffffffffffffff16816101200151600019167f781502ecbc7096cfe7d502e0027f02eedf4ce6d62162cd3bd45d1a3dd98b8c2360405160405180910390a350505050565b6000809054906101000a900473ffffffffffffffffffffffffffffffffffffffff1673ffffffffffffffffffffffffffffffffffffffff163373ffffffffffffffffffffffffffffffffffffffff1614151561079457600080fd5b600060149054906101000a900460ff1615156107af57600080fd5b60008060146101000a81548160ff0219169083151502179055507f7805862f689e2f13df9f062ff482ad3ad112aca9e0847911ed832e158c525b3360405160405180910390a1565b60046020528060005260406000206000915054906101000a900460ff1681565b600060149054906101000a900460ff1681565b6000809054906101000a900473ffffffffffffffffffffffffffffffffffffffff1673ffffffffffffffffffffffffffffffffffffffff163373ffffffffffffffffffffffffffffffffffffffff1614151561088557600080fd5b600060149054906101000a900460ff161515156108a157600080fd5b6001600060146101000a81548160ff0219169083151502179055507f6985a02210a168e66602d3235cb6db0e70f92b3ba4d376a33c0f3d9434bff62560405160405180910390a1565b60036020528060005260406000206000915054906101000a900460ff1681565b6000809054906101000a900473ffffffffffffffffffffffffffffffffffffffff1681565b600260009054906101000a900473ffffffffffffffffffffffffffffffffffffffff1681565b6000809054906101000a900473ffffffffffffffffffffffffffffffffffffffff1673ffffffffffffffffffffffffffffffffffffffff163373ffffffffffffffffffffffffffffffffffffffff161415156109b057600080fd5b80600160006101000a81548173ffffffffffffffffffffffffffffffffffffffff021916908373ffffffffffffffffffffffffffffffffffffffff16021790555050565b6109fc612520565b600060149054906101000a900460ff16151515610a1857600080fd5b8673ffffffffffffffffffffffffffffffffffffffff163373ffffffffffffffffffffffffffffffffffffffff161480610a7d57508373ffffffffffffffffffffffffffffffffffffffff163373ffffffffffffffffffffffffffffffffffffffff16145b1515610a8857600080fd5b610a978888868987878b6111df565b90506001600360008360e001516000191660001916815260200190815260200160002060006101000a81548160ff0219169083151502179055503373ffffffffffffffffffffffffffffffffffffffff168160e00151600019167f77b488cc12f7f1c1527489c59889ce053dfc7115033f9b5d147fd7a8bdbc3a4760405160405180910390a35050505050505050565b600060010281565b6000610b39612497565b600060149054906101000a900460ff16151515610b5557600080fd5b610b60888888610fff565b9050610b6b816112a9565b1580610b815750610b7f818a878787611703565b155b80610b935750610b9189826119f9565b155b15610ba45760006001029150610e72565b610bb2898260000151611a9f565b50600073ffffffffffffffffffffffffffffffffffffffff1681600001516080015173ffffffffffffffffffffffffffffffffffffffff16141515610ce35780600001516080015173ffffffffffffffffffffffffffffffffffffffff1663977a5e64826000015160e001518360000151602001516000604051602001526040518363ffffffff167c01000000000000000000000000000000000000000000000000000000000281526004018083600019166000191681526020018273ffffffffffffffffffffffffffffffffffffffff1673ffffffffffffffffffffffffffffffffffffffff16815260200192505050602060405180830381600087803b1515610cbc57600080fd5b6102c65a03f11515610ccd57600080fd5b505050604051805190501515610ce257600080fd5b5b600081606001511115610d2e57610d2281608001518a836000015160200151610d1d8560c001518660600151611cb190919063ffffffff16565b611cca565b1515610d2d57600080fd5b5b600081602001511115610d6357610d5781608001518a8360000151604001518460200151611cca565b1515610d6257600080fd5b5b600081604001511115610d9457610d8881608001518a8360e001518460400151611cca565b1515610d9357600080fd5b5b8060e0015173ffffffffffffffffffffffffffffffffffffffff1681600001516040015173ffffffffffffffffffffffffffffffffffffffff16826000015160e00151600019167f4d61b488582cd44b5157ec41d5a9cfcc0595cc347661eda1d84cc40d7e943fb38460600151856080015186602001518760400151604051808581526020018473ffffffffffffffffffffffffffffffffffffffff1673ffffffffffffffffffffffffffffffffffffffff16815260200183815260200182815260200194505050505060405180910390a4806000015160e0015191505b50979650505050505050565b611f4081565b6000809054906101000a900473ffffffffffffffffffffffffffffffffffffffff1673ffffffffffffffffffffffffffffffffffffffff163373ffffffffffffffffffffffffffffffffffffffff16141515610edf57600080fd5b600073ffffffffffffffffffffffffffffffffffffffff168173ffffffffffffffffffffffffffffffffffffffff1614151515610f1b57600080fd5b8073ffffffffffffffffffffffffffffffffffffffff166000809054906101000a900473ffffffffffffffffffffffffffffffffffffffff1673ffffffffffffffffffffffffffffffffffffffff167f8be0079c531659141344cd1fd0a4f28419497f9722a3daafe3b4186f6b6457e060405160405180910390a3806000806101000a81548173ffffffffffffffffffffffffffffffffffffffff021916908373ffffffffffffffffffffffffffffffffffffffff16021790555050565b600160009054906101000a900473ffffffffffffffffffffffffffffffffffffffff1681565b611007612497565b61100f612497565b610140604051908101604052806110b087600060068110151561102e57fe5b602002015188600160068110151561104257fe5b602002015189600260068110151561105657fe5b60200201518a600360068110151561106a57fe5b60200201518a600060088110151561107e57fe5b60200201518b600160088110151561109257fe5b60200201518b60006001811015156110a657fe5b60200201516111df565b81526020018560036008811015156110c457fe5b602002015181526020018560046008811015156110dd57fe5b602002015181526020018560026008811015156110f657fe5b6020020151815260200186600460068110151561110f57fe5b602002015173ffffffffffffffffffffffffffffffffffffffff16815260200185600560088110151561113e57fe5b6020020151815260200185600660088110151561115757fe5b6020020151815260200186600560068110151561117057fe5b602002015173ffffffffffffffffffffffffffffffffffffffff16815260200185600760088110151561119f57fe5b6020020151815260200160006001026000191681525090506111c081611e26565b8161012001906000191690816000191681525050809150509392505050565b6111e7612520565b6111ef612520565b610100604051908101604052808a73ffffffffffffffffffffffffffffffffffffffff1681526020018973ffffffffffffffffffffffffffffffffffffffff1681526020018873ffffffffffffffffffffffffffffffffffffffff1681526020018681526020018773ffffffffffffffffffffffffffffffffffffffff168152602001846000191681526020018581526020016112918b8b8b8b8b8b8b611f6f565b60001916815250905080915050979650505050505050565b6000806112c78360c001518460a001516120b890919063ffffffff16565b90506112e4836020015184604001516120b890919063ffffffff16565b8114151561133b57826101200151600019166004600881111561130357fe5b60ff167f36d86c59e00bd73dc19ba3adfe068e4b64ac7e92be35546adeddf1b956a87e9060405160405180910390a3600091506116fd565b8260c001518360600151101561139a57826101200151600019166005600881111561136257fe5b60ff167f36d86c59e00bd73dc19ba3adfe068e4b64ac7e92be35546adeddf1b956a87e9060405160405180910390a3600091506116fd565b600073ffffffffffffffffffffffffffffffffffffffff1683600001516040015173ffffffffffffffffffffffffffffffffffffffff161480156113e2575060008360200151115b8061142d5750600073ffffffffffffffffffffffffffffffffffffffff168360e0015173ffffffffffffffffffffffffffffffffffffffff1614801561142c575082602001518114155b5b1561148157826101200151600019166006600881111561144957fe5b60ff167f36d86c59e00bd73dc19ba3adfe068e4b64ac7e92be35546adeddf1b956a87e9060405160405180910390a3600091506116fd565b4283610100015110156114dd5782610120015160001916600160088111156114a557fe5b60ff167f36d86c59e00bd73dc19ba3adfe068e4b64ac7e92be35546adeddf1b956a87e9060405160405180910390a3600091506116fd565b600160009054906101000a900473ffffffffffffffffffffffffffffffffffffffff1673ffffffffffffffffffffffffffffffffffffffff16634f558e79846000015160e00151600190046000604051602001526040518263ffffffff167c010000000000000000000000000000000000000000000000000000000002815260040180828152602001915050602060405180830381600087803b151561158257600080fd5b6102c65a03f1151561159357600080fd5b50505060405180519050156115f15782610120015160001916600060088111156115b957fe5b60ff167f36d86c59e00bd73dc19ba3adfe068e4b64ac7e92be35546adeddf1b956a87e9060405160405180910390a3600091506116fd565b60036000846000015160e001516000191660001916815260200190815260200160002060009054906101000a900460ff161561167657826101200151600019166002600881111561163e57fe5b60ff167f36d86c59e00bd73dc19ba3adfe068e4b64ac7e92be35546adeddf1b956a87e9060405160405180910390a3600091506116fd565b600460008461012001516000191660001916815260200190815260200160002060009054906101000a900460ff16156116f85782610120015160001916600360088111156116c057fe5b60ff167f36d86c59e00bd73dc19ba3adfe068e4b64ac7e92be35546adeddf1b956a87e9060405160405180910390a3600091506116fd565b600191505b50919050565b600085600001516020015173ffffffffffffffffffffffffffffffffffffffff163373ffffffffffffffffffffffffffffffffffffffff161415156117eb5761179586600001516020015187610120015186600060038110151561176357fe5b602002015186600060038110151561177757fe5b602002015186600060038110151561178b57fe5b60200201516120d6565b15156117ea5785610120015160001916600760088111156117b257fe5b60ff167f36d86c59e00bd73dc19ba3adfe068e4b64ac7e92be35546adeddf1b956a87e9060405160405180910390a3600090506119f0565b5b8473ffffffffffffffffffffffffffffffffffffffff163373ffffffffffffffffffffffffffffffffffffffff161415156118c15761186b8587610120015186600160038110151561183957fe5b602002015186600160038110151561184d57fe5b602002015186600160038110151561186157fe5b60200201516120d6565b15156118c057856101200151600019166007600881111561188857fe5b60ff167f36d86c59e00bd73dc19ba3adfe068e4b64ac7e92be35546adeddf1b956a87e9060405160405180910390a3600090506119f0565b5b600073ffffffffffffffffffffffffffffffffffffffff1686600001516040015173ffffffffffffffffffffffffffffffffffffffff161415801561193a575085600001516040015173ffffffffffffffffffffffffffffffffffffffff163373ffffffffffffffffffffffffffffffffffffffff1614155b156119eb57611995866000015160400151611954886121dd565b86600260038110151561196357fe5b602002015186600260038110151561197757fe5b602002015186600260038110151561198b57fe5b60200201516120d6565b15156119ea5785610120015160001916600760088111156119b257fe5b60ff167f36d86c59e00bd73dc19ba3adfe068e4b64ac7e92be35546adeddf1b956a87e9060405160405180910390a3600090506119f0565b5b600190505b95945050505050565b600080611a178360a0015184606001516120b890919063ffffffff16565b905080611a288460800151866122bb565b1080611a40575080611a3e84608001518661237e565b105b15611a935782610120015160001916600880811115611a5b57fe5b60ff167f36d86c59e00bd73dc19ba3adfe068e4b64ac7e92be35546adeddf1b956a87e9060405160405180910390a360009150611a98565b600191505b5092915050565b600080600160009054906101000a900473ffffffffffffffffffffffffffffffffffffffff1673ffffffffffffffffffffffffffffffffffffffff166399f1050184600001518686602001518760400151886060015189608001518a60a001518b60c001516000604051602001526040518963ffffffff167c0100000000000000000000000000000000000000000000000000000000028152600401808973ffffffffffffffffffffffffffffffffffffffff1673ffffffffffffffffffffffffffffffffffffffff1681526020018873ffffffffffffffffffffffffffffffffffffffff1673ffffffffffffffffffffffffffffffffffffffff1681526020018773ffffffffffffffffffffffffffffffffffffffff1673ffffffffffffffffffffffffffffffffffffffff1681526020018673ffffffffffffffffffffffffffffffffffffffff1673ffffffffffffffffffffffffffffffffffffffff1681526020018581526020018473ffffffffffffffffffffffffffffffffffffffff1673ffffffffffffffffffffffffffffffffffffffff168152602001836000191660001916815260200182815260200198505050505050505050602060405180830381600087803b1515611c7357600080fd5b6102c65a03f11515611c8457600080fd5b5050506040518051905090508260e001516001900481141515611ca357fe5b8260e0015191505092915050565b6000828211151515611cbf57fe5b818303905092915050565b6000600260009054906101000a900473ffffffffffffffffffffffffffffffffffffffff1673ffffffffffffffffffffffffffffffffffffffff166315dacbea868686866000604051602001526040518563ffffffff167c0100000000000000000000000000000000000000000000000000000000028152600401808573ffffffffffffffffffffffffffffffffffffffff1673ffffffffffffffffffffffffffffffffffffffff1681526020018473ffffffffffffffffffffffffffffffffffffffff1673ffffffffffffffffffffffffffffffffffffffff1681526020018373ffffffffffffffffffffffffffffffffffffffff1673ffffffffffffffffffffffffffffffffffffffff168152602001828152602001945050505050602060405180830381600087803b1515611e0157600080fd5b6102c65a03f11515611e1257600080fd5b505050604051805190509050949350505050565b600030826000015160e001518360200151846060015185608001518660c001518760a001518860e0015189604001518a6101000151604051808b73ffffffffffffffffffffffffffffffffffffffff1673ffffffffffffffffffffffffffffffffffffffff166c010000000000000000000000000281526014018a600019166000191681526020018981526020018881526020018773ffffffffffffffffffffffffffffffffffffffff1673ffffffffffffffffffffffffffffffffffffffff166c010000000000000000000000000281526014018681526020018581526020018473ffffffffffffffffffffffffffffffffffffffff1673ffffffffffffffffffffffffffffffffffffffff166c010000000000000000000000000281526014018381526020018281526020019a505050505050505050505060405180910390209050919050565b600087878786888688604051808873ffffffffffffffffffffffffffffffffffffffff1673ffffffffffffffffffffffffffffffffffffffff166c010000000000000000000000000281526014018773ffffffffffffffffffffffffffffffffffffffff1673ffffffffffffffffffffffffffffffffffffffff166c010000000000000000000000000281526014018673ffffffffffffffffffffffffffffffffffffffff1673ffffffffffffffffffffffffffffffffffffffff166c010000000000000000000000000281526014018581526020018473ffffffffffffffffffffffffffffffffffffffff1673ffffffffffffffffffffffffffffffffffffffff166c01000000000000000000000000028152601401836000191660001916815260200182815260200197505050505050505060405180910390209050979650505050505050565b60008082840190508381101515156120cc57fe5b8091505092915050565b600060018560405180807f19457468657265756d205369676e6564204d6573736167653a0a333200000000815250601c0182600019166000191681526020019150506040518091039020858585604051600081526020016040526000604051602001526040518085600019166000191681526020018460ff1660ff16815260200183600019166000191681526020018260001916600019168152602001945050505050602060405160208103908084039060008661646e5a03f1151561219b57600080fd5b50506020604051035173ffffffffffffffffffffffffffffffffffffffff168673ffffffffffffffffffffffffffffffffffffffff1614905095945050505050565b600030826000015160e00151836020015184606001518560800151866101000151604051808773ffffffffffffffffffffffffffffffffffffffff1673ffffffffffffffffffffffffffffffffffffffff166c0100000000000000000000000002815260140186600019166000191681526020018581526020018481526020018373ffffffffffffffffffffffffffffffffffffffff1673ffffffffffffffffffffffffffffffffffffffff166c01000000000000000000000000028152601401828152602001965050505050505060405180910390209050919050565b60008273ffffffffffffffffffffffffffffffffffffffff166370a08231611f4061ffff16846040518363ffffffff167c0100000000000000000000000000000000000000000000000000000000028152600401808273ffffffffffffffffffffffffffffffffffffffff1673ffffffffffffffffffffffffffffffffffffffff168152602001915050602060405180830381600088803b151561235e57600080fd5b87f1151561236b57600080fd5b5050505060405180519050905092915050565b60008273ffffffffffffffffffffffffffffffffffffffff1663dd62ed3e611f4061ffff1684600260009054906101000a900473ffffffffffffffffffffffffffffffffffffffff166040518463ffffffff167c0100000000000000000000000000000000000000000000000000000000028152600401808373ffffffffffffffffffffffffffffffffffffffff1673ffffffffffffffffffffffffffffffffffffffff1681526020018273ffffffffffffffffffffffffffffffffffffffff1673ffffffffffffffffffffffffffffffffffffffff16815260200192505050602060405180830381600088803b151561247757600080fd5b87f1151561248457600080fd5b5050505060405180519050905092915050565b610220604051908101604052806124ac6125c4565b8152602001600081526020016000815260200160008152602001600073ffffffffffffffffffffffffffffffffffffffff1681526020016000815260200160008152602001600073ffffffffffffffffffffffffffffffffffffffff16815260200160008152602001600080191681525090565b61010060405190810160405280600073ffffffffffffffffffffffffffffffffffffffff168152602001600073ffffffffffffffffffffffffffffffffffffffff168152602001600073ffffffffffffffffffffffffffffffffffffffff16815260200160008152602001600073ffffffffffffffffffffffffffffffffffffffff1681526020016000801916815260200160008152602001600080191681525090565b61010060405190810160405280600073ffffffffffffffffffffffffffffffffffffffff168152602001600073ffffffffffffffffffffffffffffffffffffffff168152602001600073ffffffffffffffffffffffffffffffffffffffff16815260200160008152602001600073ffffffffffffffffffffffffffffffffffffffff16815260200160008019168152602001600081526020016000801916815250905600a165627a7a72305820213b49129b36be317a48913308365a6ff1ca35f69e3ff6eeaf0e2dec470fde380029",
  "source": "/*\r\n\r\n  Copyright 2017 Dharma Labs Inc.\r\n\r\n  Licensed under the Apache License, Version 2.0 (the \"License\");\r\n  you may not use this file except in compliance with the License.\r\n  You may obtain a copy of the License at\r\n\r\n    http://www.apache.org/licenses/LICENSE-2.0\r\n\r\n  Unless required by applicable law or agreed to in writing, software\r\n  distributed under the License is distributed on an \"AS IS\" BASIS,\r\n  WITHOUT WARRANTIES OR CONDITIONS OF ANY KIND, either express or implied.\r\n  See the License for the specific language governing permissions and\r\n  limitations under the License.\r\n\r\n*/\r\n\r\npragma solidity 0.4.18;\r\n\r\nimport \"./DebtToken.sol\";\r\nimport \"./TermsContract.sol\";\r\nimport \"./TokenTransferProxy.sol\";\r\nimport \"zeppelin-solidity/contracts/lifecycle/Pausable.sol\";\r\nimport \"zeppelin-solidity/contracts/math/SafeMath.sol\";\r\nimport \"zeppelin-solidity/contracts/token/ERC20/ERC20.sol\";\r\n\r\n\r\n/**\r\n * The DebtKernel is the hub of all business logic governing how and when\r\n * debt orders can be filled and cancelled.  All logic that determines\r\n * whether a debt order is valid & consensual is contained herein,\r\n * as well as the mechanisms that transfer fees to keepers and\r\n * principal payments to debtors.\r\n *\r\n * Author: Nadav Hollander -- Github: nadavhollander\r\n */\r\ncontract DebtKernel is Pausable {\r\n    using SafeMath for uint;\r\n\r\n    enum Errors {\r\n        // Debt has been already been issued\r\n        DEBT_ISSUED,\r\n        // Order has already expired\r\n        ORDER_EXPIRED,\r\n        // Debt issuance associated with order has been cancelled\r\n        ISSUANCE_CANCELLED,\r\n        // Order has been cancelled\r\n        ORDER_CANCELLED,\r\n        // Order parameters specify amount of creditor / debtor fees\r\n        // that is not equivalent to the amount of underwriter / relayer fees\r\n        ORDER_INVALID_INSUFFICIENT_OR_EXCESSIVE_FEES,\r\n        // Order parameters specify insufficient principal amount for\r\n        // debtor to at least be able to meet his fees\r\n        ORDER_INVALID_INSUFFICIENT_PRINCIPAL,\r\n        // Order parameters specify non zero fee for an unspecified recipient\r\n        ORDER_INVALID_UNSPECIFIED_FEE_RECIPIENT,\r\n        // Order signatures are mismatched / malformed\r\n        ORDER_INVALID_NON_CONSENSUAL,\r\n        // Insufficient balance or allowance for principal token transfer\r\n        CREDITOR_BALANCE_OR_ALLOWANCE_INSUFFICIENT\r\n    }\r\n\r\n    DebtToken public debtToken;\r\n\r\n    // solhint-disable-next-line var-name-mixedcase\r\n    address public TOKEN_TRANSFER_PROXY;\r\n    bytes32 constant public NULL_ISSUANCE_HASH = bytes32(0);\r\n\r\n    /* NOTE(kayvon): Currently, the `view` keyword does not actually enforce the\r\n    static nature of the method; this will change in the future, but for now, in\r\n    order to prevent reentrancy we'll need to arbitrarily set an upper bound on\r\n    the gas limit allotted for certain method calls. */\r\n    uint16 constant public EXTERNAL_QUERY_GAS_LIMIT = 8000;\r\n\r\n    mapping (bytes32 => bool) public issuanceCancelled;\r\n    mapping (bytes32 => bool) public debtOrderCancelled;\r\n\r\n    event LogDebtOrderFilled(\r\n        bytes32 indexed _agreementId,\r\n        uint _principal,\r\n        address _principalToken,\r\n        address indexed _underwriter,\r\n        uint _underwriterFee,\r\n        address indexed _relayer,\r\n        uint _relayerFee\r\n    );\r\n\r\n    event LogIssuanceCancelled(\r\n        bytes32 indexed _agreementId,\r\n        address indexed _cancelledBy\r\n    );\r\n\r\n    event LogDebtOrderCancelled(\r\n        bytes32 indexed _debtOrderHash,\r\n        address indexed _cancelledBy\r\n    );\r\n\r\n    event LogError(\r\n        uint8 indexed _errorId,\r\n        bytes32 indexed _orderHash\r\n    );\r\n\r\n    struct Issuance {\r\n        address version;\r\n        address debtor;\r\n        address underwriter;\r\n        uint underwriterRiskRating;\r\n        address termsContract;\r\n        bytes32 termsContractParameters;\r\n        uint salt;\r\n        bytes32 agreementId;\r\n    }\r\n\r\n    struct DebtOrder {\r\n        Issuance issuance;\r\n        uint underwriterFee;\r\n        uint relayerFee;\r\n        uint principalAmount;\r\n        address principalToken;\r\n        uint creditorFee;\r\n        uint debtorFee;\r\n        address relayer;\r\n        uint expirationTimestampInSec;\r\n        bytes32 debtOrderHash;\r\n    }\r\n\r\n    function DebtKernel(address tokenTransferProxyAddress)\r\n        public\r\n    {\r\n        TOKEN_TRANSFER_PROXY = tokenTransferProxyAddress;\r\n    }\r\n\r\n    ////////////////////////\r\n    // EXTERNAL FUNCTIONS //\r\n    ////////////////////////\r\n\r\n    /**\r\n     * Allows contract owner to set the currently used debt token contract.\r\n     * Function exists to maximize upgradeability of individual modules\r\n     * in the entire system.\r\n     */\r\n    function setDebtToken(address debtTokenAddress)\r\n        public\r\n        onlyOwner\r\n    {\r\n        debtToken = DebtToken(debtTokenAddress);\r\n    }\r\n\r\n    /**\r\n     * Fills a given debt order if it is valid and consensual.\r\n     */\r\n    function fillDebtOrder(\r\n        address creditor,\r\n        address[6] orderAddresses,\r\n        uint[8] orderValues,\r\n        bytes32[1] orderBytes32,\r\n        uint8[3] signaturesV,\r\n        bytes32[3] signaturesR,\r\n        bytes32[3] signaturesS\r\n    )\r\n        public\r\n        whenNotPaused\r\n        returns (bytes32 _agreementId)\r\n    {\r\n        DebtOrder memory debtOrder = getDebtOrder(orderAddresses, orderValues, orderBytes32);\r\n\r\n        // Assert order's validity & consensuality\r\n        if (!assertDebtOrderValidityInvariants(debtOrder) ||\r\n            !assertDebtOrderConsensualityInvariants(\r\n                debtOrder,\r\n                creditor,\r\n                signaturesV,\r\n                signaturesR,\r\n                signaturesS) ||\r\n            !assertExternalBalanceAndAllowanceInvariants(creditor, debtOrder)) {\r\n            return NULL_ISSUANCE_HASH;\r\n        }\r\n\r\n        // Mint debt token and finalize debt agreement\r\n        issueDebtAgreement(creditor, debtOrder.issuance);\r\n\r\n        // Register debt agreement's start with terms contract\r\n        // We permit terms contracts to be undefined (for debt agreements which\r\n        // may not have terms contracts associated with them), and only\r\n        // register a term's start if the terms contract address is defined.\r\n        if (debtOrder.issuance.termsContract != address(0)) {\r\n            require(\r\n                TermsContract(debtOrder.issuance.termsContract)\r\n                    .registerTermStart(\r\n                        debtOrder.issuance.agreementId,\r\n                        debtOrder.issuance.debtor\r\n                    )\r\n            );\r\n        }\r\n\r\n        // Transfer principal to debtor\r\n        if (debtOrder.principalAmount > 0) {\r\n            require(transferTokensFrom(\r\n                debtOrder.principalToken,\r\n                creditor,\r\n                debtOrder.issuance.debtor,\r\n                debtOrder.principalAmount.sub(debtOrder.debtorFee)\r\n            ));\r\n        }\r\n\r\n        // Transfer underwriter fee to underwriter\r\n        if (debtOrder.underwriterFee > 0) {\r\n            require(transferTokensFrom(\r\n                debtOrder.principalToken,\r\n                creditor,\r\n                debtOrder.issuance.underwriter,\r\n                debtOrder.underwriterFee\r\n            ));\r\n        }\r\n\r\n        // Transfer relayer fee to relayer\r\n        if (debtOrder.relayerFee > 0) {\r\n            require(transferTokensFrom(\r\n                debtOrder.principalToken,\r\n                creditor,\r\n                debtOrder.relayer,\r\n                debtOrder.relayerFee\r\n            ));\r\n        }\r\n\r\n        LogDebtOrderFilled(\r\n            debtOrder.issuance.agreementId,\r\n            debtOrder.principalAmount,\r\n            debtOrder.principalToken,\r\n            debtOrder.issuance.underwriter,\r\n            debtOrder.underwriterFee,\r\n            debtOrder.relayer,\r\n            debtOrder.relayerFee\r\n        );\r\n\r\n        return debtOrder.issuance.agreementId;\r\n    }\r\n\r\n    /**\r\n     * Allows both underwriters and debtors to prevent a debt\r\n     * issuance in which they're involved from being used in\r\n     * a future debt order.\r\n     */\r\n    function cancelIssuance(\r\n        address version,\r\n        address debtor,\r\n        address termsContract,\r\n        bytes32 termsContractParameters,\r\n        address underwriter,\r\n        uint underwriterRiskRating,\r\n        uint salt\r\n    )\r\n        public\r\n        whenNotPaused\r\n    {\r\n        require(msg.sender == debtor || msg.sender == underwriter);\r\n\r\n        Issuance memory issuance = getIssuance(\r\n            version,\r\n            debtor,\r\n            underwriter,\r\n            termsContract,\r\n            underwriterRiskRating,\r\n            salt,\r\n            termsContractParameters\r\n        );\r\n\r\n        issuanceCancelled[issuance.agreementId] = true;\r\n\r\n        LogIssuanceCancelled(issuance.agreementId, msg.sender);\r\n    }\r\n\r\n    /**\r\n     * Allows a debtor to cancel a debt order before it's been filled\r\n     * -- preventing any counterparty from filling it in the future.\r\n     */\r\n    function cancelDebtOrder(\r\n        address[6] orderAddresses,\r\n        uint[8] orderValues,\r\n        bytes32[1] orderBytes32\r\n    )\r\n        public\r\n        whenNotPaused\r\n    {\r\n        DebtOrder memory debtOrder = getDebtOrder(orderAddresses, orderValues, orderBytes32);\r\n\r\n        require(msg.sender == debtOrder.issuance.debtor);\r\n\r\n        debtOrderCancelled[debtOrder.debtOrderHash] = true;\r\n\r\n        LogDebtOrderCancelled(debtOrder.debtOrderHash, msg.sender);\r\n    }\r\n\r\n    ////////////////////////\r\n    // INTERNAL FUNCTIONS //\r\n    ////////////////////////\r\n\r\n    /**\r\n     * Helper function that mints debt token associated with the\r\n     * given issuance and grants it to the beneficiary.\r\n     */\r\n    function issueDebtAgreement(address beneficiary, Issuance issuance)\r\n        internal\r\n        returns (bytes32 _agreementId)\r\n    {\r\n        // Mint debt token and finalize debt agreement\r\n        uint tokenId = debtToken.create(\r\n            issuance.version,\r\n            beneficiary,\r\n            issuance.debtor,\r\n            issuance.underwriter,\r\n            issuance.underwriterRiskRating,\r\n            issuance.termsContract,\r\n            issuance.termsContractParameters,\r\n            issuance.salt\r\n        );\r\n\r\n        assert(tokenId == uint(issuance.agreementId));\r\n\r\n        return issuance.agreementId;\r\n    }\r\n\r\n    /**\r\n     * Asserts that a debt order meets all consensuality requirements\r\n     * described in the DebtKernel specification document.\r\n     */\r\n    function assertDebtOrderConsensualityInvariants(\r\n        DebtOrder debtOrder,\r\n        address creditor,\r\n        uint8[3] signaturesV,\r\n        bytes32[3] signaturesR,\r\n        bytes32[3] signaturesS\r\n    )\r\n        internal\r\n        returns (bool _orderIsConsensual)\r\n    {\r\n        // Invariant: debtor's signature must be valid, unless debtor is submitting order\r\n        if (msg.sender != debtOrder.issuance.debtor) {\r\n            if (!isValidSignature(\r\n                debtOrder.issuance.debtor,\r\n                debtOrder.debtOrderHash,\r\n                signaturesV[0],\r\n                signaturesR[0],\r\n                signaturesS[0]\r\n            )) {\r\n                LogError(uint8(Errors.ORDER_INVALID_NON_CONSENSUAL), debtOrder.debtOrderHash);\r\n                return false;\r\n            }\r\n        }\r\n\r\n        // Invariant: creditor's signature must be valid, unless creditor is submitting order\r\n        if (msg.sender != creditor) {\r\n            if (!isValidSignature(\r\n                creditor,\r\n                debtOrder.debtOrderHash,\r\n                signaturesV[1],\r\n                signaturesR[1],\r\n                signaturesS[1]\r\n            )) {\r\n                LogError(uint8(Errors.ORDER_INVALID_NON_CONSENSUAL), debtOrder.debtOrderHash);\r\n                return false;\r\n            }\r\n        }\r\n\r\n\r\n        // Invariant: underwriter's signature must be valid (if present)\r\n        if (debtOrder.issuance.underwriter != address(0) &&\r\n            msg.sender != debtOrder.issuance.underwriter) {\r\n            if (!isValidSignature(\r\n                debtOrder.issuance.underwriter,\r\n                getUnderwriterMessageHash(debtOrder),\r\n                signaturesV[2],\r\n                signaturesR[2],\r\n                signaturesS[2]\r\n            )) {\r\n                LogError(uint8(Errors.ORDER_INVALID_NON_CONSENSUAL), debtOrder.debtOrderHash);\r\n                return false;\r\n            }\r\n        }\r\n\r\n        return true;\r\n    }\r\n\r\n    /**\r\n     * Asserts that debt order meets all validity requirements described in\r\n     * the DebtKernel specification document.\r\n     */\r\n    function assertDebtOrderValidityInvariants(DebtOrder debtOrder)\r\n        internal\r\n        returns (bool _orderIsValid)\r\n    {\r\n        uint totalFees = debtOrder.creditorFee.add(debtOrder.debtorFee);\r\n\r\n        // Invariant: the total value of fees contributed by debtors and creditors\r\n        //  must be equivalent to that paid out to underwriters and relayers.\r\n        if (totalFees != debtOrder.relayerFee.add(debtOrder.underwriterFee)) {\r\n            LogError(uint8(Errors.ORDER_INVALID_INSUFFICIENT_OR_EXCESSIVE_FEES), debtOrder.debtOrderHash);\r\n            return false;\r\n        }\r\n\r\n        // Invariant: debtor is given enough principal to cover at least debtorFees\r\n        if (debtOrder.principalAmount < debtOrder.debtorFee) {\r\n            LogError(uint8(Errors.ORDER_INVALID_INSUFFICIENT_PRINCIPAL), debtOrder.debtOrderHash);\r\n            return false;\r\n        }\r\n\r\n        // Invariant: if no underwriter is specified, underwriter fees must be 0\r\n        // Invariant: if no relayer is specified, relayer fees must be 0.\r\n        //      Given that relayer fees = total fees - underwriter fees,\r\n        //      we assert that total fees = underwriter fees.\r\n        if ((debtOrder.issuance.underwriter == address(0) && debtOrder.underwriterFee > 0) ||\r\n            (debtOrder.relayer == address(0) && totalFees != debtOrder.underwriterFee)) {\r\n            LogError(uint8(Errors.ORDER_INVALID_UNSPECIFIED_FEE_RECIPIENT), debtOrder.debtOrderHash);\r\n            return false;\r\n        }\r\n\r\n        // Invariant: debt order must not be expired\r\n        // solhint-disable-next-line not-rely-on-time\r\n        if (debtOrder.expirationTimestampInSec < block.timestamp) {\r\n            LogError(uint8(Errors.ORDER_EXPIRED), debtOrder.debtOrderHash);\r\n            return false;\r\n        }\r\n\r\n        // Invariant: debt order's issuance must not already be minted as debt token\r\n        if (debtToken.exists(uint(debtOrder.issuance.agreementId))) {\r\n            LogError(uint8(Errors.DEBT_ISSUED), debtOrder.debtOrderHash);\r\n            return false;\r\n        }\r\n\r\n        // Invariant: debt order's issuance must not have been cancelled\r\n        if (issuanceCancelled[debtOrder.issuance.agreementId]) {\r\n            LogError(uint8(Errors.ISSUANCE_CANCELLED), debtOrder.debtOrderHash);\r\n            return false;\r\n        }\r\n\r\n        // Invariant: debt order itself must not have been cancelled\r\n        if (debtOrderCancelled[debtOrder.debtOrderHash]) {\r\n            LogError(uint8(Errors.ORDER_CANCELLED), debtOrder.debtOrderHash);\r\n            return false;\r\n        }\r\n\r\n        return true;\r\n    }\r\n\r\n    /**\r\n     * Assert that the creditor has a sufficient token balance and has\r\n     * granted the token transfer proxy contract sufficient allowance to suffice for the principal\r\n     * and creditor fee.\r\n     */\r\n    function assertExternalBalanceAndAllowanceInvariants(\r\n        address creditor,\r\n        DebtOrder debtOrder\r\n    )\r\n        internal\r\n        returns (bool _isBalanceAndAllowanceSufficient)\r\n    {\r\n        uint totalCreditorPayment = debtOrder.principalAmount.add(debtOrder.creditorFee);\r\n\r\n        if (getBalance(debtOrder.principalToken, creditor) < totalCreditorPayment ||\r\n            getAllowance(debtOrder.principalToken, creditor) < totalCreditorPayment) {\r\n            LogError(uint8(Errors.CREDITOR_BALANCE_OR_ALLOWANCE_INSUFFICIENT), debtOrder.debtOrderHash);\r\n            return false;\r\n        }\r\n\r\n        return true;\r\n    }\r\n\r\n    /**\r\n     * Helper function transfers a specified amount of tokens between two parties\r\n     * using the token transfer proxy contract.\r\n     */\r\n    function transferTokensFrom(\r\n        address token,\r\n        address from,\r\n        address to,\r\n        uint amount\r\n    )\r\n        internal\r\n        returns (bool success)\r\n    {\r\n        return TokenTransferProxy(TOKEN_TRANSFER_PROXY).transferFrom(\r\n            token,\r\n            from,\r\n            to,\r\n            amount\r\n        );\r\n    }\r\n\r\n    /**\r\n     * Helper function that constructs a hashed issuance structs from the given\r\n     * parameters.\r\n     */\r\n    function getIssuance(\r\n        address version,\r\n        address debtor,\r\n        address underwriter,\r\n        address termsContract,\r\n        uint underwriterRiskRating,\r\n        uint salt,\r\n        bytes32 termsContractParameters\r\n    )\r\n        internal\r\n        pure\r\n        returns (Issuance _issuance)\r\n    {\r\n        Issuance memory issuance = Issuance({\r\n            version: version,\r\n            debtor: debtor,\r\n            underwriter: underwriter,\r\n            termsContract: termsContract,\r\n            underwriterRiskRating: underwriterRiskRating,\r\n            salt: salt,\r\n            termsContractParameters: termsContractParameters,\r\n            agreementId: getAgreementId(\r\n                version,\r\n                debtor,\r\n                underwriter,\r\n                termsContract,\r\n                underwriterRiskRating,\r\n                salt,\r\n                termsContractParameters\r\n            )\r\n        });\r\n\r\n        return issuance;\r\n    }\r\n\r\n    /**\r\n     * Helper function that constructs a hashed debt order struct given the raw parameters\r\n     * of a debt order.\r\n     */\r\n    function getDebtOrder(address[6] orderAddresses, uint[8] orderValues, bytes32[1] orderBytes32)\r\n        internal\r\n        view\r\n        returns (DebtOrder _debtOrder)\r\n    {\r\n        DebtOrder memory debtOrder = DebtOrder({\r\n            issuance: getIssuance(\r\n                orderAddresses[0],\r\n                orderAddresses[1],\r\n                orderAddresses[2],\r\n                orderAddresses[3],\r\n                orderValues[0],\r\n                orderValues[1],\r\n                orderBytes32[0]\r\n            ),\r\n            principalToken: orderAddresses[4],\r\n            relayer: orderAddresses[5],\r\n            principalAmount: orderValues[2],\r\n            underwriterFee: orderValues[3],\r\n            relayerFee: orderValues[4],\r\n            creditorFee: orderValues[5],\r\n            debtorFee: orderValues[6],\r\n            expirationTimestampInSec: orderValues[7],\r\n            debtOrderHash: bytes32(0)\r\n        });\r\n\r\n        debtOrder.debtOrderHash = getDebtOrderHash(debtOrder);\r\n\r\n        return debtOrder;\r\n    }\r\n\r\n    /**\r\n     * Helper function that returns an issuance's hash\r\n     */\r\n    function getAgreementId(\r\n        address version,\r\n        address debtor,\r\n        address underwriter,\r\n        address termsContract,\r\n        uint underwriterRiskRating,\r\n        uint salt,\r\n        bytes32 termsContractParameters\r\n    )\r\n        internal\r\n        pure\r\n        returns (bytes32 _agreementId)\r\n    {\r\n        return keccak256(\r\n            version,\r\n            debtor,\r\n            underwriter,\r\n            underwriterRiskRating,\r\n            termsContract,\r\n            termsContractParameters,\r\n            salt\r\n        );\r\n    }\r\n\r\n    /**\r\n     * Returns the hash of the parameters which an underwriter is supposed to sign\r\n     */\r\n    function getUnderwriterMessageHash(DebtOrder debtOrder)\r\n        internal\r\n        view\r\n        returns (bytes32 _underwriterMessageHash)\r\n    {\r\n        return keccak256(\r\n            address(this),\r\n            debtOrder.issuance.agreementId,\r\n            debtOrder.underwriterFee,\r\n            debtOrder.principalAmount,\r\n            debtOrder.principalToken,\r\n            debtOrder.expirationTimestampInSec\r\n        );\r\n    }\r\n\r\n    /**\r\n     * Returns the hash of the debt order.\r\n     */\r\n    function getDebtOrderHash(DebtOrder debtOrder)\r\n        internal\r\n        view\r\n        returns (bytes32 _debtorMessageHash)\r\n    {\r\n        return keccak256(\r\n            address(this),\r\n            debtOrder.issuance.agreementId,\r\n            debtOrder.underwriterFee,\r\n            debtOrder.principalAmount,\r\n            debtOrder.principalToken,\r\n            debtOrder.debtorFee,\r\n            debtOrder.creditorFee,\r\n            debtOrder.relayer,\r\n            debtOrder.relayerFee,\r\n            debtOrder.expirationTimestampInSec\r\n        );\r\n    }\r\n\r\n    /**\r\n     * Given a hashed message, a signer's address, and a signature, returns\r\n     * whether the signature is valid.\r\n     */\r\n    function isValidSignature(\r\n        address signer,\r\n        bytes32 hash,\r\n        uint8 v,\r\n        bytes32 r,\r\n        bytes32 s\r\n    )\r\n        internal\r\n        pure\r\n        returns (bool _valid)\r\n    {\r\n        return signer == ecrecover(\r\n            keccak256(\"\\x19Ethereum Signed Message:\\n32\", hash),\r\n            v,\r\n            r,\r\n            s\r\n        );\r\n    }\r\n\r\n    /**\r\n     * Helper function for querying an address' balance on a given token.\r\n     */\r\n    function getBalance(\r\n        address token,\r\n        address owner\r\n    )\r\n        internal\r\n        view\r\n        returns (uint _balance)\r\n    {\r\n        // Limit gas to prevent reentrancy.\r\n        return ERC20(token).balanceOf.gas(EXTERNAL_QUERY_GAS_LIMIT)(owner);\r\n    }\r\n\r\n    /**\r\n     * Helper function for querying an address' allowance to the 0x transfer proxy.\r\n     */\r\n    function getAllowance(\r\n        address token,\r\n        address owner\r\n    )\r\n        internal\r\n        view\r\n        returns (uint _allowance)\r\n    {\r\n        // Limit gas to prevent reentrancy.\r\n        return ERC20(token).allowance.gas(EXTERNAL_QUERY_GAS_LIMIT)(owner, TOKEN_TRANSFER_PROXY);\r\n    }\r\n}\r\n",
  "sourcePath": "/mnt/c/Users/devan/fixer/check-dharma/contracts/DebtKernel.sol",
  "compiler": {
    "name": "solc",
    "version": "0.4.18+commit.9cf6e910.Emscripten.clang"
  },
  "schemaVersion": "1.0.1",
  "updatedAt": "2018-11-27T07:48:42.751Z"
}