{
  "contractName": "ERC721TokenRegistry",
  "abi": [
    {
      "constant": true,
      "inputs": [
        {
          "name": "_index",
          "type": "uint256"
        }
      ],
      "name": "getTokenAttributesByIndex",
      "outputs": [
        {
          "name": "",
          "type": "address"
        },
        {
          "name": "",
          "type": "string"
        },
        {
          "name": "",
          "type": "string"
        }
      ],
      "payable": false,
      "stateMutability": "view",
      "type": "function"
    },
    {
      "constant": true,
      "inputs": [
        {
          "name": "_symbol",
          "type": "string"
        }
      ],
      "name": "getTokenIndexBySymbol",
      "outputs": [
        {
          "name": "",
          "type": "uint256"
        }
      ],
      "payable": false,
      "stateMutability": "view",
      "type": "function"
    },
    {
      "constant": true,
      "inputs": [
        {
          "name": "_symbol",
          "type": "string"
        }
      ],
      "name": "getTokenAddressBySymbol",
      "outputs": [
        {
          "name": "",
          "type": "address"
        }
      ],
      "payable": false,
      "stateMutability": "view",
      "type": "function"
    },
    {
      "constant": true,
      "inputs": [
        {
          "name": "",
          "type": "bytes32"
        }
      ],
      "name": "symbolHashToTokenAttributes",
      "outputs": [
        {
          "name": "tokenAddress",
          "type": "address"
        },
        {
          "name": "tokenIndex",
          "type": "uint256"
        },
        {
          "name": "name",
          "type": "string"
        }
      ],
      "payable": false,
      "stateMutability": "view",
      "type": "function"
    },
    {
      "constant": true,
      "inputs": [
        {
          "name": "_index",
          "type": "uint256"
        }
      ],
      "name": "getTokenAddressByIndex",
      "outputs": [
        {
          "name": "",
          "type": "address"
        }
      ],
      "payable": false,
      "stateMutability": "view",
      "type": "function"
    },
    {
      "constant": true,
      "inputs": [
        {
          "name": "_index",
          "type": "uint256"
        }
      ],
      "name": "getTokenSymbolByIndex",
      "outputs": [
        {
          "name": "",
          "type": "string"
        }
      ],
      "payable": false,
      "stateMutability": "view",
      "type": "function"
    },
    {
      "constant": true,
      "inputs": [
        {
          "name": "_symbol",
          "type": "string"
        }
      ],
      "name": "getTokenAttributesBySymbol",
      "outputs": [
        {
          "name": "",
          "type": "address"
        },
        {
          "name": "",
          "type": "uint256"
        },
        {
          "name": "",
          "type": "string"
        }
      ],
      "payable": false,
      "stateMutability": "view",
      "type": "function"
    },
    {
      "constant": true,
      "inputs": [],
      "name": "owner",
      "outputs": [
        {
          "name": "",
          "type": "address"
        }
      ],
      "payable": false,
      "stateMutability": "view",
      "type": "function"
    },
    {
      "constant": true,
      "inputs": [
        {
          "name": "",
          "type": "uint256"
        }
      ],
      "name": "tokenSymbolList",
      "outputs": [
        {
          "name": "",
          "type": "string"
        }
      ],
      "payable": false,
      "stateMutability": "view",
      "type": "function"
    },
    {
      "constant": true,
      "inputs": [
        {
          "name": "_symbol",
          "type": "string"
        }
      ],
      "name": "getTokenNameBySymbol",
      "outputs": [
        {
          "name": "",
          "type": "string"
        }
      ],
      "payable": false,
      "stateMutability": "view",
      "type": "function"
    },
    {
      "constant": false,
      "inputs": [
        {
          "name": "_symbol",
          "type": "string"
        },
        {
          "name": "_tokenAddress",
          "type": "address"
        },
        {
          "name": "_tokenName",
          "type": "string"
        }
      ],
      "name": "setTokenAttributes",
      "outputs": [],
      "payable": false,
      "stateMutability": "nonpayable",
      "type": "function"
    },
    {
      "constant": true,
      "inputs": [],
      "name": "tokenSymbolListLength",
      "outputs": [
        {
          "name": "",
          "type": "uint32"
        }
      ],
      "payable": false,
      "stateMutability": "view",
      "type": "function"
    },
    {
      "constant": false,
      "inputs": [
        {
          "name": "newOwner",
          "type": "address"
        }
      ],
      "name": "transferOwnership",
      "outputs": [],
      "payable": false,
      "stateMutability": "nonpayable",
      "type": "function"
    },
    {
      "constant": true,
      "inputs": [
        {
          "name": "_index",
          "type": "uint256"
        }
      ],
      "name": "getTokenNameByIndex",
      "outputs": [
        {
          "name": "",
          "type": "string"
        }
      ],
      "payable": false,
      "stateMutability": "view",
      "type": "function"
    },
    {
      "anonymous": false,
      "inputs": [
        {
          "indexed": true,
          "name": "previousOwner",
          "type": "address"
        },
        {
          "indexed": true,
          "name": "newOwner",
          "type": "address"
        }
      ],
      "name": "OwnershipTransferred",
      "type": "event"
    }
  ],
  "bytecode": "0x6060604052336000806101000a81548173ffffffffffffffffffffffffffffffffffffffff021916908373ffffffffffffffffffffffffffffffffffffffff16021790555061190b806100536000396000f3006060604052600436106100d0576000357c0100000000000000000000000000000000000000000000000000000000900463ffffffff1680631e71f8d1146100d55780632e1e1bb3146102105780633550b6d9146102815780633dbe284a1461031e5780635715c5b7146104155780636e7cbb0d146104785780638052348b146105145780638da5cb5b1461062457806395f121bf14610679578063bd7b564d14610715578063c0d0b6ff146107eb578063c51ccb40146108aa578063f2fde38b146108df578063fa7f369714610918575b600080fd5b34156100e057600080fd5b6100f660048080359060200190919050506109b4565b604051808473ffffffffffffffffffffffffffffffffffffffff1673ffffffffffffffffffffffffffffffffffffffff1681526020018060200180602001838103835285818151815260200191508051906020019080838360005b8381101561016c578082015181840152602081019050610151565b50505050905090810190601f1680156101995780820380516001836020036101000a031916815260200191505b50838103825284818151815260200191508051906020019080838360005b838110156101d25780820151818401526020810190506101b7565b50505050905090810190601f1680156101ff5780820380516001836020036101000a031916815260200191505b509550505050505060405180910390f35b341561021b57600080fd5b61026b600480803590602001908201803590602001908080601f01602080910402602001604051908101604052809392919081815260200183838082843782019150505050505091905050610b34565b6040518082815260200191505060405180910390f35b341561028c57600080fd5b6102dc600480803590602001908201803590602001908080601f01602080910402602001604051908101604052809392919081815260200183838082843782019150505050505091905050610bc9565b604051808273ffffffffffffffffffffffffffffffffffffffff1673ffffffffffffffffffffffffffffffffffffffff16815260200191505060405180910390f35b341561032957600080fd5b610343600480803560001916906020019091905050610c7e565b604051808473ffffffffffffffffffffffffffffffffffffffff1673ffffffffffffffffffffffffffffffffffffffff168152602001838152602001806020018281038252838181546001816001161561010002031660029004815260200191508054600181600116156101000203166002900480156104045780601f106103d957610100808354040283529160200191610404565b820191906000526020600020905b8154815290600101906020018083116103e757829003601f168201915b505094505050505060405180910390f35b341561042057600080fd5b6104366004808035906020019091905050610cc7565b604051808273ffffffffffffffffffffffffffffffffffffffff1673ffffffffffffffffffffffffffffffffffffffff16815260200191505060405180910390f35b341561048357600080fd5b6104996004808035906020019091905050610d89565b6040518080602001828103825283818151815260200191508051906020019080838360005b838110156104d95780820151818401526020810190506104be565b50505050905090810190601f1680156105065780820380516001836020036101000a031916815260200191505b509250505060405180910390f35b341561051f57600080fd5b61056f600480803590602001908201803590602001908080601f01602080910402602001604051908101604052809392919081815260200183838082843782019150505050505091905050610e44565b604051808473ffffffffffffffffffffffffffffffffffffffff1673ffffffffffffffffffffffffffffffffffffffff16815260200183815260200180602001828103825283818151815260200191508051906020019080838360005b838110156105e75780820151818401526020810190506105cc565b50505050905090810190601f1680156106145780820380516001836020036101000a031916815260200191505b5094505050505060405180910390f35b341561062f57600080fd5b610637610fad565b604051808273ffffffffffffffffffffffffffffffffffffffff1673ffffffffffffffffffffffffffffffffffffffff16815260200191505060405180910390f35b341561068457600080fd5b61069a6004808035906020019091905050610fd2565b6040518080602001828103825283818151815260200191508051906020019080838360005b838110156106da5780820151818401526020810190506106bf565b50505050905090810190601f1680156107075780820380516001836020036101000a031916815260200191505b509250505060405180910390f35b341561072057600080fd5b610770600480803590602001908201803590602001908080601f01602080910402602001604051908101604052809392919081815260200183838082843782019150505050505091905050611087565b6040518080602001828103825283818151815260200191508051906020019080838360005b838110156107b0578082015181840152602081019050610795565b50505050905090810190601f1680156107dd5780820380516001836020036101000a031916815260200191505b509250505060405180910390f35b34156107f657600080fd5b6108a8600480803590602001908201803590602001908080601f0160208091040260200160405190810160405280939291908181526020018383808284378201915050505050509190803573ffffffffffffffffffffffffffffffffffffffff1690602001909190803590602001908201803590602001908080601f016020809104026020016040519081016040528093929190818152602001838380828437820191505050505050919050506111ba565b005b34156108b557600080fd5b6108bd6115ad565b604051808263ffffffff1663ffffffff16815260200191505060405180910390f35b34156108ea57600080fd5b610916600480803573ffffffffffffffffffffffffffffffffffffffff169060200190919050506115c7565b005b341561092357600080fd5b610939600480803590602001909190505061171c565b6040518080602001828103825283818151815260200191508051906020019080838360005b8381101561097957808201518184015260208101905061095e565b50505050905090810190601f1680156109a65780820380516001836020036101000a031916815260200191505b509250505060405180910390f35b60006109be611754565b6109c6611754565b6109ce611754565b6000806109da87610d89565b9250826040518082805190602001908083835b602083101515610a1257805182526020820191506020810190506020830392506109ed565b6001836020036101000a0380198251168184511680821785525050505050509050019150506040518091039020915060016000836000191660001916815260200190815260200160002090508060000160009054906101000a900473ffffffffffffffffffffffffffffffffffffffff168382600201808054600181600116156101000203166002900480601f016020809104026020016040519081016040528092919081815260200182805460018160011615610100020316600290048015610b1d5780601f10610af257610100808354040283529160200191610b1d565b820191906000526020600020905b815481529060010190602001808311610b0057829003601f168201915b505050505090509550955095505050509193909250565b6000806000836040518082805190602001908083835b602083101515610b6f5780518252602082019150602081019050602083039250610b4a565b6001836020036101000a038019825116818451168082178552505050505050905001915050604051809103902091506001600083600019166000191681526020019081526020016000209050806001015492505050919050565b6000806000836040518082805190602001908083835b602083101515610c045780518252602082019150602081019050602083039250610bdf565b6001836020036101000a0380198251168184511680821785525050505050509050019150506040518091039020915060016000836000191660001916815260200190815260200160002090508060000160009054906101000a900473ffffffffffffffffffffffffffffffffffffffff1692505050919050565b60016020528060005260406000206000915090508060000160009054906101000a900473ffffffffffffffffffffffffffffffffffffffff169080600101549080600201905083565b60008060028363ffffffff81101515610cdc57fe5b019050610d81818054600181600116156101000203166002900480601f016020809104026020016040519081016040528092919081815260200182805460018160011615610100020316600290048015610d775780601f10610d4c57610100808354040283529160200191610d77565b820191906000526020600020905b815481529060010190602001808311610d5a57829003601f168201915b5050505050610bc9565b915050919050565b610d91611754565b60028263ffffffff81101515610da357fe5b018054600181600116156101000203166002900480601f016020809104026020016040519081016040528092919081815260200182805460018160011615610100020316600290048015610e385780601f10610e0d57610100808354040283529160200191610e38565b820191906000526020600020905b815481529060010190602001808311610e1b57829003601f168201915b50505050509050919050565b600080610e4f611754565b600080856040518082805190602001908083835b602083101515610e885780518252602082019150602081019050602083039250610e63565b6001836020036101000a0380198251168184511680821785525050505050509050019150506040518091039020915060016000836000191660001916815260200190815260200160002090508060000160009054906101000a900473ffffffffffffffffffffffffffffffffffffffff16816001015482600201808054600181600116156101000203166002900480601f016020809104026020016040519081016040528092919081815260200182805460018160011615610100020316600290048015610f975780601f10610f6c57610100808354040283529160200191610f97565b820191906000526020600020905b815481529060010190602001808311610f7a57829003601f168201915b5050505050905094509450945050509193909250565b6000809054906101000a900473ffffffffffffffffffffffffffffffffffffffff1681565b60028163ffffffff81101515610fe457fe5b016000915090508054600181600116156101000203166002900480601f01602080910402602001604051908101604052809291908181526020018280546001816001161561010002031660029004801561107f5780601f106110545761010080835404028352916020019161107f565b820191906000526020600020905b81548152906001019060200180831161106257829003601f168201915b505050505081565b61108f611754565b600080836040518082805190602001908083835b6020831015156110c857805182526020820191506020810190506020830392506110a3565b6001836020036101000a038019825116818451168082178552505050505050905001915050604051809103902091506001600083600019166000191681526020019081526020016000209050806002018054600181600116156101000203166002900480601f0160208091040260200160405190810160405280929190818152602001828054600181600116156101000203166002900480156111ac5780601f10611181576101008083540402835291602001916111ac565b820191906000526020600020905b81548152906001019060200180831161118f57829003601f168201915b505050505092505050919050565b60006111c4611768565b6000809054906101000a900473ffffffffffffffffffffffffffffffffffffffff1673ffffffffffffffffffffffffffffffffffffffff163373ffffffffffffffffffffffffffffffffffffffff1614151561121f57600080fd5b846040518082805190602001908083835b6020831015156112555780518252602082019150602081019050602083039250611230565b6001836020036101000a03801982511681845116808217855250505050505090500191505060405180910390209150600160008360001916600019168152602001908152602001600020606060405190810160405290816000820160009054906101000a900473ffffffffffffffffffffffffffffffffffffffff1673ffffffffffffffffffffffffffffffffffffffff1673ffffffffffffffffffffffffffffffffffffffff16815260200160018201548152602001600282018054600181600116156101000203166002900480601f0160208091040260200160405190810160405280929190818152602001828054600181600116156101000203166002900480156113a45780601f10611379576101008083540402835291602001916113a4565b820191906000526020600020905b81548152906001019060200180831161138757829003601f168201915b5050505050815250509050600073ffffffffffffffffffffffffffffffffffffffff16816000015173ffffffffffffffffffffffffffffffffffffffff1614156114d75783816000019073ffffffffffffffffffffffffffffffffffffffff16908173ffffffffffffffffffffffffffffffffffffffff168152505082816040018190525064010000000160009054906101000a900463ffffffff1663ffffffff1681602001818152505084600264010000000160009054906101000a900463ffffffff1663ffffffff1663ffffffff8110151561147e57fe5b0190805190602001906114929291906117a6565b50640100000001600081819054906101000a900463ffffffff168092919060010191906101000a81548163ffffffff021916908363ffffffff16021790555050611519565b83816000019073ffffffffffffffffffffffffffffffffffffffff16908173ffffffffffffffffffffffffffffffffffffffff16815250508281604001819052505b8060016000846000191660001916815260200190815260200160002060008201518160000160006101000a81548173ffffffffffffffffffffffffffffffffffffffff021916908373ffffffffffffffffffffffffffffffffffffffff1602179055506020820151816001015560408201518160020190805190602001906115a2929190611826565b509050505050505050565b64010000000160009054906101000a900463ffffffff1681565b6000809054906101000a900473ffffffffffffffffffffffffffffffffffffffff1673ffffffffffffffffffffffffffffffffffffffff163373ffffffffffffffffffffffffffffffffffffffff1614151561162257600080fd5b600073ffffffffffffffffffffffffffffffffffffffff168173ffffffffffffffffffffffffffffffffffffffff161415151561165e57600080fd5b8073ffffffffffffffffffffffffffffffffffffffff166000809054906101000a900473ffffffffffffffffffffffffffffffffffffffff1673ffffffffffffffffffffffffffffffffffffffff167f8be0079c531659141344cd1fd0a4f28419497f9722a3daafe3b4186f6b6457e060405160405180910390a3806000806101000a81548173ffffffffffffffffffffffffffffffffffffffff021916908373ffffffffffffffffffffffffffffffffffffffff16021790555050565b611724611754565b61172c611754565b611734611754565b61173d84610d89565b915061174882611087565b90508092505050919050565b602060405190810160405280600081525090565b606060405190810160405280600073ffffffffffffffffffffffffffffffffffffffff168152602001600081526020016117a06118a6565b81525090565b828054600181600116156101000203166002900490600052602060002090601f016020900481019282601f106117e757805160ff1916838001178555611815565b82800160010185558215611815579182015b828111156118145782518255916020019190600101906117f9565b5b50905061182291906118ba565b5090565b828054600181600116156101000203166002900490600052602060002090601f016020900481019282601f1061186757805160ff1916838001178555611895565b82800160010185558215611895579182015b82811115611894578251825591602001919060010190611879565b5b5090506118a291906118ba565b5090565b602060405190810160405280600081525090565b6118dc91905b808211156118d85760008160009055506001016118c0565b5090565b905600a165627a7a723058203aebb3e5baab02b9eb4634bd23168bf5f2e1fa3257767205ce5ce8580cd400a80029",
  "source": "pragma solidity 0.4.18;\r\n\r\nimport \"zeppelin-solidity/contracts/ownership/Ownable.sol\";\r\n\r\n\r\n/**\r\n * The ERC721TokenRegistry is a basic registry mapping token symbols\r\n * to their known, deployed addresses on the current blockchain.\r\n *\r\n * Note that the TokenRegistry does *not* mediate any of the\r\n * core protocol's business logic, but, rather, is a helpful\r\n * utility for Terms Contracts to use in encoding, decoding, and\r\n * resolving the addresses of currently deployed tokens.\r\n *\r\n * At this point in time, administration of the Token Registry is\r\n * under Dharma Labs' control.  With more sophisticated decentralized\r\n * governance mechanisms, we intend to shift ownership of this utility\r\n * contract to the Dharma community.\r\n */\r\ncontract ERC721TokenRegistry is Ownable {\r\n    mapping (bytes32 => TokenAttributes) public symbolHashToTokenAttributes;\r\n    // Solidity prevents us from declaring a dynamically sized string array (since a string is\r\n    // itself an array, and 2D arrays are not supported), and so here we specify the maximum\r\n    // size of the tokenSymbolList.\r\n    string[4294967295] public tokenSymbolList;\r\n    uint32 public tokenSymbolListLength;\r\n\r\n    struct TokenAttributes {\r\n        // The ERC721 contract address.\r\n        address tokenAddress;\r\n        // The index in `tokenSymbolList` where the token's symbol can be found.\r\n        uint tokenIndex;\r\n        // The name of the given token, e.g. \"CryptoKitties\"\r\n        string name;\r\n    }\r\n\r\n    /**\r\n     * Maps the given symbol to the given token attributes.\r\n     */\r\n    function setTokenAttributes(\r\n        string _symbol,\r\n        address _tokenAddress,\r\n        string _tokenName\r\n    )\r\n        public onlyOwner\r\n    {\r\n        bytes32 symbolHash = keccak256(_symbol);\r\n\r\n        // Attempt to retrieve the token's attributes from the registry.\r\n        TokenAttributes memory attributes = symbolHashToTokenAttributes[symbolHash];\r\n\r\n        if (attributes.tokenAddress == address(0)) {\r\n            // The token has not yet been added to the registry.\r\n            attributes.tokenAddress = _tokenAddress;\r\n            attributes.name = _tokenName;\r\n            attributes.tokenIndex = tokenSymbolListLength;\r\n\r\n            tokenSymbolList[tokenSymbolListLength] = _symbol;\r\n            tokenSymbolListLength++;\r\n        } else {\r\n            // The token has already been added to the registry; update attributes.\r\n            attributes.tokenAddress = _tokenAddress;\r\n            attributes.name = _tokenName;\r\n        }\r\n\r\n        // Update this contract's storage.\r\n        symbolHashToTokenAttributes[symbolHash] = attributes;\r\n    }\r\n\r\n    /**\r\n     * Given a symbol, resolves the current address of the token the symbol is mapped to.\r\n     */\r\n    function getTokenAddressBySymbol(string _symbol) public view returns (address) {\r\n        bytes32 symbolHash = keccak256(_symbol);\r\n\r\n        TokenAttributes storage attributes = symbolHashToTokenAttributes[symbolHash];\r\n\r\n        return attributes.tokenAddress;\r\n    }\r\n\r\n    /**\r\n     * Given the known index of a token within the registry's symbol list,\r\n     * returns the address of the token mapped to the symbol at that index.\r\n     */\r\n    function getTokenAddressByIndex(uint _index) public view returns (address) {\r\n        string storage symbol = tokenSymbolList[_index];\r\n\r\n        return getTokenAddressBySymbol(symbol);\r\n    }\r\n\r\n    /**\r\n     * Given a symbol, resolves the index of the token the symbol is mapped to within the registry's\r\n     * symbol list.\r\n     */\r\n    function getTokenIndexBySymbol(string _symbol) public view returns (uint) {\r\n        bytes32 symbolHash = keccak256(_symbol);\r\n\r\n        TokenAttributes storage attributes = symbolHashToTokenAttributes[symbolHash];\r\n\r\n        return attributes.tokenIndex;\r\n    }\r\n\r\n    /**\r\n     * Given an index, resolves the symbol of the token at that index in the registry's\r\n     * token symbol list.\r\n     */\r\n    function getTokenSymbolByIndex(uint _index) public view returns (string) {\r\n        return tokenSymbolList[_index];\r\n    }\r\n\r\n    /**\r\n     * Given a symbol, returns the name of the token the symbol is mapped to within the registry's\r\n     * symbol list.\r\n     */\r\n    function getTokenNameBySymbol(string _symbol) public view returns (string) {\r\n        bytes32 symbolHash = keccak256(_symbol);\r\n\r\n        TokenAttributes storage attributes = symbolHashToTokenAttributes[symbolHash];\r\n\r\n        return attributes.name;\r\n    }\r\n\r\n    /**\r\n     * Given the index for a token in the registry, returns the name of the token as provided in\r\n     * the associated TokensAttribute struct.\r\n     *\r\n     * Example:\r\n     *   getTokenNameByIndex(1);\r\n     *   => \"CryptoKitties\"\r\n     */\r\n    function getTokenNameByIndex(uint _index) public view returns (string) {\r\n        string memory symbol = getTokenSymbolByIndex(_index);\r\n\r\n        string memory tokenName = getTokenNameBySymbol(symbol);\r\n\r\n        return tokenName;\r\n    }\r\n\r\n    /**\r\n     * Given the symbol for a token in the registry, returns a tuple containing the token's address,\r\n     * the token's index in the registry, and the token's name.\r\n     *\r\n     * Example:\r\n     *   getTokenAttributesBySymbol(\"CK\");\r\n     *   => [\"0x06012c8cf97BEaD5deAe237070F9587f8E7A266d\", 1, \"CryptoKitties\"]\r\n     */\r\n    function getTokenAttributesBySymbol(string _symbol)\r\n        public\r\n        view\r\n        returns (\r\n            address,\r\n            uint,\r\n            string\r\n        )\r\n    {\r\n        bytes32 symbolHash = keccak256(_symbol);\r\n\r\n        TokenAttributes storage attributes = symbolHashToTokenAttributes[symbolHash];\r\n\r\n        return (\r\n            attributes.tokenAddress,\r\n            attributes.tokenIndex,\r\n            attributes.name\r\n        );\r\n    }\r\n\r\n    /**\r\n     * Given the index for a token in the registry, returns a tuple containing the token's address,\r\n     * the token's symbol, and the token's name.\r\n     *\r\n     * Example:\r\n     *   getTokenAttributesByIndex(1);\r\n     *   => [\"0x06012c8cf97BEaD5deAe237070F9587f8E7A266d\", \"CK\", \"CryptoKitties\"]\r\n     */\r\n    function getTokenAttributesByIndex(uint _index)\r\n        public\r\n        view\r\n        returns (\r\n            address,\r\n            string,\r\n            string\r\n        )\r\n    {\r\n        string memory symbol = getTokenSymbolByIndex(_index);\r\n\r\n        bytes32 symbolHash = keccak256(symbol);\r\n\r\n        TokenAttributes storage attributes = symbolHashToTokenAttributes[symbolHash];\r\n\r\n        return (\r\n            attributes.tokenAddress,\r\n            symbol,\r\n            attributes.name\r\n        );\r\n    }\r\n}\r\n",
  "sourcePath": "/mnt/c/Users/devan/fixer/check-dharma/contracts/ERC721TokenRegistry.sol",
  "compiler": {
    "name": "solc",
    "version": "0.4.18+commit.9cf6e910.Emscripten.clang"
  },
  "schemaVersion": "1.0.1",
  "updatedAt": "2018-11-27T07:48:43.659Z"
}