{
  "contractName": "MockDebtToken",
  "abi": [
    {
      "constant": true,
      "inputs": [
        {
          "name": "_to",
          "type": "address"
        },
        {
          "name": "_tokenId",
          "type": "uint256"
        }
      ],
      "name": "wasTransferCalledWith",
      "outputs": [
        {
          "name": "wasCalled",
          "type": "bool"
        }
      ],
      "payable": false,
      "stateMutability": "view",
      "type": "function"
    },
    {
      "constant": true,
      "inputs": [
        {
          "name": "functionName",
          "type": "string"
        },
        {
          "name": "argsSignature",
          "type": "bytes32"
        }
      ],
      "name": "getMockReturnValue",
      "outputs": [
        {
          "name": "_mockReturnValue",
          "type": "bytes32"
        }
      ],
      "payable": false,
      "stateMutability": "view",
      "type": "function"
    },
    {
      "constant": false,
      "inputs": [
        {
          "name": "_tokenId",
          "type": "uint256"
        },
        {
          "name": "_owner",
          "type": "address"
        }
      ],
      "name": "mockOwnerOfFor",
      "outputs": [],
      "payable": false,
      "stateMutability": "nonpayable",
      "type": "function"
    },
    {
      "constant": true,
      "inputs": [
        {
          "name": "_tokenId",
          "type": "uint256"
        }
      ],
      "name": "exists",
      "outputs": [
        {
          "name": "_exists",
          "type": "bool"
        }
      ],
      "payable": false,
      "stateMutability": "view",
      "type": "function"
    },
    {
      "constant": true,
      "inputs": [
        {
          "name": "_tokenId",
          "type": "uint256"
        }
      ],
      "name": "ownerOf",
      "outputs": [
        {
          "name": "_owner",
          "type": "address"
        }
      ],
      "payable": false,
      "stateMutability": "view",
      "type": "function"
    },
    {
      "constant": false,
      "inputs": [
        {
          "name": "functionName",
          "type": "string"
        },
        {
          "name": "argsSignature",
          "type": "bytes32"
        },
        {
          "name": "returnValue",
          "type": "bytes32"
        }
      ],
      "name": "mockReturnValue",
      "outputs": [],
      "payable": false,
      "stateMutability": "nonpayable",
      "type": "function"
    },
    {
      "constant": false,
      "inputs": [],
      "name": "pause",
      "outputs": [],
      "payable": false,
      "stateMutability": "nonpayable",
      "type": "function"
    },
    {
      "constant": false,
      "inputs": [
        {
          "name": "_version",
          "type": "address"
        },
        {
          "name": "_beneficiary",
          "type": "address"
        },
        {
          "name": "_debtor",
          "type": "address"
        },
        {
          "name": "_underwriter",
          "type": "address"
        },
        {
          "name": "_underwriterRiskRating",
          "type": "uint256"
        },
        {
          "name": "_termsContract",
          "type": "address"
        },
        {
          "name": "_termsContractParameters",
          "type": "bytes32"
        },
        {
          "name": "_salt",
          "type": "uint256"
        }
      ],
      "name": "create",
      "outputs": [
        {
          "name": "_tokenId",
          "type": "uint256"
        }
      ],
      "payable": false,
      "stateMutability": "nonpayable",
      "type": "function"
    },
    {
      "constant": false,
      "inputs": [
        {
          "name": "_agent",
          "type": "address"
        }
      ],
      "name": "addAuthorizedMintAgent",
      "outputs": [],
      "payable": false,
      "stateMutability": "nonpayable",
      "type": "function"
    },
    {
      "constant": false,
      "inputs": [
        {
          "name": "_to",
          "type": "address"
        },
        {
          "name": "_tokenId",
          "type": "uint256"
        }
      ],
      "name": "transfer",
      "outputs": [
        {
          "name": "success",
          "type": "bool"
        }
      ],
      "payable": false,
      "stateMutability": "nonpayable",
      "type": "function"
    },
    {
      "constant": true,
      "inputs": [
        {
          "name": "_version",
          "type": "address"
        },
        {
          "name": "_beneficiary",
          "type": "address"
        },
        {
          "name": "_debtor",
          "type": "address"
        },
        {
          "name": "_underwriter",
          "type": "address"
        },
        {
          "name": "_underwriterRiskRating",
          "type": "uint256"
        },
        {
          "name": "_termsContract",
          "type": "address"
        },
        {
          "name": "_termsContractParameters",
          "type": "bytes32"
        },
        {
          "name": "_salt",
          "type": "uint256"
        }
      ],
      "name": "wasCreateCalledWith",
      "outputs": [
        {
          "name": "wasCalled",
          "type": "bool"
        }
      ],
      "payable": false,
      "stateMutability": "view",
      "type": "function"
    },
    {
      "constant": true,
      "inputs": [
        {
          "name": "_agent",
          "type": "address"
        }
      ],
      "name": "wasAddAuthorizedMintAgentCalledWith",
      "outputs": [
        {
          "name": "_wasCalled",
          "type": "bool"
        }
      ],
      "payable": false,
      "stateMutability": "view",
      "type": "function"
    },
    {
      "constant": false,
      "inputs": [],
      "name": "reset",
      "outputs": [],
      "payable": false,
      "stateMutability": "nonpayable",
      "type": "function"
    },
    {
      "constant": false,
      "inputs": [
        {
          "name": "_tokenId",
          "type": "uint256"
        }
      ],
      "name": "mockCreateReturnValue",
      "outputs": [],
      "payable": false,
      "stateMutability": "nonpayable",
      "type": "function"
    },
    {
      "constant": true,
      "inputs": [],
      "name": "wasPauseCalled",
      "outputs": [
        {
          "name": "_wasCalled",
          "type": "bool"
        }
      ],
      "payable": false,
      "stateMutability": "view",
      "type": "function"
    }
  ],
  "bytecode": "0x6060604052341561000f57600080fd5b6118918061001e6000396000f3006060604052600436106100db576000357c0100000000000000000000000000000000000000000000000000000000900463ffffffff1680630e81bd9f146100e0578063131018581461013a57806313d2a2ab146101c05780634f558e79146102025780636352211e1461023d57806380da20d4146102a05780638456cb591461031757806399f105011461032c5780639c0d9c4314610414578063a9059cbb1461044d578063b742f563146104a7578063c6f5407a14610593578063d826f88f146105e4578063e18b2126146105f9578063e55f7fd51461061c575b600080fd5b34156100eb57600080fd5b610120600480803573ffffffffffffffffffffffffffffffffffffffff16906020019091908035906020019091905050610649565b604051808215151515815260200191505060405180910390f35b341561014557600080fd5b6101a2600480803590602001908201803590602001908080601f01602080910402602001604051908101604052809392919081815260200183838082843782019150505050505091908035600019169060200190919050506106ea565b60405180826000191660001916815260200191505060405180910390f35b34156101cb57600080fd5b610200600480803590602001909190803573ffffffffffffffffffffffffffffffffffffffff16906020019091905050610779565b005b341561020d57600080fd5b61022360048080359060200190919050506107eb565b604051808215151515815260200191505060405180910390f35b341561024857600080fd5b61025e600480803590602001909190505061082c565b604051808273ffffffffffffffffffffffffffffffffffffffff1673ffffffffffffffffffffffffffffffffffffffff16815260200191505060405180910390f35b34156102ab57600080fd5b610315600480803590602001908201803590602001908080601f01602080910402602001604051908101604052809392919081815260200183838082843782019150505050505091908035600019169060200190919080356000191690602001909190505061087d565b005b341561032257600080fd5b61032a6109a7565b005b341561033757600080fd5b6103fe600480803573ffffffffffffffffffffffffffffffffffffffff1690602001909190803573ffffffffffffffffffffffffffffffffffffffff1690602001909190803573ffffffffffffffffffffffffffffffffffffffff1690602001909190803573ffffffffffffffffffffffffffffffffffffffff1690602001909190803590602001909190803573ffffffffffffffffffffffffffffffffffffffff1690602001909190803560001916906020019091908035906020019091905050610a23565b6040518082815260200191505060405180910390f35b341561041f57600080fd5b61044b600480803573ffffffffffffffffffffffffffffffffffffffff16906020019091905050610c3a565b005b341561045857600080fd5b61048d600480803573ffffffffffffffffffffffffffffffffffffffff16906020019091908035906020019091905050610ccc565b604051808215151515815260200191505060405180910390f35b34156104b257600080fd5b610579600480803573ffffffffffffffffffffffffffffffffffffffff1690602001909190803573ffffffffffffffffffffffffffffffffffffffff1690602001909190803573ffffffffffffffffffffffffffffffffffffffff1690602001909190803573ffffffffffffffffffffffffffffffffffffffff1690602001909190803590602001909190803573ffffffffffffffffffffffffffffffffffffffff1690602001909190803560001916906020019091908035906020019091905050610d6f565b604051808215151515815260200191505060405180910390f35b341561059e57600080fd5b6105ca600480803573ffffffffffffffffffffffffffffffffffffffff16906020019091905050610f3a565b604051808215151515815260200191505060405180910390f35b34156105ef57600080fd5b6105f7610fd2565b005b341561060457600080fd5b61061a60048080359060200190919050506112c9565b005b341561062757600080fd5b61062f611313565b604051808215151515815260200191505060405180910390f35b60006106e26040805190810160405280600881526020017f7472616e736665720000000000000000000000000000000000000000000000008152508484604051808373ffffffffffffffffffffffffffffffffffffffff1673ffffffffffffffffffffffffffffffffffffffff166c01000000000000000000000000028152601401828152602001925050506040518091039020611394565b905092915050565b60006001836040518082805190602001908083835b60208310151561072457805182526020820191506020810190506020830392506106ff565b6001836020036101000a03801982511681845116808217855250505050505090500191505090815260200160405180910390206000836000191660001916815260200190815260200160002054905092915050565b6107e76040805190810160405280600781526020017f6f776e65724f6600000000000000000000000000000000000000000000000000815250836040518082815260200191505060405180910390208373ffffffffffffffffffffffffffffffffffffffff1660010261087d565b5050565b60008073ffffffffffffffffffffffffffffffffffffffff1661080d83611430565b73ffffffffffffffffffffffffffffffffffffffff1614159050919050565b600061083782611430565b9050600073ffffffffffffffffffffffffffffffffffffffff168173ffffffffffffffffffffffffffffffffffffffff161415151561087557600080fd5b809050919050565b6000836040518082805190602001908083835b6020831015156108b55780518252602082019150602081019050602083039250610890565b6001836020036101000a038019825116818451168082178552505050505050905001915050908152602001604051809103902080548060010182816108fa919061179c565b916000526020600020900160008490919091509060001916905550806001846040518082805190602001908083835b60208310151561094e5780518252602082019150602081019050602083039250610929565b6001836020036101000a0380198251168184511680821785525050505050509050019150509081526020016040518091039020600084600019166000191681526020019081526020016000208160001916905550505050565b610a216040805190810160405280600581526020017f70617573650000000000000000000000000000000000000000000000000000008152506000604051808260ff167f01000000000000000000000000000000000000000000000000000000000000000281526001019150506040518091039020611491565b565b6000808989898989898989604051808973ffffffffffffffffffffffffffffffffffffffff1673ffffffffffffffffffffffffffffffffffffffff166c010000000000000000000000000281526014018873ffffffffffffffffffffffffffffffffffffffff1673ffffffffffffffffffffffffffffffffffffffff166c010000000000000000000000000281526014018773ffffffffffffffffffffffffffffffffffffffff1673ffffffffffffffffffffffffffffffffffffffff166c010000000000000000000000000281526014018673ffffffffffffffffffffffffffffffffffffffff1673ffffffffffffffffffffffffffffffffffffffff166c010000000000000000000000000281526014018581526020018473ffffffffffffffffffffffffffffffffffffffff1673ffffffffffffffffffffffffffffffffffffffff166c0100000000000000000000000002815260140183600019166000191681526020018281526020019850505050505050505060405180910390209050610be46040805190810160405280600681526020017f637265617465000000000000000000000000000000000000000000000000000081525082611491565b610c276040805190810160405280600681526020017f637265617465000000000000000000000000000000000000000000000000000081525060006001026106ea565b6001900491505098975050505050505050565b610cc96040805190810160405280601681526020017f616464417574686f72697a65644d696e744167656e740000000000000000000081525082604051808273ffffffffffffffffffffffffffffffffffffffff1673ffffffffffffffffffffffffffffffffffffffff166c010000000000000000000000000281526014019150506040518091039020611491565b50565b6000610d656040805190810160405280600881526020017f7472616e736665720000000000000000000000000000000000000000000000008152508484604051808373ffffffffffffffffffffffffffffffffffffffff1673ffffffffffffffffffffffffffffffffffffffff166c01000000000000000000000000028152601401828152602001925050506040518091039020611491565b6001905092915050565b6000610f2c6040805190810160405280600681526020017f63726561746500000000000000000000000000000000000000000000000000008152508a8a8a8a8a8a8a8a604051808973ffffffffffffffffffffffffffffffffffffffff1673ffffffffffffffffffffffffffffffffffffffff166c010000000000000000000000000281526014018873ffffffffffffffffffffffffffffffffffffffff1673ffffffffffffffffffffffffffffffffffffffff166c010000000000000000000000000281526014018773ffffffffffffffffffffffffffffffffffffffff1673ffffffffffffffffffffffffffffffffffffffff166c010000000000000000000000000281526014018673ffffffffffffffffffffffffffffffffffffffff1673ffffffffffffffffffffffffffffffffffffffff166c010000000000000000000000000281526014018581526020018473ffffffffffffffffffffffffffffffffffffffff1673ffffffffffffffffffffffffffffffffffffffff166c010000000000000000000000000281526014018360001916600019168152602001828152602001985050505050505050506040518091039020611394565b905098975050505050505050565b6000610fcb6040805190810160405280601681526020017f616464417574686f72697a65644d696e744167656e740000000000000000000081525083604051808273ffffffffffffffffffffffffffffffffffffffff1673ffffffffffffffffffffffffffffffffffffffff166c010000000000000000000000000281526014019150506040518091039020611394565b9050919050565b6000610fdc6117c8565b600080600093505b600a8410156112c357610ff56115ca565b84600a8110151561100257fe5b60200201519250600083511415156112b657600091505b6000836040518082805190602001908083835b602083101515611051578051825260208201915060208101905060208303925061102c565b6001836020036101000a03801982511681845116808217855250505050505090500191505090815260200160405180910390208054905082101561123e576000836040518082805190602001908083835b6020831015156110c757805182526020820191506020810190506020830392506110a2565b6001836020036101000a03801982511681845116808217855250505050505090500191505090815260200160405180910390208281548110151561110757fe5b90600052602060002090015490506002836040518082805190602001908083835b60208310151561114d5780518252602082019150602081019050602083039250611128565b6001836020036101000a03801982511681845116808217855250505050505090500191505090815260200160405180910390206000826000191660001916815260200190815260200160002060006101000a81549060ff02191690556001836040518082805190602001908083835b6020831015156111e157805182526020820191506020810190506020830392506111bc565b6001836020036101000a038019825116818451168082178552505050505050905001915050908152602001604051809103902060008260001916600019168152602001908152602001600020600090558180600101925050611019565b6000836040518082805190602001908083835b6020831015156112765780518252602082019150602081019050602083039250611251565b6001836020036101000a038019825116818451168082178552505050505050905001915050908152602001604051809103902060006112b591906117dc565b5b8380600101945050610fe4565b50505050565b6113106040805190810160405280600681526020017f637265617465000000000000000000000000000000000000000000000000000081525060006001028360010261087d565b50565b600061138f6040805190810160405280600581526020017f70617573650000000000000000000000000000000000000000000000000000008152506000604051808260ff167f01000000000000000000000000000000000000000000000000000000000000000281526001019150506040518091039020611394565b905090565b60006002836040518082805190602001908083835b6020831015156113ce57805182526020820191506020810190506020830392506113a9565b6001836020036101000a03801982511681845116808217855250505050505090500191505090815260200160405180910390206000836000191660001916815260200190815260200160002060009054906101000a900460ff16905092915050565b60006114866040805190810160405280600781526020017f6f776e65724f6600000000000000000000000000000000000000000000000000815250836040518082815260200191505060405180910390206106ea565b600190049050919050565b60016002836040518082805190602001908083835b6020831015156114cb57805182526020820191506020810190506020830392506114a6565b6001836020036101000a03801982511681845116808217855250505050505090500191505090815260200160405180910390206000836000191660001916815260200190815260200160002060006101000a81548160ff0219169083151502179055506000826040518082805190602001908083835b6020831015156115665780518252602082019150602081019050602083039250611541565b6001836020036101000a038019825116818451168082178552505050505050905001915050908152602001604051809103902080548060010182816115ab919061179c565b9160005260206000209001600083909190915090600019169055505050565b6115d26117fd565b610140604051908101604052806040805190810160405280600681526020017f637265617465000000000000000000000000000000000000000000000000000081525081526020016040805190810160405280600781526020017f6f776e65724f660000000000000000000000000000000000000000000000000081525081526020016040805190810160405280600881526020017f7472616e7366657200000000000000000000000000000000000000000000000081525081526020016040805190810160405280600681526020017f657869737473000000000000000000000000000000000000000000000000000081525081526020016040805190810160405280601681526020017f616464417574686f72697a65644d696e744167656e740000000000000000000081525081526020016040805190810160405280600581526020017f706175736500000000000000000000000000000000000000000000000000000081525081526020016020604051908101604052806000815250815260200160206040519081016040528060008152508152602001602060405190810160405280600081525081526020016020604051908101604052806000815250815250905090565b8154818355818115116117c3578183600052602060002091820191016117c2919061182c565b5b505050565b602060405190810160405280600081525090565b50805460008255906000526020600020908101906117fa919061182c565b50565b61014060405190810160405280600a905b611816611851565b81526020019060019003908161180e5790505090565b61184e91905b8082111561184a576000816000905550600101611832565b5090565b90565b6020604051908101604052806000815250905600a165627a7a72305820124b8f731cb85d146452bf961596c78e2ef07f170ccca878f99bbf6a27bdcb0b0029",
  "source": "/*\r\n\r\n  Copyright 2017 Dharma Labs Inc.\r\n\r\n  Licensed under the Apache License, Version 2.0 (the \"License\");\r\n  you may not use this file except in compliance with the License.\r\n  You may obtain a copy of the License at\r\n\r\n    http://www.apache.org/licenses/LICENSE-2.0\r\n\r\n  Unless required by applicable law or agreed to in writing, software\r\n  distributed under the License is distributed on an \"AS IS\" BASIS,\r\n  WITHOUT WARRANTIES OR CONDITIONS OF ANY KIND, either express or implied.\r\n  See the License for the specific language governing permissions and\r\n  limitations under the License.\r\n\r\n*/\r\n\r\npragma solidity 0.4.18;\r\n\r\nimport \"./MockContract.sol\";\r\nimport \"zeppelin-solidity/contracts/token/ERC20/ERC20.sol\";\r\n\r\n\r\ncontract MockDebtToken is MockContract {\r\n    function create(\r\n        address _version,\r\n        address _beneficiary,\r\n        address _debtor,\r\n        address _underwriter,\r\n        uint _underwriterRiskRating,\r\n        address _termsContract,\r\n        bytes32 _termsContractParameters,\r\n        uint _salt\r\n    )\r\n        public\r\n        returns (uint _tokenId)\r\n    {\r\n        bytes32 argsSignature = keccak256(\r\n            _version,\r\n            _beneficiary,\r\n            _debtor,\r\n            _underwriter,\r\n            _underwriterRiskRating,\r\n            _termsContract,\r\n            _termsContractParameters,\r\n            _salt\r\n        );\r\n\r\n        functionCalledWithArgs(\"create\", argsSignature);\r\n\r\n        return uint(getMockReturnValue(\"create\", DEFAULT_SIGNATURE_ARGS));\r\n    }\r\n\r\n    function mockCreateReturnValue(uint _tokenId)\r\n        public\r\n    {\r\n        mockReturnValue(\"create\", DEFAULT_SIGNATURE_ARGS, bytes32(_tokenId));\r\n    }\r\n\r\n    function wasCreateCalledWith(\r\n        address _version,\r\n        address _beneficiary,\r\n        address _debtor,\r\n        address _underwriter,\r\n        uint _underwriterRiskRating,\r\n        address _termsContract,\r\n        bytes32 _termsContractParameters,\r\n        uint _salt\r\n    )\r\n        public\r\n        view\r\n        returns (bool wasCalled)\r\n    {\r\n        return wasFunctionCalledWithArgs(\"create\", keccak256(\r\n            _version,\r\n            _beneficiary,\r\n            _debtor,\r\n            _underwriter,\r\n            _underwriterRiskRating,\r\n            _termsContract,\r\n            _termsContractParameters,\r\n            _salt\r\n        ));\r\n    }\r\n\r\n    function transfer(address _to, uint _tokenId)\r\n        public\r\n        returns (bool success)\r\n    {\r\n        functionCalledWithArgs(\"transfer\", keccak256(_to, _tokenId));\r\n\r\n        return true;\r\n    }\r\n\r\n    function wasTransferCalledWith(address _to, uint _tokenId)\r\n        public\r\n        view\r\n        returns (bool wasCalled)\r\n    {\r\n        return wasFunctionCalledWithArgs(\"transfer\", keccak256(_to, _tokenId));\r\n    }\r\n\r\n    function ownerOf(uint _tokenId)\r\n        public\r\n        view\r\n        returns (address _owner)\r\n    {\r\n        _owner = _getOwner(_tokenId);\r\n        require(_owner != address(0));\r\n        return _owner;\r\n    }\r\n\r\n    function mockOwnerOfFor(uint _tokenId, address _owner)\r\n        public\r\n    {\r\n        mockReturnValue(\"ownerOf\", keccak256(_tokenId), bytes32(_owner));\r\n    }\r\n\r\n    function exists(uint _tokenId)\r\n        public\r\n        view\r\n        returns (bool _exists)\r\n    {\r\n        return _getOwner(_tokenId) != address(0);\r\n    }\r\n\r\n    function addAuthorizedMintAgent(address _agent)\r\n        public\r\n    {\r\n        functionCalledWithArgs(\"addAuthorizedMintAgent\", keccak256(_agent));\r\n    }\r\n\r\n    function wasAddAuthorizedMintAgentCalledWith(address _agent)\r\n        public\r\n        view\r\n        returns (bool _wasCalled)\r\n    {\r\n        return wasFunctionCalledWithArgs(\"addAuthorizedMintAgent\", keccak256(_agent));\r\n    }\r\n\r\n    function pause()\r\n        public\r\n    {\r\n        functionCalledWithArgs(\"pause\", keccak256(0));\r\n    }\r\n\r\n    function wasPauseCalled()\r\n        public\r\n        view\r\n        returns (bool _wasCalled)\r\n    {\r\n        return wasFunctionCalledWithArgs(\"pause\", keccak256(0));\r\n    }\r\n\r\n    function _getOwner(uint _tokenId)\r\n        private\r\n        view\r\n        returns (address _owner)\r\n    {\r\n        return address(getMockReturnValue(\"ownerOf\", keccak256(_tokenId)));\r\n    }\r\n\r\n    function getFunctionList()\r\n        internal\r\n        returns (string[10] functionNames)\r\n    {\r\n        return [\"create\", \"ownerOf\", \"transfer\", \"exists\", \"addAuthorizedMintAgent\", \"pause\", \"\", \"\", \"\", \"\"];\r\n    }\r\n}\r\n",
  "sourcePath": "/mnt/c/Users/devan/fixer/check-dharma/contracts/test/mocks/MockDebtToken.sol",
  "compiler": {
    "name": "solc",
    "version": "0.4.18+commit.9cf6e910.Emscripten.clang"
  },
  "schemaVersion": "1.0.1",
  "updatedAt": "2018-11-27T07:48:41.647Z"
}