{
  "contractName": "MockERC721Receiver",
  "abi": [
    {
      "constant": true,
      "inputs": [
        {
          "name": "functionName",
          "type": "string"
        },
        {
          "name": "argsSignature",
          "type": "bytes32"
        }
      ],
      "name": "getMockReturnValue",
      "outputs": [
        {
          "name": "_mockReturnValue",
          "type": "bytes32"
        }
      ],
      "payable": false,
      "stateMutability": "view",
      "type": "function"
    },
    {
      "constant": false,
      "inputs": [
        {
          "name": "_returnValue",
          "type": "bytes4"
        }
      ],
      "name": "setReturnValueForERC721ReceivedHook",
      "outputs": [],
      "payable": false,
      "stateMutability": "nonpayable",
      "type": "function"
    },
    {
      "constant": false,
      "inputs": [
        {
          "name": "_shouldRevert",
          "type": "bool"
        }
      ],
      "name": "setShouldRevert",
      "outputs": [],
      "payable": false,
      "stateMutability": "nonpayable",
      "type": "function"
    },
    {
      "constant": false,
      "inputs": [
        {
          "name": "functionName",
          "type": "string"
        },
        {
          "name": "argsSignature",
          "type": "bytes32"
        },
        {
          "name": "returnValue",
          "type": "bytes32"
        }
      ],
      "name": "mockReturnValue",
      "outputs": [],
      "payable": false,
      "stateMutability": "nonpayable",
      "type": "function"
    },
    {
      "constant": true,
      "inputs": [
        {
          "name": "_address",
          "type": "address"
        },
        {
          "name": "_tokenId",
          "type": "uint256"
        },
        {
          "name": "_data",
          "type": "bytes"
        }
      ],
      "name": "wasOnERC721ReceivedCalledWith",
      "outputs": [
        {
          "name": "wasCalled",
          "type": "bool"
        }
      ],
      "payable": false,
      "stateMutability": "view",
      "type": "function"
    },
    {
      "constant": false,
      "inputs": [],
      "name": "reset",
      "outputs": [],
      "payable": false,
      "stateMutability": "nonpayable",
      "type": "function"
    },
    {
      "constant": false,
      "inputs": [
        {
          "name": "_address",
          "type": "address"
        },
        {
          "name": "_tokenId",
          "type": "uint256"
        },
        {
          "name": "_data",
          "type": "bytes"
        }
      ],
      "name": "onERC721Received",
      "outputs": [
        {
          "name": "",
          "type": "bytes4"
        }
      ],
      "payable": false,
      "stateMutability": "nonpayable",
      "type": "function"
    }
  ],
  "bytecode": "0x60606040526000600360006101000a81548160ff02191690831515021790555063f0b9e5ba7c010000000000000000000000000000000000000000000000000000000002600360016101000a81548163ffffffff02191690837c010000000000000000000000000000000000000000000000000000000090040217905550341561008857600080fd5b610ed9806100976000396000f300606060405260043610610083576000357c0100000000000000000000000000000000000000000000000000000000900463ffffffff16806313101858146100885780632c0e70a21461010e5780636813d7871461015057806380da20d414610175578063a3e28911146101ec578063d826f88f14610289578063f0b9e5ba1461029e575b600080fd5b341561009357600080fd5b6100f0600480803590602001908201803590602001908080601f0160208091040260200160405190810160405280939291908181526020018383808284378201915050505050509190803560001916906020019091905050610375565b60405180826000191660001916815260200191505060405180910390f35b341561011957600080fd5b61014e60048080357bffffffffffffffffffffffffffffffffffffffffffffffffffffffff1916906020019091905050610404565b005b341561015b57600080fd5b61017360048080351515906020019091905050610442565b005b341561018057600080fd5b6101ea600480803590602001908201803590602001908080601f01602080910402602001604051908101604052809392919081815260200183838082843782019150505050505091908035600019169060200190919080356000191690602001909190505061045f565b005b34156101f757600080fd5b61026f600480803573ffffffffffffffffffffffffffffffffffffffff1690602001909190803590602001909190803590602001908201803590602001908080601f01602080910402602001604051908101604052809392919081815260200183838082843782019150505050505091905050610589565b604051808215151515815260200191505060405180910390f35b341561029457600080fd5b61029c610680565b005b34156102a957600080fd5b610321600480803573ffffffffffffffffffffffffffffffffffffffff1690602001909190803590602001909190803590602001908201803590602001908080601f016020809104026020016040519081016040528093929190818152602001838380828437820191505050505050919050506106c0565b60405180827bffffffffffffffffffffffffffffffffffffffffffffffffffffffff19167bffffffffffffffffffffffffffffffffffffffffffffffffffffffff1916815260200191505060405180910390f35b60006001836040518082805190602001908083835b6020831015156103af578051825260208201915060208101905060208303925061038a565b6001836020036101000a03801982511681845116808217855250505050505090500191505090815260200160405180910390206000836000191660001916815260200190815260200160002054905092915050565b80600360016101000a81548163ffffffff02191690837c01000000000000000000000000000000000000000000000000000000009004021790555050565b80600360006101000a81548160ff02191690831515021790555050565b6000836040518082805190602001908083835b6020831015156104975780518252602082019150602081019050602083039250610472565b6001836020036101000a038019825116818451168082178552505050505050905001915050908152602001604051809103902080548060010182816104dc9190610de4565b916000526020600020900160008490919091509060001916905550806001846040518082805190602001908083835b602083101515610530578051825260208201915060208101905060208303925061050b565b6001836020036101000a0380198251168184511680821785525050505050509050019150509081526020016040518091039020600084600019166000191681526020019081526020016000208160001916905550505050565b60006106776040805190810160405280601081526020017f6f6e455243373231526563656976656400000000000000000000000000000000815250858585604051808473ffffffffffffffffffffffffffffffffffffffff1673ffffffffffffffffffffffffffffffffffffffff166c0100000000000000000000000002815260140183815260200182805190602001908083835b602083101515610643578051825260208201915060208101905060208303925061061e565b6001836020036101000a038019825116818451168082178552505050505050905001935050505060405180910390206107ff565b90509392505050565b61068a6000610442565b6106b663f0b9e5ba7c010000000000000000000000000000000000000000000000000000000002610404565b6106be61089b565b565b6000600360009054906101000a900460ff161515156106de57600080fd5b6107ca6040805190810160405280601081526020017f6f6e455243373231526563656976656400000000000000000000000000000000815250858585604051808473ffffffffffffffffffffffffffffffffffffffff1673ffffffffffffffffffffffffffffffffffffffff166c0100000000000000000000000002815260140183815260200182805190602001908083835b6020831015156107965780518252602082019150602081019050602083039250610771565b6001836020036101000a03801982511681845116808217855250505050505090500193505050506040518091039020610b92565b600360019054906101000a90047c01000000000000000000000000000000000000000000000000000000000290509392505050565b60006002836040518082805190602001908083835b6020831015156108395780518252602082019150602081019050602083039250610814565b6001836020036101000a03801982511681845116808217855250505050505090500191505090815260200160405180910390206000836000191660001916815260200190815260200160002060009054906101000a900460ff16905092915050565b60006108a5610e10565b600080600093505b600a841015610b8c576108be610ccb565b84600a811015156108cb57fe5b6020020151925060008351141515610b7f57600091505b6000836040518082805190602001908083835b60208310151561091a57805182526020820191506020810190506020830392506108f5565b6001836020036101000a038019825116818451168082178552505050505050905001915050908152602001604051809103902080549050821015610b07576000836040518082805190602001908083835b602083101515610990578051825260208201915060208101905060208303925061096b565b6001836020036101000a0380198251168184511680821785525050505050509050019150509081526020016040518091039020828154811015156109d057fe5b90600052602060002090015490506002836040518082805190602001908083835b602083101515610a1657805182526020820191506020810190506020830392506109f1565b6001836020036101000a03801982511681845116808217855250505050505090500191505090815260200160405180910390206000826000191660001916815260200190815260200160002060006101000a81549060ff02191690556001836040518082805190602001908083835b602083101515610aaa5780518252602082019150602081019050602083039250610a85565b6001836020036101000a0380198251168184511680821785525050505050509050019150509081526020016040518091039020600082600019166000191681526020019081526020016000206000905581806001019250506108e2565b6000836040518082805190602001908083835b602083101515610b3f5780518252602082019150602081019050602083039250610b1a565b6001836020036101000a03801982511681845116808217855250505050505090500191505090815260200160405180910390206000610b7e9190610e24565b5b83806001019450506108ad565b50505050565b60016002836040518082805190602001908083835b602083101515610bcc5780518252602082019150602081019050602083039250610ba7565b6001836020036101000a03801982511681845116808217855250505050505090500191505090815260200160405180910390206000836000191660001916815260200190815260200160002060006101000a81548160ff0219169083151502179055506000826040518082805190602001908083835b602083101515610c675780518252602082019150602081019050602083039250610c42565b6001836020036101000a03801982511681845116808217855250505050505090500191505090815260200160405180910390208054806001018281610cac9190610de4565b9160005260206000209001600083909190915090600019169055505050565b610cd3610e45565b610140604051908101604052806040805190810160405280601081526020017f6f6e455243373231526563656976656400000000000000000000000000000000815250815260200160206040519081016040528060008152508152602001602060405190810160405280600081525081526020016020604051908101604052806000815250815260200160206040519081016040528060008152508152602001602060405190810160405280600081525081526020016020604051908101604052806000815250815260200160206040519081016040528060008152508152602001602060405190810160405280600081525081526020016020604051908101604052806000815250815250905090565b815481835581811511610e0b57818360005260206000209182019101610e0a9190610e74565b5b505050565b602060405190810160405280600081525090565b5080546000825590600052602060002090810190610e429190610e74565b50565b61014060405190810160405280600a905b610e5e610e99565b815260200190600190039081610e565790505090565b610e9691905b80821115610e92576000816000905550600101610e7a565b5090565b90565b6020604051908101604052806000815250905600a165627a7a72305820da3c660a6c862969e530aea0573ef8fdd9bf93beb8ed7cce4de0b9dc9505d6d80029",
  "source": "/*\r\n\r\n  Copyright 2017 Dharma Labs Inc.\r\n\r\n  Licensed under the Apache License, Version 2.0 (the \"License\");\r\n  you may not use this file except in compliance with the License.\r\n  You may obtain a copy of the License at\r\n\r\n    http://www.apache.org/licenses/LICENSE-2.0\r\n\r\n  Unless required by applicable law or agreed to in writing, software\r\n  distributed under the License is distributed on an \"AS IS\" BASIS,\r\n  WITHOUT WARRANTIES OR CONDITIONS OF ANY KIND, either express or implied.\r\n  See the License for the specific language governing permissions and\r\n  limitations under the License.\r\n\r\n*/\r\n\r\npragma solidity 0.4.18;\r\n\r\nimport \"./MockContract.sol\";\r\nimport \"zeppelin-solidity/contracts/token/ERC721/ERC721Receiver.sol\";\r\n\r\ncontract MockERC721Receiver is ERC721Receiver, MockContract {\r\n\r\n    // Internal state controllable via setters.\r\n    bool internal shouldRevert = false;\r\n    bytes4 internal returnValue = ERC721_RECEIVED;\r\n\r\n    function setShouldRevert(bool _shouldRevert) public {\r\n        shouldRevert = _shouldRevert;\r\n    }\r\n\r\n    function setReturnValueForERC721ReceivedHook(bytes4 _returnValue) public {\r\n        returnValue = _returnValue;\r\n    }\r\n\r\n    function reset() public {\r\n        setShouldRevert(false);\r\n        setReturnValueForERC721ReceivedHook(ERC721_RECEIVED);\r\n        super.reset();\r\n    }\r\n\r\n    function onERC721Received(address _address, uint256 _tokenId, bytes _data)\r\n        public\r\n        returns (bytes4)\r\n    {\r\n        require(!shouldRevert);\r\n\r\n        functionCalledWithArgs(\"onERC721Received\", keccak256(\r\n            _address,\r\n            _tokenId,\r\n            _data\r\n        ));\r\n\r\n        return returnValue;\r\n    }\r\n\r\n    function wasOnERC721ReceivedCalledWith(\r\n        address _address,\r\n        uint256 _tokenId,\r\n        bytes _data\r\n    )\r\n        public\r\n        view\r\n        returns (bool wasCalled)\r\n    {\r\n        return wasFunctionCalledWithArgs(\"onERC721Received\", keccak256(\r\n            _address,\r\n            _tokenId,\r\n            _data\r\n        ));\r\n    }\r\n\r\n    function getFunctionList()\r\n        internal\r\n    returns (string[10] functionNames)\r\n    {\r\n        return [\"onERC721Received\", \"\", \"\", \"\", \"\", \"\", \"\", \"\", \"\", \"\"];\r\n    }\r\n}\r\n",
  "sourcePath": "/mnt/c/Users/devan/fixer/check-dharma/contracts/test/mocks/MockERC721Receiver.sol",
  "compiler": {
    "name": "solc",
    "version": "0.4.18+commit.9cf6e910.Emscripten.clang"
  },
  "schemaVersion": "1.0.1",
  "updatedAt": "2018-11-27T07:48:41.624Z"
}