{
  "contractName": "MockTermsContract",
  "abi": [
    {
      "constant": false,
      "inputs": [
        {
          "name": "success",
          "type": "bool"
        }
      ],
      "name": "mockRegisterRepaymentReturnValue",
      "outputs": [],
      "payable": false,
      "stateMutability": "nonpayable",
      "type": "function"
    },
    {
      "constant": true,
      "inputs": [
        {
          "name": "functionName",
          "type": "string"
        },
        {
          "name": "argsSignature",
          "type": "bytes32"
        }
      ],
      "name": "getMockReturnValue",
      "outputs": [
        {
          "name": "_mockReturnValue",
          "type": "bytes32"
        }
      ],
      "payable": false,
      "stateMutability": "view",
      "type": "function"
    },
    {
      "constant": true,
      "inputs": [
        {
          "name": "agreementId",
          "type": "bytes32"
        }
      ],
      "name": "getTermEndTimestamp",
      "outputs": [
        {
          "name": "",
          "type": "uint256"
        }
      ],
      "payable": false,
      "stateMutability": "view",
      "type": "function"
    },
    {
      "constant": false,
      "inputs": [
        {
          "name": "agreementId",
          "type": "bytes32"
        },
        {
          "name": "payer",
          "type": "address"
        },
        {
          "name": "beneficiary",
          "type": "address"
        },
        {
          "name": "unitsOfRepayment",
          "type": "uint256"
        },
        {
          "name": "tokenAddress",
          "type": "address"
        }
      ],
      "name": "registerRepayment",
      "outputs": [
        {
          "name": "_success",
          "type": "bool"
        }
      ],
      "payable": false,
      "stateMutability": "nonpayable",
      "type": "function"
    },
    {
      "constant": false,
      "inputs": [
        {
          "name": "agreementId",
          "type": "bytes32"
        },
        {
          "name": "debtor",
          "type": "address"
        },
        {
          "name": "success",
          "type": "bool"
        }
      ],
      "name": "mockRegisterTermStartReturnValue",
      "outputs": [],
      "payable": false,
      "stateMutability": "nonpayable",
      "type": "function"
    },
    {
      "constant": true,
      "inputs": [
        {
          "name": "agreementId",
          "type": "bytes32"
        },
        {
          "name": "payer",
          "type": "address"
        },
        {
          "name": "beneficiary",
          "type": "address"
        },
        {
          "name": "unitsOfRepayment",
          "type": "uint256"
        },
        {
          "name": "tokenAddress",
          "type": "address"
        }
      ],
      "name": "wasRegisterRepaymentCalledWith",
      "outputs": [
        {
          "name": "wasCalled",
          "type": "bool"
        }
      ],
      "payable": false,
      "stateMutability": "view",
      "type": "function"
    },
    {
      "constant": false,
      "inputs": [
        {
          "name": "functionName",
          "type": "string"
        },
        {
          "name": "argsSignature",
          "type": "bytes32"
        },
        {
          "name": "returnValue",
          "type": "bytes32"
        }
      ],
      "name": "mockReturnValue",
      "outputs": [],
      "payable": false,
      "stateMutability": "nonpayable",
      "type": "function"
    },
    {
      "constant": false,
      "inputs": [
        {
          "name": "agreementId",
          "type": "bytes32"
        },
        {
          "name": "debtor",
          "type": "address"
        }
      ],
      "name": "registerTermStart",
      "outputs": [
        {
          "name": "_registered",
          "type": "bool"
        }
      ],
      "payable": false,
      "stateMutability": "nonpayable",
      "type": "function"
    },
    {
      "constant": false,
      "inputs": [
        {
          "name": "agreementId",
          "type": "bytes32"
        },
        {
          "name": "timestamp",
          "type": "uint256"
        }
      ],
      "name": "mockTermEndTimestamp",
      "outputs": [],
      "payable": false,
      "stateMutability": "nonpayable",
      "type": "function"
    },
    {
      "constant": true,
      "inputs": [
        {
          "name": "agreementId",
          "type": "bytes32"
        },
        {
          "name": "debtor",
          "type": "address"
        }
      ],
      "name": "wasRegisterTermStartCalledWith",
      "outputs": [
        {
          "name": "_wasCalled",
          "type": "bool"
        }
      ],
      "payable": false,
      "stateMutability": "view",
      "type": "function"
    },
    {
      "constant": false,
      "inputs": [],
      "name": "reset",
      "outputs": [],
      "payable": false,
      "stateMutability": "nonpayable",
      "type": "function"
    }
  ],
  "bytecode": "0x6060604052341561000f57600080fd5b6113828061001e6000396000f3006060604052600436106100af576000357c0100000000000000000000000000000000000000000000000000000000900463ffffffff16806304aa85fa146100b457806313101858146100d95780632762dd8c1461015f5780635f0280ba1461019a57806360a068611461023f5780637f8601a11461029057806380da20d414610335578063977a5e64146103ac578063b433022f1461040a578063c45d83ef1461043a578063d826f88f14610498575b600080fd5b34156100bf57600080fd5b6100d7600480803515159060200190919050506104ad565b005b34156100e457600080fd5b610141600480803590602001908201803590602001908080601f0160208091040260200160405190810160405280939291908181526020018383808284378201915050505050509190803560001916906020019091905050610507565b60405180826000191660001916815260200191505060405180910390f35b341561016a57600080fd5b610184600480803560001916906020019091905050610596565b6040518082815260200191505060405180910390f35b34156101a557600080fd5b61022560048080356000191690602001909190803573ffffffffffffffffffffffffffffffffffffffff1690602001909190803573ffffffffffffffffffffffffffffffffffffffff1690602001909190803590602001909190803573ffffffffffffffffffffffffffffffffffffffff169060200190919050506105bb565b604051808215151515815260200191505060405180910390f35b341561024a57600080fd5b61028e60048080356000191690602001909190803573ffffffffffffffffffffffffffffffffffffffff169060200190919080351515906020019091905050610745565b005b341561029b57600080fd5b61031b60048080356000191690602001909190803573ffffffffffffffffffffffffffffffffffffffff1690602001909190803573ffffffffffffffffffffffffffffffffffffffff1690602001909190803590602001909190803573ffffffffffffffffffffffffffffffffffffffff169060200190919050506107fd565b604051808215151515815260200191505060405180910390f35b341561034057600080fd5b6103aa600480803590602001908201803590602001908080601f016020809104026020016040519081016040528093929190818152602001838380828437820191505050505050919080356000191690602001909190803560001916906020019091905050610937565b005b34156103b757600080fd5b6103f060048080356000191690602001909190803573ffffffffffffffffffffffffffffffffffffffff16906020019091905050610a61565b604051808215151515815260200191505060405180910390f35b341561041557600080fd5b610438600480803560001916906020019091908035906020019091905050610bb6565b005b341561044557600080fd5b61047e60048080356000191690602001909190803573ffffffffffffffffffffffffffffffffffffffff16906020019091905050610bda565b604051808215151515815260200191505060405180910390f35b34156104a357600080fd5b6104ab610c83565b005b6105046040805190810160405280601181526020017f726567697374657252657061796d656e740000000000000000000000000000008152506000600102836104fa5760006001026104ff565b600180025b610937565b50565b60006001836040518082805190602001908083835b602083101515610541578051825260208201915060208101905060208303925061051c565b6001836020036101000a03801982511681845116808217855250505050505090500191505090815260200160405180910390206000836000191660001916815260200190815260200160002054905092915050565b6000600360008360001916600019168152602001908152602001600020549050919050565b60006106ea6040805190810160405280601181526020017f726567697374657252657061796d656e7400000000000000000000000000000081525087878787876040518086600019166000191681526020018573ffffffffffffffffffffffffffffffffffffffff1673ffffffffffffffffffffffffffffffffffffffff166c010000000000000000000000000281526014018473ffffffffffffffffffffffffffffffffffffffff1673ffffffffffffffffffffffffffffffffffffffff166c010000000000000000000000000281526014018381526020018273ffffffffffffffffffffffffffffffffffffffff1673ffffffffffffffffffffffffffffffffffffffff166c01000000000000000000000000028152601401955050505050506040518091039020610f7a565b60018002600019166107356040805190810160405280601181526020017f726567697374657252657061796d656e740000000000000000000000000000008152506000600102610507565b6000191614905095945050505050565b6107f86040805190810160405280601181526020017f72656769737465725465726d537461727400000000000000000000000000000081525084846040518083600019166000191681526020018273ffffffffffffffffffffffffffffffffffffffff1673ffffffffffffffffffffffffffffffffffffffff166c01000000000000000000000000028152601401925050506040518091039020836107ee5760006001026107f3565b600180025b610937565b505050565b600061092c6040805190810160405280601181526020017f726567697374657252657061796d656e7400000000000000000000000000000081525087878787876040518086600019166000191681526020018573ffffffffffffffffffffffffffffffffffffffff1673ffffffffffffffffffffffffffffffffffffffff166c010000000000000000000000000281526014018473ffffffffffffffffffffffffffffffffffffffff1673ffffffffffffffffffffffffffffffffffffffff166c010000000000000000000000000281526014018381526020018273ffffffffffffffffffffffffffffffffffffffff1673ffffffffffffffffffffffffffffffffffffffff166c010000000000000000000000000281526014019550505050505060405180910390206110b3565b905095945050505050565b6000836040518082805190602001908083835b60208310151561096f578051825260208201915060208101905060208303925061094a565b6001836020036101000a038019825116818451168082178552505050505050905001915050908152602001604051809103902080548060010182816109b4919061128d565b916000526020600020900160008490919091509060001916905550806001846040518082805190602001908083835b602083101515610a0857805182526020820191506020810190506020830392506109e3565b6001836020036101000a0380198251168184511680821785525050505050509050019150509081526020016040518091039020600084600019166000191681526020019081526020016000208160001916905550505050565b6000610b026040805190810160405280601181526020017f72656769737465725465726d537461727400000000000000000000000000000081525084846040518083600019166000191681526020018273ffffffffffffffffffffffffffffffffffffffff1673ffffffffffffffffffffffffffffffffffffffff166c01000000000000000000000000028152601401925050506040518091039020610f7a565b6001800260001916610ba96040805190810160405280601181526020017f72656769737465725465726d537461727400000000000000000000000000000081525085856040518083600019166000191681526020018273ffffffffffffffffffffffffffffffffffffffff1673ffffffffffffffffffffffffffffffffffffffff166c01000000000000000000000000028152601401925050506040518091039020610507565b6000191614905092915050565b80600360008460001916600019168152602001908152602001600020819055505050565b6000610c7b6040805190810160405280601181526020017f72656769737465725465726d537461727400000000000000000000000000000081525084846040518083600019166000191681526020018273ffffffffffffffffffffffffffffffffffffffff1673ffffffffffffffffffffffffffffffffffffffff166c010000000000000000000000000281526014019250505060405180910390206110b3565b905092915050565b6000610c8d6112b9565b600080600093505b600a841015610f7457610ca661114f565b84600a81101515610cb357fe5b6020020151925060008351141515610f6757600091505b6000836040518082805190602001908083835b602083101515610d025780518252602082019150602081019050602083039250610cdd565b6001836020036101000a038019825116818451168082178552505050505050905001915050908152602001604051809103902080549050821015610eef576000836040518082805190602001908083835b602083101515610d785780518252602082019150602081019050602083039250610d53565b6001836020036101000a038019825116818451168082178552505050505050905001915050908152602001604051809103902082815481101515610db857fe5b90600052602060002090015490506002836040518082805190602001908083835b602083101515610dfe5780518252602082019150602081019050602083039250610dd9565b6001836020036101000a03801982511681845116808217855250505050505090500191505090815260200160405180910390206000826000191660001916815260200190815260200160002060006101000a81549060ff02191690556001836040518082805190602001908083835b602083101515610e925780518252602082019150602081019050602083039250610e6d565b6001836020036101000a038019825116818451168082178552505050505050905001915050908152602001604051809103902060008260001916600019168152602001908152602001600020600090558180600101925050610cca565b6000836040518082805190602001908083835b602083101515610f275780518252602082019150602081019050602083039250610f02565b6001836020036101000a03801982511681845116808217855250505050505090500191505090815260200160405180910390206000610f6691906112cd565b5b8380600101945050610c95565b50505050565b60016002836040518082805190602001908083835b602083101515610fb45780518252602082019150602081019050602083039250610f8f565b6001836020036101000a03801982511681845116808217855250505050505090500191505090815260200160405180910390206000836000191660001916815260200190815260200160002060006101000a81548160ff0219169083151502179055506000826040518082805190602001908083835b60208310151561104f578051825260208201915060208101905060208303925061102a565b6001836020036101000a03801982511681845116808217855250505050505090500191505090815260200160405180910390208054806001018281611094919061128d565b9160005260206000209001600083909190915090600019169055505050565b60006002836040518082805190602001908083835b6020831015156110ed57805182526020820191506020810190506020830392506110c8565b6001836020036101000a03801982511681845116808217855250505050505090500191505090815260200160405180910390206000836000191660001916815260200190815260200160002060009054906101000a900460ff16905092915050565b6111576112ee565b610140604051908101604052806040805190810160405280601181526020017f726567697374657252657061796d656e7400000000000000000000000000000081525081526020016040805190810160405280601181526020017f72656769737465725465726d53746172740000000000000000000000000000008152508152602001602060405190810160405280600081525081526020016020604051908101604052806000815250815260200160206040519081016040528060008152508152602001602060405190810160405280600081525081526020016020604051908101604052806000815250815260200160206040519081016040528060008152508152602001602060405190810160405280600081525081526020016020604051908101604052806000815250815250905090565b8154818355818115116112b4578183600052602060002091820191016112b3919061131d565b5b505050565b602060405190810160405280600081525090565b50805460008255906000526020600020908101906112eb919061131d565b50565b61014060405190810160405280600a905b611307611342565b8152602001906001900390816112ff5790505090565b61133f91905b8082111561133b576000816000905550600101611323565b5090565b90565b6020604051908101604052806000815250905600a165627a7a7230582006a65d0ab551891681d678372726dc16de0e21830987adaa803c043021e3a32f0029",
  "source": "/*\r\n\r\n  Copyright 2017 Dharma Labs Inc.\r\n\r\n  Licensed under the Apache License, Version 2.0 (the \"License\");\r\n  you may not use this file except in compliance with the License.\r\n  You may obtain a copy of the License at\r\n\r\n    http://www.apache.org/licenses/LICENSE-2.0\r\n\r\n  Unless required by applicable law or agreed to in writing, software\r\n  distributed under the License is distributed on an \"AS IS\" BASIS,\r\n  WITHOUT WARRANTIES OR CONDITIONS OF ANY KIND, either express or implied.\r\n  See the License for the specific language governing permissions and\r\n  limitations under the License.\r\n\r\n*/\r\n\r\npragma solidity 0.4.18;\r\n\r\nimport \"./MockContract.sol\";\r\n\r\n\r\ncontract MockTermsContract is MockContract {\r\n    // Maps from agreementId's to the mocked term end timestamp\r\n    mapping (bytes32 => uint) internal termEndTimestamp;\r\n\r\n    function registerRepayment(\r\n        bytes32 agreementId,\r\n        address payer,\r\n        address beneficiary,\r\n        uint unitsOfRepayment,\r\n        address tokenAddress\r\n    )\r\n        public\r\n        returns (bool _success)\r\n    {\r\n        functionCalledWithArgs(\"registerRepayment\", keccak256(\r\n            agreementId,\r\n            payer,\r\n            beneficiary,\r\n            unitsOfRepayment,\r\n            tokenAddress\r\n        ));\r\n\r\n        return getMockReturnValue(\"registerRepayment\", DEFAULT_SIGNATURE_ARGS) == bytes32(1);\r\n    }\r\n\r\n    function mockRegisterRepaymentReturnValue(bool success)\r\n        public\r\n    {\r\n        mockReturnValue(\"registerRepayment\", DEFAULT_SIGNATURE_ARGS, success ? bytes32(1) : bytes32(0));\r\n    }\r\n\r\n    function mockTermEndTimestamp(\r\n        bytes32 agreementId,\r\n        uint timestamp\r\n    ) public {\r\n        termEndTimestamp[agreementId] = timestamp;\r\n    }\r\n\r\n    function wasRegisterRepaymentCalledWith(\r\n        bytes32 agreementId,\r\n        address payer,\r\n        address beneficiary,\r\n        uint unitsOfRepayment,\r\n        address tokenAddress\r\n    )\r\n        public\r\n        view\r\n        returns (bool wasCalled)\r\n    {\r\n        return wasFunctionCalledWithArgs(\"registerRepayment\", keccak256(\r\n            agreementId,\r\n            payer,\r\n            beneficiary,\r\n            unitsOfRepayment,\r\n            tokenAddress\r\n        ));\r\n    }\r\n\r\n    function registerTermStart(\r\n        bytes32 agreementId,\r\n        address debtor\r\n    )\r\n        public\r\n        returns (bool _registered)\r\n    {\r\n        functionCalledWithArgs(\"registerTermStart\", keccak256(agreementId, debtor));\r\n\r\n        return getMockReturnValue(\r\n            \"registerTermStart\",\r\n            keccak256(agreementId, debtor)\r\n        ) == bytes32(1);\r\n    }\r\n\r\n    function mockRegisterTermStartReturnValue(bytes32 agreementId, address debtor, bool success)\r\n        public\r\n    {\r\n        mockReturnValue(\r\n            \"registerTermStart\",\r\n            keccak256(agreementId, debtor),\r\n            success ? bytes32(1) : bytes32(0)\r\n        );\r\n    }\r\n\r\n    function getTermEndTimestamp(\r\n        bytes32 agreementId\r\n    ) public view returns (uint256) {\r\n        return termEndTimestamp[agreementId];\r\n    }\r\n\r\n    function wasRegisterTermStartCalledWith(bytes32 agreementId, address debtor)\r\n        public\r\n        view\r\n        returns (bool _wasCalled)\r\n    {\r\n        return wasFunctionCalledWithArgs(\"registerTermStart\", keccak256(agreementId, debtor));\r\n    }\r\n\r\n    function getFunctionList()\r\n        internal\r\n        returns (string[10] functionNames)\r\n    {\r\n        return [\"registerRepayment\", \"registerTermStart\", \"\", \"\", \"\", \"\", \"\", \"\", \"\", \"\"];\r\n    }\r\n}\r\n",
  "sourcePath": "/mnt/c/Users/devan/fixer/check-dharma/contracts/test/mocks/MockTermsContract.sol",
  "compiler": {
    "name": "solc",
    "version": "0.4.18+commit.9cf6e910.Emscripten.clang"
  },
  "schemaVersion": "1.0.1",
  "updatedAt": "2018-11-27T07:48:41.637Z"
}