{
  "contractName": "CDO",
  "abi": [
    {
      "constant": true,
      "inputs": [],
      "name": "trackOutstandingDebts",
      "outputs": [
        {
          "name": "",
          "type": "uint256"
        }
      ],
      "payable": false,
      "stateMutability": "view",
      "type": "function"
    },
    {
      "constant": true,
      "inputs": [
        {
          "name": "trancheLevel",
          "type": "uint256"
        },
        {
          "name": "index",
          "type": "uint256"
        }
      ],
      "name": "getTokenID",
      "outputs": [
        {
          "name": "tokenID",
          "type": "bytes32"
        }
      ],
      "payable": false,
      "stateMutability": "view",
      "type": "function"
    },
    {
      "constant": true,
      "inputs": [],
      "name": "principalAmount",
      "outputs": [
        {
          "name": "",
          "type": "uint256"
        }
      ],
      "payable": false,
      "stateMutability": "view",
      "type": "function"
    },
    {
      "constant": false,
      "inputs": [
        {
          "name": "_tokenID",
          "type": "bytes32"
        },
        {
          "name": "_to",
          "type": "address"
        }
      ],
      "name": "withdraw",
      "outputs": [],
      "payable": false,
      "stateMutability": "nonpayable",
      "type": "function"
    },
    {
      "constant": true,
      "inputs": [],
      "name": "getTotalIssuances",
      "outputs": [
        {
          "name": "issuances",
          "type": "uint256"
        }
      ],
      "payable": false,
      "stateMutability": "view",
      "type": "function"
    },
    {
      "constant": true,
      "inputs": [],
      "name": "isActive",
      "outputs": [
        {
          "name": "",
          "type": "bool"
        }
      ],
      "payable": false,
      "stateMutability": "view",
      "type": "function"
    },
    {
      "constant": false,
      "inputs": [
        {
          "name": "trancheTokenAddress",
          "type": "address"
        }
      ],
      "name": "setTrancheTokenContract",
      "outputs": [],
      "payable": false,
      "stateMutability": "nonpayable",
      "type": "function"
    },
    {
      "constant": true,
      "inputs": [],
      "name": "trancheToken",
      "outputs": [
        {
          "name": "",
          "type": "address"
        }
      ],
      "payable": false,
      "stateMutability": "view",
      "type": "function"
    },
    {
      "constant": true,
      "inputs": [
        {
          "name": "",
          "type": "uint256"
        }
      ],
      "name": "debtInstruments",
      "outputs": [
        {
          "name": "",
          "type": "bytes32"
        }
      ],
      "payable": false,
      "stateMutability": "view",
      "type": "function"
    },
    {
      "constant": true,
      "inputs": [],
      "name": "numberOfTranches",
      "outputs": [
        {
          "name": "",
          "type": "uint256"
        }
      ],
      "payable": false,
      "stateMutability": "view",
      "type": "function"
    },
    {
      "constant": true,
      "inputs": [
        {
          "name": "trancheLevel",
          "type": "uint256"
        }
      ],
      "name": "getTrancheOutstanding",
      "outputs": [
        {
          "name": "outstandingValue",
          "type": "uint256"
        }
      ],
      "payable": false,
      "stateMutability": "view",
      "type": "function"
    },
    {
      "constant": true,
      "inputs": [
        {
          "name": "tokenID",
          "type": "bytes32"
        }
      ],
      "name": "getTokenBalance",
      "outputs": [
        {
          "name": "availableBalance",
          "type": "uint256"
        }
      ],
      "payable": false,
      "stateMutability": "view",
      "type": "function"
    },
    {
      "constant": true,
      "inputs": [],
      "name": "owner",
      "outputs": [
        {
          "name": "",
          "type": "address"
        }
      ],
      "payable": false,
      "stateMutability": "view",
      "type": "function"
    },
    {
      "constant": true,
      "inputs": [],
      "name": "lastBalance",
      "outputs": [
        {
          "name": "",
          "type": "uint256"
        }
      ],
      "payable": false,
      "stateMutability": "view",
      "type": "function"
    },
    {
      "constant": true,
      "inputs": [],
      "name": "repaymentObligation",
      "outputs": [
        {
          "name": "",
          "type": "uint256"
        }
      ],
      "payable": false,
      "stateMutability": "view",
      "type": "function"
    },
    {
      "constant": true,
      "inputs": [],
      "name": "pricePerShare",
      "outputs": [
        {
          "name": "",
          "type": "uint256"
        }
      ],
      "payable": false,
      "stateMutability": "view",
      "type": "function"
    },
    {
      "constant": true,
      "inputs": [],
      "name": "contractRegistry",
      "outputs": [
        {
          "name": "",
          "type": "address"
        }
      ],
      "payable": false,
      "stateMutability": "view",
      "type": "function"
    },
    {
      "constant": false,
      "inputs": [
        {
          "name": "orderValue",
          "type": "uint256"
        },
        {
          "name": "trancheLevel",
          "type": "uint256"
        }
      ],
      "name": "claimShares",
      "outputs": [],
      "payable": false,
      "stateMutability": "nonpayable",
      "type": "function"
    },
    {
      "constant": false,
      "inputs": [
        {
          "name": "trancheLevel",
          "type": "uint256"
        }
      ],
      "name": "purchaseShares",
      "outputs": [],
      "payable": true,
      "stateMutability": "payable",
      "type": "function"
    },
    {
      "constant": true,
      "inputs": [],
      "name": "EXTERNAL_QUERY_GAS_LIMIT",
      "outputs": [
        {
          "name": "",
          "type": "uint16"
        }
      ],
      "payable": false,
      "stateMutability": "view",
      "type": "function"
    },
    {
      "constant": false,
      "inputs": [
        {
          "name": "_from",
          "type": "address"
        },
        {
          "name": "_tokenID",
          "type": "uint256"
        },
        {
          "name": "",
          "type": "bytes"
        }
      ],
      "name": "onERC721Received",
      "outputs": [
        {
          "name": "",
          "type": "bytes4"
        }
      ],
      "payable": false,
      "stateMutability": "nonpayable",
      "type": "function"
    },
    {
      "constant": false,
      "inputs": [
        {
          "name": "newOwner",
          "type": "address"
        }
      ],
      "name": "transferOwnership",
      "outputs": [],
      "payable": false,
      "stateMutability": "nonpayable",
      "type": "function"
    },
    {
      "constant": true,
      "inputs": [],
      "name": "debtsRepaymentObligation",
      "outputs": [
        {
          "name": "",
          "type": "uint256"
        }
      ],
      "payable": false,
      "stateMutability": "view",
      "type": "function"
    },
    {
      "inputs": [
        {
          "name": "contractRegistryContract",
          "type": "address"
        },
        {
          "name": "principalTokenAddress",
          "type": "address"
        },
        {
          "name": "trancheTokenAddress",
          "type": "address"
        },
        {
          "name": "trancheInterestRates",
          "type": "uint256[]"
        },
        {
          "name": "trancheIssuances",
          "type": "uint256[]"
        },
        {
          "name": "_principalAmount",
          "type": "uint256"
        },
        {
          "name": "numberOfDebts",
          "type": "uint256"
        },
        {
          "name": "totalIssuances",
          "type": "uint256"
        }
      ],
      "payable": false,
      "stateMutability": "nonpayable",
      "type": "constructor"
    },
    {
      "payable": true,
      "stateMutability": "payable",
      "type": "fallback"
    },
    {
      "anonymous": false,
      "inputs": [
        {
          "indexed": true,
          "name": "cdoAddress",
          "type": "address"
        },
        {
          "indexed": true,
          "name": "pricePerShare",
          "type": "uint256"
        },
        {
          "indexed": true,
          "name": "trancheInterestRates",
          "type": "uint256[]"
        },
        {
          "indexed": false,
          "name": "trancheIssuances",
          "type": "uint256[]"
        }
      ],
      "name": "LogCDOCreated",
      "type": "event"
    },
    {
      "anonymous": false,
      "inputs": [
        {
          "indexed": true,
          "name": "cdoAddress",
          "type": "address"
        },
        {
          "indexed": false,
          "name": "minted",
          "type": "uint256"
        },
        {
          "indexed": false,
          "name": "trancheLevel",
          "type": "uint256"
        }
      ],
      "name": "LogSharesPurchased",
      "type": "event"
    },
    {
      "anonymous": false,
      "inputs": [
        {
          "indexed": true,
          "name": "cdoAddress",
          "type": "address"
        },
        {
          "indexed": false,
          "name": "debtToken",
          "type": "bytes32"
        }
      ],
      "name": "LogDebtReceived",
      "type": "event"
    },
    {
      "anonymous": false,
      "inputs": [
        {
          "indexed": true,
          "name": "cdoAddress",
          "type": "address"
        }
      ],
      "name": "LogCDOActivated",
      "type": "event"
    },
    {
      "anonymous": false,
      "inputs": [
        {
          "indexed": true,
          "name": "previousOwner",
          "type": "address"
        },
        {
          "indexed": true,
          "name": "newOwner",
          "type": "address"
        }
      ],
      "name": "OwnershipTransferred",
      "type": "event"
    }
  ],
  "bytecode": "0x606060405234156200001057600080fd5b6040516200257a3803806200257a8339810160405280805190602001909190805190602001909190805190602001909190805182019190602001805182019190602001805190602001909190805190602001909190805190602001909190505060006200007c6200056a565b336000806101000a81548173ffffffffffffffffffffffffffffffffffffffff021916908373ffffffffffffffffffffffffffffffffffffffff16021790555089600160006101000a81548173ffffffffffffffffffffffffffffffffffffffff021916908373ffffffffffffffffffffffffffffffffffffffff16021790555088600260006101000a81548173ffffffffffffffffffffffffffffffffffffffff021916908373ffffffffffffffffffffffffffffffffffffffff16021790555087600360006101000a81548173ffffffffffffffffffffffffffffffffffffffff021916908373ffffffffffffffffffffffffffffffffffffffff1602179055508360098190555084600d819055508651600c81905550600091505b600c54821015620003185760c0604051908101604052806000604051805910620001c15750595b90808252806020026020018201604052508152602001600081526020018784815181101515620001ed57fe5b90602001906020020151815260200188848151811015156200020b57fe5b906020019060200201518152602001600081526020018381525090508060066000848152602001908152602001600020600082015181600001908051906020019062000259929190620005a9565b506020820151816001015560408201518160020155606082015181600301556080820151816004015560a0820151816005015590505062000304620002e48884815181101515620002a657fe5b906020019060200201518885815181101515620002bf57fe5b90602001906020020151866200042c6401000000000262001893176401000000009004565b600754620004f0640100000000026200185c179091906401000000009004565b60078190555081806001019250506200019a565b6200033d83600d546200050f6401000000000262001b86179091906401000000009004565b600b819055508660405180828051906020019060200280838360005b838110156200037657808201518184015260208101905062000359565b505050509050019150506040518091039020600b543073ffffffffffffffffffffffffffffffffffffffff167fabdbfcbfd6a67535eb53f739b52a25ed41ae94d1c0e4445c5e4a6c2cb295e619896040518080602001828103825283818151815260200191508051906020019060200280838360005b8381101562000409578082015181840152602081019050620003ec565b505050509050019250505060405180910390a4505050505050505050506200063d565b600080600062000478846200045b87600d546200052b6401000000000262001907179091906401000000009004565b6200050f6401000000000262001b86179091906401000000009004565b9150620004c06064620004a388856200052b6401000000000262001907179091906401000000009004565b6200050f6401000000000262001b86179091906401000000009004565b9050620004e58183620004f0640100000000026200185c179091906401000000009004565b925050509392505050565b60008082840190508381101515156200050557fe5b8091505092915050565b60008082848115156200051e57fe5b0490508091505092915050565b600080600084141562000542576000915062000563565b82840290508284828115156200055457fe5b041415156200055f57fe5b8091505b5092915050565b60c0604051908101604052806200058062000601565b815260200160008152602001600081526020016000815260200160008152602001600081525090565b828054828255906000526020600020908101928215620005ee579160200282015b82811115620005ed578251829060001916905591602001919060010190620005ca565b5b509050620005fd919062000615565b5090565b602060405190810160405280600081525090565b6200063a91905b80821115620006365760008160009055506001016200061c565b5090565b90565b611f2d806200064d6000396000f300606060405260043610610132576000357c0100000000000000000000000000000000000000000000000000000000900463ffffffff1680620a641b146101345780631490185c1461015d578063196e74a7146101a55780631b258d50146101ce5780631b72ad4a1461021457806322f3e2d41461023d5780632322188e1461026a578063258f07fc146102a35780632c6b77ad146102f857806331b8fa201461033757806381497b331461036057806388db6ac6146103975780638da5cb5b146103d25780638f1c56bd1461042757806390acd59a1461045057806399530b0614610479578063abf410e5146104a2578063c50aea06146104f7578063df48981a14610523578063f06bbf751461053b578063f0b9e5ba1461056c578063f2fde38b14610643578063ff99644c1461067c575b005b341561013f57600080fd5b6101476106a5565b6040518082815260200191505060405180910390f35b341561016857600080fd5b61018760048080359060200190919080359060200190919050506106ab565b60405180826000191660001916815260200191505060405180910390f35b34156101b057600080fd5b6101b86106e4565b6040518082815260200191505060405180910390f35b34156101d957600080fd5b61021260048080356000191690602001909190803573ffffffffffffffffffffffffffffffffffffffff169060200190919050506106ea565b005b341561021f57600080fd5b610227610bcb565b6040518082815260200191505060405180910390f35b341561024857600080fd5b610250610c1f565b604051808215151515815260200191505060405180910390f35b341561027557600080fd5b6102a1600480803573ffffffffffffffffffffffffffffffffffffffff16906020019091905050610c32565b005b34156102ae57600080fd5b6102b6610cd1565b604051808273ffffffffffffffffffffffffffffffffffffffff1673ffffffffffffffffffffffffffffffffffffffff16815260200191505060405180910390f35b341561030357600080fd5b6103196004808035906020019091905050610cf7565b60405180826000191660001916815260200191505060405180910390f35b341561034257600080fd5b61034a610d1b565b6040518082815260200191505060405180910390f35b341561036b57600080fd5b6103816004808035906020019091905050610d21565b6040518082815260200191505060405180910390f35b34156103a257600080fd5b6103bc600480803560001916906020019091905050610dc3565b6040518082815260200191505060405180910390f35b34156103dd57600080fd5b6103e56110a3565b604051808273ffffffffffffffffffffffffffffffffffffffff1673ffffffffffffffffffffffffffffffffffffffff16815260200191505060405180910390f35b341561043257600080fd5b61043a6110c8565b6040518082815260200191505060405180910390f35b341561045b57600080fd5b6104636110ce565b6040518082815260200191505060405180910390f35b341561048457600080fd5b61048c6110d4565b6040518082815260200191505060405180910390f35b34156104ad57600080fd5b6104b56110da565b604051808273ffffffffffffffffffffffffffffffffffffffff1673ffffffffffffffffffffffffffffffffffffffff16815260200191505060405180910390f35b341561050257600080fd5b6105216004808035906020019091908035906020019091905050611100565b005b610539600480803590602001909190505061127f565b005b341561054657600080fd5b61054e611403565b604051808261ffff1661ffff16815260200191505060405180910390f35b341561057757600080fd5b6105ef600480803573ffffffffffffffffffffffffffffffffffffffff1690602001909190803590602001909190803590602001908201803590602001908080601f01602080910402602001604051908101604052809392919081815260200183838082843782019150505050505091905050611409565b60405180827bffffffffffffffffffffffffffffffffffffffffffffffffffffffff19167bffffffffffffffffffffffffffffffffffffffffffffffffffffffff1916815260200191505060405180910390f35b341561064e57600080fd5b61067a600480803573ffffffffffffffffffffffffffffffffffffffff1690602001909190505061158f565b005b341561068757600080fd5b61068f6116e4565b6040518082815260200191505060405180910390f35b60095481565b600060066000848152602001908152602001600020600001828154811015156106d057fe5b906000526020600020900154905092915050565b600d5481565b6000803373ffffffffffffffffffffffffffffffffffffffff16600360009054906101000a900473ffffffffffffffffffffffffffffffffffffffff1673ffffffffffffffffffffffffffffffffffffffff16636352211e86600190046000604051602001526040518263ffffffff167c010000000000000000000000000000000000000000000000000000000002815260040180828152602001915050602060405180830381600087803b15156107a157600080fd5b6102c65a03f115156107b257600080fd5b5050506040518051905073ffffffffffffffffffffffffffffffffffffffff161415156107de57600080fd5b3073ffffffffffffffffffffffffffffffffffffffff16600360009054906101000a900473ffffffffffffffffffffffffffffffffffffffff1673ffffffffffffffffffffffffffffffffffffffff16637b1039996000604051602001526040518163ffffffff167c0100000000000000000000000000000000000000000000000000000000028152600401602060405180830381600087803b151561088357600080fd5b6102c65a03f1151561089457600080fd5b5050506040518051905073ffffffffffffffffffffffffffffffffffffffff1663ecb92dda866000604051602001526040518263ffffffff167c0100000000000000000000000000000000000000000000000000000000028152600401808260001916600019168152602001915050602060405180830381600087803b151561091c57600080fd5b6102c65a03f1151561092d57600080fd5b5050506040518051905073ffffffffffffffffffffffffffffffffffffffff1614151561095957600080fd5b600a54600260009054906101000a900473ffffffffffffffffffffffffffffffffffffffff1673ffffffffffffffffffffffffffffffffffffffff166370a08231611f4061ffff16306040518363ffffffff167c0100000000000000000000000000000000000000000000000000000000028152600401808273ffffffffffffffffffffffffffffffffffffffff1673ffffffffffffffffffffffffffffffffffffffff168152602001915050602060405180830381600088803b1515610a1f57600080fd5b87f11515610a2c57600080fd5b50505050604051805190501115610a4657610a456116ea565b5b610a4f84610dc3565b9150610a5961177a565b9050600082118015610a6b5750808211155b1515610a7657600080fd5b610aa4826005600087600019166000191681526020019081526020016000205461185c90919063ffffffff16565b60056000866000191660001916815260200190815260200160002081905550610ad6828261187a90919063ffffffff16565b600a81905550600260009054906101000a900473ffffffffffffffffffffffffffffffffffffffff1673ffffffffffffffffffffffffffffffffffffffff1663a9059cbb84846000604051602001526040518363ffffffff167c0100000000000000000000000000000000000000000000000000000000028152600401808373ffffffffffffffffffffffffffffffffffffffff1673ffffffffffffffffffffffffffffffffffffffff16815260200182815260200192505050602060405180830381600087803b1515610ba957600080fd5b6102c65a03f11515610bba57600080fd5b505050604051805190505050505050565b600080600090505b600c54811015610c1857610c0960066000838152602001908152602001600020600001805490508361185c90919063ffffffff16565b91508080600101915050610bd3565b8191505090565b600360149054906101000a900460ff1681565b6000809054906101000a900473ffffffffffffffffffffffffffffffffffffffff1673ffffffffffffffffffffffffffffffffffffffff163373ffffffffffffffffffffffffffffffffffffffff16141515610c8d57600080fd5b80600360006101000a81548173ffffffffffffffffffffffffffffffffffffffff021916908373ffffffffffffffffffffffffffffffffffffffff16021790555050565b600360009054906101000a900473ffffffffffffffffffffffffffffffffffffffff1681565b600481815481101515610d0657fe5b90600052602060002090016000915090505481565b600c5481565b6000806000610d6460066000868152602001908152602001600020600301546006600087815260200190815260200160002060020154610d5f610bcb565b611893565b9150610da56006600086815260200190815260200160002060020154600660008781526020019081526020016000206001015461190790919063ffffffff16565b9050610dba818361187a90919063ffffffff16565b92505050919050565b600080600360009054906101000a900473ffffffffffffffffffffffffffffffffffffffff1673ffffffffffffffffffffffffffffffffffffffff16637b1039996000604051602001526040518163ffffffff167c0100000000000000000000000000000000000000000000000000000000028152600401602060405180830381600087803b1515610e5457600080fd5b6102c65a03f11515610e6557600080fd5b5050506040518051905073ffffffffffffffffffffffffffffffffffffffff1663b1a96957846000604051602001526040518263ffffffff167c0100000000000000000000000000000000000000000000000000000000028152600401808260001916600019168152602001915050602060405180830381600087803b1515610eed57600080fd5b6102c65a03f11515610efe57600080fd5b505050604051805190501515610f1357600080fd5b600360009054906101000a900473ffffffffffffffffffffffffffffffffffffffff1673ffffffffffffffffffffffffffffffffffffffff16637b1039996000604051602001526040518163ffffffff167c0100000000000000000000000000000000000000000000000000000000028152600401602060405180830381600087803b1515610fa157600080fd5b6102c65a03f11515610fb257600080fd5b5050506040518051905073ffffffffffffffffffffffffffffffffffffffff16631608c614846000604051602001526040518263ffffffff167c0100000000000000000000000000000000000000000000000000000000028152600401808260001916600019168152602001915050602060405180830381600087803b151561103a57600080fd5b6102c65a03f1151561104b57600080fd5b50505060405180519050905061109b60056000856000191660001916815260200190815260200160002054600660008481526020019081526020016000206001015461187a90919063ffffffff16565b915050919050565b6000809054906101000a900473ffffffffffffffffffffffffffffffffffffffff1681565b600a5481565b60075481565b600b5481565b600160009054906101000a900473ffffffffffffffffffffffffffffffffffffffff1681565b6000600360149054906101000a900460ff16151561111d57600080fd5b6000809054906101000a900473ffffffffffffffffffffffffffffffffffffffff1673ffffffffffffffffffffffffffffffffffffffff163373ffffffffffffffffffffffffffffffffffffffff1614151561117857600080fd5b6111828383611942565b905073__CDOLib________________________________6396c10206838360066000878152602001908152602001600020600360009054906101000a900473ffffffffffffffffffffffffffffffffffffffff166040518563ffffffff167c0100000000000000000000000000000000000000000000000000000000028152600401808581526020018481526020018381526020018273ffffffffffffffffffffffffffffffffffffffff1673ffffffffffffffffffffffffffffffffffffffff16815260200194505050505060006040518083038186803b151561126657600080fd5b6102c65a03f4151561127757600080fd5b505050505050565b6000600360149054906101000a900460ff16151561129c57600080fd5b6112a63483611942565b905073__CDOLib________________________________6396c10206838360066000878152602001908152602001600020600360009054906101000a900473ffffffffffffffffffffffffffffffffffffffff166040518563ffffffff167c0100000000000000000000000000000000000000000000000000000000028152600401808581526020018481526020018381526020018273ffffffffffffffffffffffffffffffffffffffff1673ffffffffffffffffffffffffffffffffffffffff16815260200194505050505060006040518083038186803b151561138a57600080fd5b6102c65a03f4151561139b57600080fd5b5050506000809054906101000a900473ffffffffffffffffffffffffffffffffffffffff1673ffffffffffffffffffffffffffffffffffffffff166108fc349081150290604051600060405180830381858888f1935050505015156113ff57600080fd5b5050565b611f4081565b6000600160009054906101000a900473ffffffffffffffffffffffffffffffffffffffff1673ffffffffffffffffffffffffffffffffffffffff16632f866f736000604051602001526040518163ffffffff167c0100000000000000000000000000000000000000000000000000000000028152600401602060405180830381600087803b151561149957600080fd5b6102c65a03f115156114aa57600080fd5b5050506040518051905073ffffffffffffffffffffffffffffffffffffffff16639758af1e846001026000604051602001526040518263ffffffff167c0100000000000000000000000000000000000000000000000000000000028152600401808260001916600019168152602001915050602060405180830381600087803b151561153557600080fd5b6102c65a03f1151561154657600080fd5b50505060405180519050156115625761156183600102611a36565b5b63f0b9e5ba7c01000000000000000000000000000000000000000000000000000000000290509392505050565b6000809054906101000a900473ffffffffffffffffffffffffffffffffffffffff1673ffffffffffffffffffffffffffffffffffffffff163373ffffffffffffffffffffffffffffffffffffffff161415156115ea57600080fd5b600073ffffffffffffffffffffffffffffffffffffffff168173ffffffffffffffffffffffffffffffffffffffff161415151561162657600080fd5b8073ffffffffffffffffffffffffffffffffffffffff166000809054906101000a900473ffffffffffffffffffffffffffffffffffffffff1673ffffffffffffffffffffffffffffffffffffffff167f8be0079c531659141344cd1fd0a4f28419497f9722a3daafe3b4186f6b6457e060405160405180910390a3806000806101000a81548173ffffffffffffffffffffffffffffffffffffffff021916908373ffffffffffffffffffffffffffffffffffffffff16021790555050565b60085481565b600080600061170b600a546116fd61177a565b61187a90919063ffffffff16565b9250600091505b600c548210156117755761172582610d21565b90506000811115611768578083111515611748576117438383611b11565b611775565b61175b818461187a90919063ffffffff16565b92506117678183611b11565b5b8180600101925050611712565b505050565b6000600260009054906101000a900473ffffffffffffffffffffffffffffffffffffffff1673ffffffffffffffffffffffffffffffffffffffff166370a08231611f4061ffff16306040518363ffffffff167c0100000000000000000000000000000000000000000000000000000000028152600401808273ffffffffffffffffffffffffffffffffffffffff1673ffffffffffffffffffffffffffffffffffffffff168152602001915050602060405180830381600088803b151561183f57600080fd5b87f1151561184c57600080fd5b5050505060405180519050905090565b600080828401905083811015151561187057fe5b8091505092915050565b600082821115151561188857fe5b818303905092915050565b60008060006118bf846118b187600d5461190790919063ffffffff16565b611b8690919063ffffffff16565b91506118e760646118d9888561190790919063ffffffff16565b611b8690919063ffffffff16565b90506118fc818361185c90919063ffffffff16565b925050509392505050565b600080600084141561191c576000915061193b565b828402905082848281151561192d57fe5b0414151561193757fe5b8091505b5092915050565b6000806000809054906101000a900473ffffffffffffffffffffffffffffffffffffffff1673ffffffffffffffffffffffffffffffffffffffff163373ffffffffffffffffffffffffffffffffffffffff1614156119a2578391506119ba565b6119b7600b5434611b8690919063ffffffff16565b91505b6119fc6006600085815260200190815260200160002060000180549050600660008681526020019081526020016000206002015461187a90919063ffffffff16565b9050818110158015611a2157506000611a1e838361187a90919063ffffffff16565b10155b1515611a2c57600080fd5b8191505092915050565b611a53611a4282611ba1565b60085461185c90919063ffffffff16565b60088190555060048054806001018281611a6d9190611eb0565b916000526020600020900160008390919091509060001916905550611a9e600160095461187a90919063ffffffff16565b60098190555060006009541415611ab857611ab7611e31565b5b3073ffffffffffffffffffffffffffffffffffffffff167f5b43f780b1af87a1f747af4af9a40d6dba3f965754615f37adda08ea0aa0bb538260405180826000191660001916815260200191505060405180910390a250565b6000611b3c600660008481526020019081526020016000206002015484611b8690919063ffffffff16565b9050611b6781600660008581526020019081526020016000206001015461185c90919063ffffffff16565b6006600084815260200190815260200160002060010181905550505050565b6000808284811515611b9457fe5b0490508091505092915050565b6000806000600160009054906101000a900473ffffffffffffffffffffffffffffffffffffffff1673ffffffffffffffffffffffffffffffffffffffff16632f866f736000604051602001526040518163ffffffff167c0100000000000000000000000000000000000000000000000000000000028152600401602060405180830381600087803b1515611c3457600080fd5b6102c65a03f11515611c4557600080fd5b5050506040518051905073ffffffffffffffffffffffffffffffffffffffff1663f6f494c9856000604051602001526040518263ffffffff167c0100000000000000000000000000000000000000000000000000000000028152600401808260001916600019168152602001915050602060405180830381600087803b1515611ccd57600080fd5b6102c65a03f11515611cde57600080fd5b5050506040518051905091508173ffffffffffffffffffffffffffffffffffffffff16632762dd8c856000604051602001526040518263ffffffff167c0100000000000000000000000000000000000000000000000000000000028152600401808260001916600019168152602001915050602060405180830381600087803b1515611d6957600080fd5b6102c65a03f11515611d7a57600080fd5b5050506040518051905090508173ffffffffffffffffffffffffffffffffffffffff166399114d8485836000604051602001526040518363ffffffff167c010000000000000000000000000000000000000000000000000000000002815260040180836000191660001916815260200182815260200192505050602060405180830381600087803b1515611e0d57600080fd5b6102c65a03f11515611e1e57600080fd5b5050506040518051905092505050919050565b60085460075411151515611e4457600080fd5b6001600360146101000a81548160ff0219169083151502179055506008600090556009600090553073ffffffffffffffffffffffffffffffffffffffff167f6893481fc49b8d247ba6b3eb2d22f5d2fb498f61b67010cb7766c3499223425b60405160405180910390a2565b815481835581811511611ed757818360005260206000209182019101611ed69190611edc565b5b505050565b611efe91905b80821115611efa576000816000905550600101611ee2565b5090565b905600a165627a7a723058204af819e42d2a41a66f95eaa268de078574b243d7c7a0c26caa2d4e32f9dc4a680029",
  "source": "pragma solidity ^ 0.4.18;\r\n\r\n// Internal dependencies\r\nimport \"./TrancheToken.sol\";\r\nimport \"../ContractRegistry.sol\";\r\nimport \"../TermsContract.sol\";\r\nimport \"../libraries/CDOLib.sol\";\r\n\r\n// External dependencies\r\nimport \"zeppelin-solidity/contracts/token/ERC721/ERC721Receiver.sol\";\r\nimport \"zeppelin-solidity/contracts/math/SafeMath.sol\";\r\nimport 'zeppelin-solidity/contracts/ownership/Ownable.sol';\r\nimport \"zeppelin-solidity/contracts/token/ERC20/ERC20.sol\";\r\n\r\n/**\r\n * CDO is a generic, unopinionated implementation of a Collateralized\r\n * Debt Obligation credit derivative built on the Dharma Protocol.\r\n * It contains the core business logic for creating and\r\n * executing a trustless CDO. This includes any number of\r\n * tranche classes, shares per class, and different\r\n * interest rates and risk scores per tranche.\r\n *\r\n * NOTE:\r\n * Tranche levels are represented in descending priority\r\n * order starting from 0. Ex. trancheLevel 0 = SENIOR Tranche.\r\n *\r\n * All for loops in this contract are used to create a generic\r\n * implementation and are safe from block gas limits because\r\n * they run for the number of tranches which in a real-life\r\n * situation won't be excessive.\r\n *\r\n * TODO:\r\n * GAS OPTIMIZATION:\r\n * Gas optimize through ordering of variable declarations\r\n * and sizes. Code has been left in a readable / organized manner.\r\n *\r\n * Also most methods will be moved to CDOLib once a new design\r\n * of: CDOFactory -> Proxy -> CDOLib is complete. This allows for\r\n * code re-use and upgradeability.\r\n *\r\n * TRUSTLESS UPGRADABILITY:\r\n * Currently the CDO owner can switch external contracts used at will.\r\n *\r\n * Author: Devan Purhar\r\n */\r\n\r\ncontract CDO is Ownable, ERC721Receiver {\r\n    using SafeMath for * ;\r\n    using CDOLib for * ;\r\n\r\n    /* Set an upper bound on the gas limit allotted for view functions of non-trusted contracts. */\r\n    uint16 constant public EXTERNAL_QUERY_GAS_LIMIT = 8000;\r\n\r\n    /* External contracts */\r\n    ContractRegistry public contractRegistry;\r\n    ERC20 internal principalToken;\r\n    TrancheToken public trancheToken;\r\n\r\n    bool public isActive;\r\n    bytes32[] public debtInstruments;\r\n    /* Track how much each token has withdrawn */\r\n    mapping(bytes32 => uint) internal tokenBalances;\r\n    mapping(uint => CDOLib.Tranche) internal tranches;\r\n    /* This CDO's repayment obligation to share-holders */\r\n    uint public repaymentObligation;\r\n    /* Sum of underlying debts repayment obligation */\r\n    uint public debtsRepaymentObligation;\r\n    uint public trackOutstandingDebts;\r\n    uint public lastBalance;\r\n    uint public pricePerShare;\r\n    uint public numberOfTranches;\r\n    uint public principalAmount;\r\n\r\n\r\n    /************** EVENTS ***************/\r\n\r\n    /* NOTE: Unique CDO's are referenced by their address off-chain */\r\n\r\n\t\tevent LogCDOCreated(\r\n\t\t\t\taddress indexed cdoAddress,\r\n\t\t\t\tuint indexed pricePerShare,\r\n        // Keccak-256 hash is stored when emitting arrays. Relayers will need to\r\n        // listen for Keccak-256 hashes of the desired interest rates.\r\n\t\t\t\tuint[] indexed trancheInterestRates,\r\n\t\t\t\tuint[] trancheIssuances\r\n\t\t);\r\n\r\n\t\tevent LogSharesPurchased(\r\n\t\t\t\taddress indexed cdoAddress,\r\n\t\t\t\tuint minted,\r\n\t\t\t\tuint trancheLevel\r\n\t\t);\r\n\r\n\t\tevent LogDebtReceived(\r\n\t\t\t\taddress indexed cdoAddress,\r\n\t\t\t\tbytes32 debtToken\r\n\t\t);\r\n\r\n\t\tevent LogCDOActivated(address indexed cdoAddress);\r\n\r\n    /**\r\n     * Constructor that sets addresses of required external contracts\r\n     * and the values that make up the unique CDO such as creating\r\n     * the different tranches and calculating the repayment.\r\n     *\r\n     * NOTE: Structs can't be passed in using web3.js v0.0.2 so we\r\n     * flatten them into different parameters for now. (it's supported\r\n     * in web3.js v1.0.0 beta)\r\n     */\r\n    function CDO(\r\n        address contractRegistryContract,\r\n        address principalTokenAddress,\r\n        address trancheTokenAddress,\r\n        uint[] trancheInterestRates,\r\n        uint[] trancheIssuances,\r\n        uint _principalAmount,\r\n        uint numberOfDebts,\r\n        uint totalIssuances\r\n    )\r\n        public\r\n    {\r\n        contractRegistry = ContractRegistry(contractRegistryContract);\r\n        principalToken = ERC20(principalTokenAddress);\r\n        trancheToken = TrancheToken(trancheTokenAddress);\r\n\r\n        // The CDO isn't eligible until the underlying debt tokens are owned by this contract\r\n        trackOutstandingDebts = numberOfDebts;\r\n        principalAmount = _principalAmount;\r\n        numberOfTranches = trancheInterestRates.length;\r\n\r\n        for (uint trancheLevel = 0; trancheLevel < numberOfTranches; trancheLevel++) {\r\n\r\n            CDOLib.Tranche memory tranche = CDOLib.Tranche(\r\n                new bytes32[](0),\r\n                0,\r\n                trancheIssuances[trancheLevel],\r\n                trancheInterestRates[trancheLevel],\r\n                0,\r\n                trancheLevel\r\n            );\r\n\r\n            tranches[trancheLevel] = tranche;\r\n\r\n            repaymentObligation = repaymentObligation.add(\r\n                calculateRepaymentObligation(\r\n                    trancheInterestRates[trancheLevel],\r\n                    trancheIssuances[trancheLevel],\r\n                    totalIssuances\r\n                )\r\n            );\r\n        }\r\n\r\n        pricePerShare = principalAmount.div(totalIssuances);\r\n\r\n\t\t\t\tLogCDOCreated(address(this), pricePerShare, trancheInterestRates, trancheIssuances);\r\n\r\n    }\r\n\r\n\r\n    /************** MODIFIERS ***************/\r\n\r\n    /**\r\n    * Requires the CDO to be verified and publicly available. Used to lock\r\n    * investors from purchasing shares when the CDO isn't verified (all\r\n    * underlying debt instruments aren't accounted for).\r\n    */\r\n    modifier requireActive() {\r\n        require(isActive);\r\n        _;\r\n    }\r\n\r\n    /**\r\n     * Allows investors to purchase shares of a tranche.\r\n     */\r\n    function purchaseShares(uint trancheLevel)\r\n        public\r\n        requireActive\r\n        payable\r\n    {\r\n        uint mintAmount = verifyOrderAmount(msg.value, trancheLevel);\r\n        CDOLib.purchaseShares(trancheLevel, mintAmount, tranches[trancheLevel], trancheToken);\r\n        owner.transfer(msg.value);\r\n    }\r\n\r\n    /**\r\n     * Allows owner of the CDO to claim unbought shares as a fallback\r\n     * if not all are sold. Owning the tokens enables reclaiming the\r\n     * payments allocated to them.\r\n     */\r\n\t\tfunction claimShares(\r\n       uint orderValue,\r\n       uint trancheLevel\r\n    )\r\n\t\t\t public\r\n\t\t\t requireActive\r\n       onlyOwner\r\n    {\r\n      uint mintAmount = verifyOrderAmount(orderValue, trancheLevel);\r\n      CDOLib.purchaseShares(trancheLevel, mintAmount, tranches[trancheLevel], trancheToken);\r\n    }\r\n\r\n    /**\r\n    * Verifies how many shares the investor wants to purchase and checks if\r\n    * enough shares are left of the specified tranche and returns amount to\r\n    * be minted and bought.\r\n    */\r\n    function verifyOrderAmount(\r\n        uint orderSize,\r\n        uint trancheLevel\r\n    )\r\n        internal\r\n        returns(uint minting)\r\n    {\r\n        if (msg.sender == owner) {\r\n            minting = orderSize;\r\n        } else {\r\n            minting = (msg.value).div(pricePerShare);\r\n        }\r\n\r\n        uint sharesLeft = tranches[trancheLevel].numberOfIssuances.sub(tranches[trancheLevel].issuances.length);\r\n\r\n        require(sharesLeft >= minting && sharesLeft.sub(minting) >= 0);\r\n\r\n        return minting;\r\n    }\r\n\r\n    /**\r\n     * Receive ERC721 tokens. Main use cases are for becoming the owner\r\n     * of the Dharma Debt Tokens that make up the CDO or the collateral\r\n     * in case of ERC721 backed credit defaults.\r\n     */\r\n    function onERC721Received(\r\n        address _from,\r\n        uint256 _tokenID,\r\n        bytes\r\n    )\r\n        public\r\n        returns(bytes4)\r\n    {\r\n        // If entry doesn't exist it's not a debt and is considered collateral\r\n        if(contractRegistry.debtRegistry().doesEntryExist(bytes32(_tokenID))) {\r\n            registerDebtInstrument(bytes32(_tokenID));\r\n        }\r\n\r\n        return ERC721Receiver.ERC721_RECEIVED;\r\n    }\r\n\r\n    /*\r\n    * Register a debt that belongs to this CDO. If all the debts have\r\n    * have been received, activate the CDO to the public.\r\n    */\r\n    function registerDebtInstrument(bytes32 tokenID)\r\n        internal\r\n    {\r\n      debtsRepaymentObligation = debtsRepaymentObligation.add(\r\n              getDebtsRemainingValue(bytes32(tokenID))\r\n          );\r\n\r\n      debtInstruments.push(bytes32(tokenID));\r\n\r\n      trackOutstandingDebts = trackOutstandingDebts.sub(1);\r\n\r\n      if (trackOutstandingDebts == 0) {\r\n\r\n          activateCDO();\r\n\r\n      }\r\n\r\n      LogDebtReceived(address(this), bytes32(tokenID));\r\n    }\r\n\r\n    /*\r\n    * Allows the public to access this CDO if the underlying debts\r\n    * total remaining value can pay the promised value of this CDO.\r\n    */\r\n    function activateCDO()\r\n        private\r\n    {\r\n      require(repaymentObligation <= debtsRepaymentObligation);\r\n\r\n      isActive = true;\r\n      delete debtsRepaymentObligation;\r\n      delete trackOutstandingDebts;\r\n\r\n      LogCDOActivated(address(this));\r\n    }\r\n\r\n    /*\r\n    * Allows share-holders to withdraw accumulated repayments. If a\r\n    * repayment has been made since the last time this CDO was accessed\r\n    * then it will update the balances with the new value first.\r\n    */\r\n    function withdraw(\r\n        bytes32 _tokenID,\r\n        address _to\r\n    )\r\n        public\r\n    {\r\n        require(trancheToken.ownerOf(uint(_tokenID)) == msg.sender);\r\n        require(trancheToken.registry().getCDO(_tokenID) == address(this));\r\n\r\n        // If the new balance is greater then the last time someone withdrew, a\r\n        // repayment has been made. We update the balances of share-holders.\r\n        if (principalToken.balanceOf.gas(EXTERNAL_QUERY_GAS_LIMIT)(this) > lastBalance) {\r\n            updateBalances();\r\n        }\r\n\r\n        uint tokenBalance = getTokenBalance(_tokenID);\r\n        uint CDOBalance = getCDOBalance();\r\n\r\n        require(tokenBalance > 0 && tokenBalance <= CDOBalance);\r\n\r\n        tokenBalances[_tokenID] = tokenBalances[_tokenID].add(tokenBalance);\r\n        lastBalance = CDOBalance.sub(tokenBalance);\r\n        principalToken.transfer(_to, tokenBalance);\r\n\r\n    }\r\n\r\n    /**\r\n    * Updates the token balances.\r\n    */\r\n    function updateBalances()\r\n        private\r\n    {\r\n        uint valueToDistribute = getCDOBalance().sub(lastBalance);\r\n\r\n        // Loop through tranches in descending priority and waterfall the repayment\r\n        for (uint trancheLevel = 0; trancheLevel < numberOfTranches; trancheLevel++) {\r\n\r\n            uint trancheOutstanding = getTrancheOutstanding(trancheLevel);\r\n\r\n            if (trancheOutstanding > 0) {\r\n\r\n                // Next tranches won't be getting payed this repayment period so break/return\r\n                // after payment of this tranche\r\n                if (valueToDistribute <= trancheOutstanding) {\r\n\r\n                    setTrancheEntitlement(valueToDistribute, trancheLevel);\r\n                    break;\r\n\r\n                } else {\r\n\r\n                    valueToDistribute = valueToDistribute.sub(trancheOutstanding);\r\n                    setTrancheEntitlement(trancheOutstanding, trancheLevel);\r\n\r\n                }\r\n            }\r\n        }\r\n    }\r\n\r\n    /**\r\n    * Calculates and returns the total repayment value owed to the tranche.\r\n    */\r\n    function calculateRepaymentObligation(\r\n        uint interestRate,\r\n        uint trancheIssuances,\r\n        uint totalIssuances\r\n    )\r\n        internal\r\n        view\r\n        returns(uint outstandingRepayment)\r\n    {\r\n        uint totalTranchePrincipal = principalAmount.mul(trancheIssuances).div(totalIssuances);\r\n\r\n        uint generatedInterest = totalTranchePrincipal.mul(interestRate).div(100);\r\n\r\n        return totalTranchePrincipal.add(generatedInterest);\r\n    }\r\n\r\n\r\n  /************** SETTERS ***************/\r\n\r\n    /**\r\n    * Sets the total entitlement available to each share-holder of the tranche\r\n    */\r\n    function setTrancheEntitlement(\r\n        uint valueToDistribute,\r\n        uint trancheLevel\r\n    )\r\n        private\r\n    {\r\n        uint entitlement = valueToDistribute.div(tranches[trancheLevel].numberOfIssuances);\r\n\r\n        tranches[trancheLevel].balance = tranches[trancheLevel].balance.add(entitlement);\r\n    }\r\n\r\n    /**\r\n     * Allows contract owner to set the currently used Tranche Token.\r\n     * Function exists to maximize upgradeability of individual modules\r\n     * in the CDO system.\r\n\r\n     * TODO: Implement a system where only trusted people can change this or\r\n     * change is required to be approved.\r\n     */\r\n    function setTrancheTokenContract(address trancheTokenAddress)\r\n        public\r\n        onlyOwner\r\n    {\r\n        trancheToken = TrancheToken(trancheTokenAddress);\r\n    }\r\n\r\n\r\n  /************** GETTERS ***************/\r\n\r\n    /**\r\n    * Returns the current balance of the principal token.\r\n    */\r\n    function getCDOBalance()\r\n        internal\r\n        view\r\n        returns(uint cdoBalance)\r\n    {\r\n      return principalToken.balanceOf.gas(EXTERNAL_QUERY_GAS_LIMIT)(this);\r\n    }\r\n\r\n    /**\r\n    * Get the remaining repayment value of a debt.\r\n    */\r\n    function getDebtsRemainingValue(bytes32 _tokenID)\r\n        internal\r\n        returns(uint debtsRemainingValue)\r\n    {\r\n\r\n        TermsContract termsContract = TermsContract(contractRegistry.debtRegistry().getTermsContract(bytes32(_tokenID)));\r\n\r\n        uint endingTime = termsContract.getTermEndTimestamp(bytes32(_tokenID));\r\n\r\n        return termsContract.getExpectedRepaymentValue(bytes32(_tokenID), endingTime);\r\n\r\n    }\r\n\r\n    /**\r\n    * Calculates and returns the value that still needs to be paid to a tranche.\r\n    */\r\n    function getTrancheOutstanding(uint trancheLevel)\r\n        public\r\n        view\r\n        returns(uint outstandingValue)\r\n    {\r\n        uint trancheTotalRepayment = calculateRepaymentObligation(\r\n                tranches[trancheLevel].interestRate,\r\n                tranches[trancheLevel].numberOfIssuances,\r\n                getTotalIssuances());\r\n\r\n        uint alreadyPaid = tranches[trancheLevel].balance.mul(tranches[trancheLevel].numberOfIssuances);\r\n\r\n        return trancheTotalRepayment.sub(alreadyPaid);\r\n    }\r\n\r\n    /**\r\n    * Calculates and returns the total issuances.\r\n    */\r\n    function getTotalIssuances()\r\n        public\r\n        view\r\n        returns(uint issuances)\r\n    {\r\n        for (uint trancheLevel = 0; trancheLevel < numberOfTranches; trancheLevel++) {\r\n            issuances = issuances.add(tranches[trancheLevel].issuances.length);\r\n        }\r\n\r\n        return issuances;\r\n    }\r\n\r\n    /**\r\n    * Checks to ensure the token belongs to the specified tranche then\r\n    * returns the tokens current balance by (total repayed - already withdrawn)\r\n    * specific to this tranche and token.\r\n    */\r\n    function getTokenBalance(\r\n        bytes32 tokenID\r\n    )\r\n        public\r\n        view\r\n        returns(uint availableBalance)\r\n    {\r\n        require(trancheToken.registry().checkEntryExists(tokenID));\r\n        uint trancheLevel = trancheToken.registry().getTranche(tokenID);\r\n\r\n        return tranches[trancheLevel].balance.sub(tokenBalances[tokenID]);\r\n    }\r\n\r\n    /**\r\n     * Returns a tokenID at a specified index\r\n     */\r\n    function getTokenID(\r\n        uint trancheLevel,\r\n        uint index\r\n    )\r\n        public\r\n        view\r\n        returns(bytes32 tokenID)\r\n    {\r\n        return tranches[trancheLevel].issuances[index];\r\n    }\r\n\r\n    /**\r\n    * Fallback to receive repayments.\r\n    */\r\n    function() public payable {}\r\n\r\n}\r\n",
  "sourcePath": "/mnt/c/Users/devan/fixer/check-dharma/contracts/CDO/CDO.sol",
  "compiler": {
    "name": "solc",
    "version": "0.4.18+commit.9cf6e910.Emscripten.clang"
  },
  "schemaVersion": "1.0.1",
  "updatedAt": "2018-11-27T07:44:25.046Z"
}