{
  "contractName": "DebtToken",
  "abi": [
    {
      "constant": false,
      "inputs": [
        {
          "name": "_agent",
          "type": "address"
        }
      ],
      "name": "revokeTokenURIAuthorization",
      "outputs": [],
      "payable": false,
      "stateMutability": "nonpayable",
      "type": "function"
    },
    {
      "constant": true,
      "inputs": [
        {
          "name": "interfaceID",
          "type": "bytes4"
        }
      ],
      "name": "supportsInterface",
      "outputs": [
        {
          "name": "_isSupported",
          "type": "bool"
        }
      ],
      "payable": false,
      "stateMutability": "view",
      "type": "function"
    },
    {
      "constant": true,
      "inputs": [],
      "name": "getAuthorizedMintAgents",
      "outputs": [
        {
          "name": "_agents",
          "type": "address[]"
        }
      ],
      "payable": false,
      "stateMutability": "view",
      "type": "function"
    },
    {
      "constant": true,
      "inputs": [],
      "name": "name",
      "outputs": [
        {
          "name": "",
          "type": "string"
        }
      ],
      "payable": false,
      "stateMutability": "view",
      "type": "function"
    },
    {
      "constant": true,
      "inputs": [
        {
          "name": "_tokenId",
          "type": "uint256"
        }
      ],
      "name": "getApproved",
      "outputs": [
        {
          "name": "",
          "type": "address"
        }
      ],
      "payable": false,
      "stateMutability": "view",
      "type": "function"
    },
    {
      "constant": false,
      "inputs": [
        {
          "name": "_to",
          "type": "address"
        },
        {
          "name": "_tokenId",
          "type": "uint256"
        }
      ],
      "name": "approve",
      "outputs": [],
      "payable": false,
      "stateMutability": "nonpayable",
      "type": "function"
    },
    {
      "constant": false,
      "inputs": [
        {
          "name": "_tokenId",
          "type": "uint256"
        },
        {
          "name": "_uri",
          "type": "string"
        }
      ],
      "name": "setTokenURI",
      "outputs": [],
      "payable": false,
      "stateMutability": "nonpayable",
      "type": "function"
    },
    {
      "constant": true,
      "inputs": [],
      "name": "totalSupply",
      "outputs": [
        {
          "name": "",
          "type": "uint256"
        }
      ],
      "payable": false,
      "stateMutability": "view",
      "type": "function"
    },
    {
      "constant": true,
      "inputs": [],
      "name": "CREATION_CONTEXT",
      "outputs": [
        {
          "name": "",
          "type": "string"
        }
      ],
      "payable": false,
      "stateMutability": "view",
      "type": "function"
    },
    {
      "constant": true,
      "inputs": [],
      "name": "getAuthorizedTokenURIAgents",
      "outputs": [
        {
          "name": "_agents",
          "type": "address[]"
        }
      ],
      "payable": false,
      "stateMutability": "view",
      "type": "function"
    },
    {
      "constant": false,
      "inputs": [
        {
          "name": "_from",
          "type": "address"
        },
        {
          "name": "_to",
          "type": "address"
        },
        {
          "name": "_tokenId",
          "type": "uint256"
        }
      ],
      "name": "transferFrom",
      "outputs": [],
      "payable": false,
      "stateMutability": "nonpayable",
      "type": "function"
    },
    {
      "constant": true,
      "inputs": [
        {
          "name": "_owner",
          "type": "address"
        },
        {
          "name": "_index",
          "type": "uint256"
        }
      ],
      "name": "tokenOfOwnerByIndex",
      "outputs": [
        {
          "name": "",
          "type": "uint256"
        }
      ],
      "payable": false,
      "stateMutability": "view",
      "type": "function"
    },
    {
      "constant": false,
      "inputs": [
        {
          "name": "_agent",
          "type": "address"
        }
      ],
      "name": "addAuthorizedTokenURIAgent",
      "outputs": [],
      "payable": false,
      "stateMutability": "nonpayable",
      "type": "function"
    },
    {
      "constant": false,
      "inputs": [],
      "name": "unpause",
      "outputs": [],
      "payable": false,
      "stateMutability": "nonpayable",
      "type": "function"
    },
    {
      "constant": false,
      "inputs": [
        {
          "name": "_from",
          "type": "address"
        },
        {
          "name": "_to",
          "type": "address"
        },
        {
          "name": "_tokenId",
          "type": "uint256"
        }
      ],
      "name": "safeTransferFrom",
      "outputs": [],
      "payable": false,
      "stateMutability": "nonpayable",
      "type": "function"
    },
    {
      "constant": true,
      "inputs": [
        {
          "name": "_tokenId",
          "type": "uint256"
        }
      ],
      "name": "exists",
      "outputs": [
        {
          "name": "",
          "type": "bool"
        }
      ],
      "payable": false,
      "stateMutability": "view",
      "type": "function"
    },
    {
      "constant": true,
      "inputs": [
        {
          "name": "_index",
          "type": "uint256"
        }
      ],
      "name": "tokenByIndex",
      "outputs": [
        {
          "name": "",
          "type": "uint256"
        }
      ],
      "payable": false,
      "stateMutability": "view",
      "type": "function"
    },
    {
      "constant": true,
      "inputs": [],
      "name": "paused",
      "outputs": [
        {
          "name": "",
          "type": "bool"
        }
      ],
      "payable": false,
      "stateMutability": "view",
      "type": "function"
    },
    {
      "constant": true,
      "inputs": [
        {
          "name": "_tokenId",
          "type": "uint256"
        }
      ],
      "name": "ownerOf",
      "outputs": [
        {
          "name": "",
          "type": "address"
        }
      ],
      "payable": false,
      "stateMutability": "view",
      "type": "function"
    },
    {
      "constant": true,
      "inputs": [
        {
          "name": "_owner",
          "type": "address"
        }
      ],
      "name": "balanceOf",
      "outputs": [
        {
          "name": "",
          "type": "uint256"
        }
      ],
      "payable": false,
      "stateMutability": "view",
      "type": "function"
    },
    {
      "constant": true,
      "inputs": [],
      "name": "registry",
      "outputs": [
        {
          "name": "",
          "type": "address"
        }
      ],
      "payable": false,
      "stateMutability": "view",
      "type": "function"
    },
    {
      "constant": false,
      "inputs": [
        {
          "name": "_agent",
          "type": "address"
        }
      ],
      "name": "revokeMintAgentAuthorization",
      "outputs": [],
      "payable": false,
      "stateMutability": "nonpayable",
      "type": "function"
    },
    {
      "constant": false,
      "inputs": [],
      "name": "pause",
      "outputs": [],
      "payable": false,
      "stateMutability": "nonpayable",
      "type": "function"
    },
    {
      "constant": true,
      "inputs": [],
      "name": "owner",
      "outputs": [
        {
          "name": "",
          "type": "address"
        }
      ],
      "payable": false,
      "stateMutability": "view",
      "type": "function"
    },
    {
      "constant": true,
      "inputs": [],
      "name": "symbol",
      "outputs": [
        {
          "name": "",
          "type": "string"
        }
      ],
      "payable": false,
      "stateMutability": "view",
      "type": "function"
    },
    {
      "constant": false,
      "inputs": [
        {
          "name": "_version",
          "type": "address"
        },
        {
          "name": "_beneficiary",
          "type": "address"
        },
        {
          "name": "_debtor",
          "type": "address"
        },
        {
          "name": "_underwriter",
          "type": "address"
        },
        {
          "name": "_underwriterRiskRating",
          "type": "uint256"
        },
        {
          "name": "_termsContract",
          "type": "address"
        },
        {
          "name": "_termsContractParameters",
          "type": "bytes32"
        },
        {
          "name": "_salt",
          "type": "uint256"
        }
      ],
      "name": "create",
      "outputs": [
        {
          "name": "_tokenId",
          "type": "uint256"
        }
      ],
      "payable": false,
      "stateMutability": "nonpayable",
      "type": "function"
    },
    {
      "constant": false,
      "inputs": [
        {
          "name": "_agent",
          "type": "address"
        }
      ],
      "name": "addAuthorizedMintAgent",
      "outputs": [],
      "payable": false,
      "stateMutability": "nonpayable",
      "type": "function"
    },
    {
      "constant": false,
      "inputs": [
        {
          "name": "_to",
          "type": "address"
        },
        {
          "name": "_approved",
          "type": "bool"
        }
      ],
      "name": "setApprovalForAll",
      "outputs": [],
      "payable": false,
      "stateMutability": "nonpayable",
      "type": "function"
    },
    {
      "constant": false,
      "inputs": [
        {
          "name": "_to",
          "type": "address"
        },
        {
          "name": "_tokenId",
          "type": "uint256"
        }
      ],
      "name": "transfer",
      "outputs": [],
      "payable": false,
      "stateMutability": "nonpayable",
      "type": "function"
    },
    {
      "constant": true,
      "inputs": [],
      "name": "URI_CONTEXT",
      "outputs": [
        {
          "name": "",
          "type": "string"
        }
      ],
      "payable": false,
      "stateMutability": "view",
      "type": "function"
    },
    {
      "constant": false,
      "inputs": [
        {
          "name": "_from",
          "type": "address"
        },
        {
          "name": "_to",
          "type": "address"
        },
        {
          "name": "_tokenId",
          "type": "uint256"
        },
        {
          "name": "_data",
          "type": "bytes"
        }
      ],
      "name": "safeTransferFrom",
      "outputs": [],
      "payable": false,
      "stateMutability": "nonpayable",
      "type": "function"
    },
    {
      "constant": true,
      "inputs": [
        {
          "name": "_tokenId",
          "type": "uint256"
        }
      ],
      "name": "tokenURI",
      "outputs": [
        {
          "name": "",
          "type": "string"
        }
      ],
      "payable": false,
      "stateMutability": "view",
      "type": "function"
    },
    {
      "constant": true,
      "inputs": [
        {
          "name": "_owner",
          "type": "address"
        },
        {
          "name": "_operator",
          "type": "address"
        }
      ],
      "name": "isApprovedForAll",
      "outputs": [
        {
          "name": "",
          "type": "bool"
        }
      ],
      "payable": false,
      "stateMutability": "view",
      "type": "function"
    },
    {
      "constant": false,
      "inputs": [
        {
          "name": "newOwner",
          "type": "address"
        }
      ],
      "name": "transferOwnership",
      "outputs": [],
      "payable": false,
      "stateMutability": "nonpayable",
      "type": "function"
    },
    {
      "inputs": [
        {
          "name": "_registry",
          "type": "address"
        }
      ],
      "payable": false,
      "stateMutability": "nonpayable",
      "type": "constructor"
    },
    {
      "anonymous": false,
      "inputs": [
        {
          "indexed": true,
          "name": "agent",
          "type": "address"
        },
        {
          "indexed": false,
          "name": "callingContext",
          "type": "string"
        }
      ],
      "name": "Authorized",
      "type": "event"
    },
    {
      "anonymous": false,
      "inputs": [
        {
          "indexed": true,
          "name": "agent",
          "type": "address"
        },
        {
          "indexed": false,
          "name": "callingContext",
          "type": "string"
        }
      ],
      "name": "AuthorizationRevoked",
      "type": "event"
    },
    {
      "anonymous": false,
      "inputs": [],
      "name": "Pause",
      "type": "event"
    },
    {
      "anonymous": false,
      "inputs": [],
      "name": "Unpause",
      "type": "event"
    },
    {
      "anonymous": false,
      "inputs": [
        {
          "indexed": true,
          "name": "previousOwner",
          "type": "address"
        },
        {
          "indexed": true,
          "name": "newOwner",
          "type": "address"
        }
      ],
      "name": "OwnershipTransferred",
      "type": "event"
    },
    {
      "anonymous": false,
      "inputs": [
        {
          "indexed": true,
          "name": "_from",
          "type": "address"
        },
        {
          "indexed": true,
          "name": "_to",
          "type": "address"
        },
        {
          "indexed": false,
          "name": "_tokenId",
          "type": "uint256"
        }
      ],
      "name": "Transfer",
      "type": "event"
    },
    {
      "anonymous": false,
      "inputs": [
        {
          "indexed": true,
          "name": "_owner",
          "type": "address"
        },
        {
          "indexed": true,
          "name": "_approved",
          "type": "address"
        },
        {
          "indexed": false,
          "name": "_tokenId",
          "type": "uint256"
        }
      ],
      "name": "Approval",
      "type": "event"
    },
    {
      "anonymous": false,
      "inputs": [
        {
          "indexed": true,
          "name": "_owner",
          "type": "address"
        },
        {
          "indexed": true,
          "name": "_operator",
          "type": "address"
        },
        {
          "indexed": false,
          "name": "_approved",
          "type": "bool"
        }
      ],
      "name": "ApprovalForAll",
      "type": "event"
    }
  ],
  "bytecode": "0x60606040526000600b60146101000a81548160ff02191690831515021790555034156200002b57600080fd5b60405160208062003823833981016040528080519060200190919050506040805190810160405280600981526020017f44656274546f6b656e00000000000000000000000000000000000000000000008152506040805190810160405280600381526020017f44445400000000000000000000000000000000000000000000000000000000008152508160049080519060200190620000cc92919062000171565b508060059080519060200190620000e592919062000171565b50505033600b60006101000a81548173ffffffffffffffffffffffffffffffffffffffff021916908373ffffffffffffffffffffffffffffffffffffffff16021790555080600c60006101000a81548173ffffffffffffffffffffffffffffffffffffffff021916908373ffffffffffffffffffffffffffffffffffffffff1602179055505062000220565b828054600181600116156101000203166002900490600052602060002090601f016020900481019282601f10620001b457805160ff1916838001178555620001e5565b82800160010185558215620001e5579182015b82811115620001e4578251825591602001919060010190620001c7565b5b509050620001f49190620001f8565b5090565b6200021d91905b8082111562000219576000816000905550600101620001ff565b5090565b90565b6135f380620002306000396000f3006060604052600436106101ab576000357c0100000000000000000000000000000000000000000000000000000000900463ffffffff168062b0aeae146101b057806301ffc9a7146101e95780630343e1221461024357806306fdde03146102ad578063081812fc1461033b578063095ea7b31461039e578063162094c4146103e057806318160ddd146104465780631fe23d7f1461046f57806321d37127146104fd57806323b872dd146105675780632f745c59146105c857806333d261771461061e5780633f4ba83a1461065757806342842e0e1461066c5780634f558e79146106cd5780634f6ccce7146107085780635c975abb1461073f5780636352211e1461076c57806370a08231146107cf5780637b1039991461081c57806381ac3fbc146108715780638456cb59146108aa5780638da5cb5b146108bf57806395d89b411461091457806399f10501146109a25780639c0d9c4314610a8a578063a22cb46514610ac3578063a9059cbb14610b07578063b5c2f7ea14610b49578063b88d4fde14610bd7578063c87b56dd14610c7b578063e985e9c514610d17578063f2fde38b14610d87575b600080fd5b34156101bb57600080fd5b6101e7600480803573ffffffffffffffffffffffffffffffffffffffff16906020019091905050610dc0565b005b34156101f457600080fd5b61022960048080357bffffffffffffffffffffffffffffffffffffffffffffffffffffffff1916906020019091905050610e6a565b604051808215151515815260200191505060405180910390f35b341561024e57600080fd5b610256610eb8565b6040518080602001828103825283818151815260200191508051906020019060200280838360005b8381101561029957808201518184015260208101905061027e565b505050509050019250505060405180910390f35b34156102b857600080fd5b6102c0610ecf565b6040518080602001828103825283818151815260200191508051906020019080838360005b838110156103005780820151818401526020810190506102e5565b50505050905090810190601f16801561032d5780820380516001836020036101000a031916815260200191505b509250505060405180910390f35b341561034657600080fd5b61035c6004808035906020019091905050610f77565b604051808273ffffffffffffffffffffffffffffffffffffffff1673ffffffffffffffffffffffffffffffffffffffff16815260200191505060405180910390f35b34156103a957600080fd5b6103de600480803573ffffffffffffffffffffffffffffffffffffffff16906020019091908035906020019091905050610fb4565b005b34156103eb57600080fd5b610444600480803590602001909190803590602001908201803590602001908080601f01602080910402602001604051908101604052809392919081815260200183838082843782019150505050505091905050610fde565b005b341561045157600080fd5b610459611027565b6040518082815260200191505060405180910390f35b341561047a57600080fd5b610482611034565b6040518080602001828103825283818151815260200191508051906020019080838360005b838110156104c25780820151818401526020810190506104a7565b50505050905090810190601f1680156104ef5780820380516001836020036101000a031916815260200191505b509250505060405180910390f35b341561050857600080fd5b61051061106d565b6040518080602001828103825283818151815260200191508051906020019060200280838360005b83811015610553578082015181840152602081019050610538565b505050509050019250505060405180910390f35b341561057257600080fd5b6105c6600480803573ffffffffffffffffffffffffffffffffffffffff1690602001909190803573ffffffffffffffffffffffffffffffffffffffff16906020019091908035906020019091905050611084565b005b34156105d357600080fd5b610608600480803573ffffffffffffffffffffffffffffffffffffffff169060200190919080359060200190919050506110ba565b6040518082815260200191505060405180910390f35b341561062957600080fd5b610655600480803573ffffffffffffffffffffffffffffffffffffffff16906020019091905050611132565b005b341561066257600080fd5b61066a6111dc565b005b341561067757600080fd5b6106cb600480803573ffffffffffffffffffffffffffffffffffffffff1690602001909190803573ffffffffffffffffffffffffffffffffffffffff1690602001909190803590602001909190505061129c565b005b34156106d857600080fd5b6106ee60048080359060200190919050506112d2565b604051808215151515815260200191505060405180910390f35b341561071357600080fd5b6107296004808035906020019091905050611343565b6040518082815260200191505060405180910390f35b341561074a57600080fd5b61075261137c565b604051808215151515815260200191505060405180910390f35b341561077757600080fd5b61078d600480803590602001909190505061138f565b604051808273ffffffffffffffffffffffffffffffffffffffff1673ffffffffffffffffffffffffffffffffffffffff16815260200191505060405180910390f35b34156107da57600080fd5b610806600480803573ffffffffffffffffffffffffffffffffffffffff1690602001909190505061140c565b6040518082815260200191505060405180910390f35b341561082757600080fd5b61082f611490565b604051808273ffffffffffffffffffffffffffffffffffffffff1673ffffffffffffffffffffffffffffffffffffffff16815260200191505060405180910390f35b341561087c57600080fd5b6108a8600480803573ffffffffffffffffffffffffffffffffffffffff169060200190919050506114b6565b005b34156108b557600080fd5b6108bd611560565b005b34156108ca57600080fd5b6108d2611621565b604051808273ffffffffffffffffffffffffffffffffffffffff1673ffffffffffffffffffffffffffffffffffffffff16815260200191505060405180910390f35b341561091f57600080fd5b610927611647565b6040518080602001828103825283818151815260200191508051906020019080838360005b8381101561096757808201518184015260208101905061094c565b50505050905090810190601f1680156109945780820380516001836020036101000a031916815260200191505b509250505060405180910390f35b34156109ad57600080fd5b610a74600480803573ffffffffffffffffffffffffffffffffffffffff1690602001909190803573ffffffffffffffffffffffffffffffffffffffff1690602001909190803573ffffffffffffffffffffffffffffffffffffffff1690602001909190803573ffffffffffffffffffffffffffffffffffffffff1690602001909190803590602001909190803573ffffffffffffffffffffffffffffffffffffffff16906020019091908035600019169060200190919080359060200190919050506116ef565b6040518082815260200191505060405180910390f35b3415610a9557600080fd5b610ac1600480803573ffffffffffffffffffffffffffffffffffffffff16906020019091905050611921565b005b3415610ace57600080fd5b610b05600480803573ffffffffffffffffffffffffffffffffffffffff1690602001909190803515159060200190919050506119cb565b005b3415610b1257600080fd5b610b47600480803573ffffffffffffffffffffffffffffffffffffffff169060200190919080359060200190919050506119f5565b005b3415610b5457600080fd5b610b5c611a04565b6040518080602001828103825283818151815260200191508051906020019080838360005b83811015610b9c578082015181840152602081019050610b81565b50505050905090810190601f168015610bc95780820380516001836020036101000a031916815260200191505b509250505060405180910390f35b3415610be257600080fd5b610c79600480803573ffffffffffffffffffffffffffffffffffffffff1690602001909190803573ffffffffffffffffffffffffffffffffffffffff1690602001909190803590602001909190803590602001908201803590602001908080601f01602080910402602001604051908101604052809392919081815260200183838082843782019150505050505091905050611a3d565b005b3415610c8657600080fd5b610c9c6004808035906020019091905050611a75565b6040518080602001828103825283818151815260200191508051906020019080838360005b83811015610cdc578082015181840152602081019050610cc1565b50505050905090810190601f168015610d095780820380516001836020036101000a031916815260200191505b509250505060405180910390f35b3415610d2257600080fd5b610d6d600480803573ffffffffffffffffffffffffffffffffffffffff1690602001909190803573ffffffffffffffffffffffffffffffffffffffff16906020019091905050611b44565b604051808215151515815260200191505060405180910390f35b3415610d9257600080fd5b610dbe600480803573ffffffffffffffffffffffffffffffffffffffff16906020019091905050611bd8565b005b600b60009054906101000a900473ffffffffffffffffffffffffffffffffffffffff1673ffffffffffffffffffffffffffffffffffffffff163373ffffffffffffffffffffffffffffffffffffffff16141515610e1c57600080fd5b610e67816040805190810160405280600e81526020017f646562742d746f6b656e2d7572690000000000000000000000000000000000008152506010611d309092919063ffffffff16565b50565b60006380ac58cd7c010000000000000000000000000000000000000000000000000000000002827bffffffffffffffffffffffffffffffffffffffffffffffffffffffff1916149050919050565b610ec061344a565b610eca600d612026565b905090565b610ed761345e565b60048054600181600116156101000203166002900480601f016020809104026020016040519081016040528092919081815260200182805460018160011615610100020316600290048015610f6d5780601f10610f4257610100808354040283529160200191610f6d565b820191906000526020600020905b815481529060010190602001808311610f5057829003601f168201915b5050505050905090565b60006001600083815260200190815260200160002060009054906101000a900473ffffffffffffffffffffffffffffffffffffffff169050919050565b600b60149054906101000a900460ff16151515610fd057600080fd5b610fda82826120be565b5050565b600b60149054906101000a900460ff16151515610ffa57600080fd5b61100e33601061228490919063ffffffff16565b151561101957600080fd5b61102382826122dd565b5050565b6000600880549050905090565b6040805190810160405280601381526020017f646562742d746f6b656e2d6372656174696f6e0000000000000000000000000081525081565b61107561344a565b61107f6010612026565b905090565b600b60149054906101000a900460ff161515156110a057600080fd5b6110aa818361231d565b6110b58383836124f8565b505050565b60006110c58361140c565b821015156110d257600080fd5b600660008473ffffffffffffffffffffffffffffffffffffffff1673ffffffffffffffffffffffffffffffffffffffff1681526020019081526020016000208281548110151561111e57fe5b906000526020600020900154905092915050565b600b60009054906101000a900473ffffffffffffffffffffffffffffffffffffffff1673ffffffffffffffffffffffffffffffffffffffff163373ffffffffffffffffffffffffffffffffffffffff1614151561118e57600080fd5b6111d9816040805190810160405280600e81526020017f646562742d746f6b656e2d757269000000000000000000000000000000000000815250601061260f9092919063ffffffff16565b50565b600b60009054906101000a900473ffffffffffffffffffffffffffffffffffffffff1673ffffffffffffffffffffffffffffffffffffffff163373ffffffffffffffffffffffffffffffffffffffff1614151561123857600080fd5b600b60149054906101000a900460ff16151561125357600080fd5b6000600b60146101000a81548160ff0219169083151502179055507f7805862f689e2f13df9f062ff482ad3ad112aca9e0847911ed832e158c525b3360405160405180910390a1565b600b60149054906101000a900460ff161515156112b857600080fd5b6112c2818361231d565b6112cd8383836127eb565b505050565b60008060008084815260200190815260200160002060009054906101000a900473ffffffffffffffffffffffffffffffffffffffff169050600073ffffffffffffffffffffffffffffffffffffffff168173ffffffffffffffffffffffffffffffffffffffff161415915050919050565b600061134d611027565b8210151561135a57600080fd5b60088281548110151561136957fe5b9060005260206000209001549050919050565b600b60149054906101000a900460ff1681565b60008060008084815260200190815260200160002060009054906101000a900473ffffffffffffffffffffffffffffffffffffffff169050600073ffffffffffffffffffffffffffffffffffffffff168173ffffffffffffffffffffffffffffffffffffffff161415151561140357600080fd5b80915050919050565b60008073ffffffffffffffffffffffffffffffffffffffff168273ffffffffffffffffffffffffffffffffffffffff161415151561144957600080fd5b600260008373ffffffffffffffffffffffffffffffffffffffff1673ffffffffffffffffffffffffffffffffffffffff168152602001908152602001600020549050919050565b600c60009054906101000a900473ffffffffffffffffffffffffffffffffffffffff1681565b600b60009054906101000a900473ffffffffffffffffffffffffffffffffffffffff1673ffffffffffffffffffffffffffffffffffffffff163373ffffffffffffffffffffffffffffffffffffffff1614151561151257600080fd5b61155d816040805190810160405280601381526020017f646562742d746f6b656e2d6372656174696f6e00000000000000000000000000815250600d611d309092919063ffffffff16565b50565b600b60009054906101000a900473ffffffffffffffffffffffffffffffffffffffff1673ffffffffffffffffffffffffffffffffffffffff163373ffffffffffffffffffffffffffffffffffffffff161415156115bc57600080fd5b600b60149054906101000a900460ff161515156115d857600080fd5b6001600b60146101000a81548160ff0219169083151502179055507f6985a02210a168e66602d3235cb6db0e70f92b3ba4d376a33c0f3d9434bff62560405160405180910390a1565b600b60009054906101000a900473ffffffffffffffffffffffffffffffffffffffff1681565b61164f61345e565b60058054600181600116156101000203166002900480601f0160208091040260200160405190810160405280929190818152602001828054600181600116156101000203166002900480156116e55780601f106116ba576101008083540402835291602001916116e5565b820191906000526020600020905b8154815290600101906020018083116116c857829003601f168201915b5050505050905090565b600080600b60149054906101000a900460ff1615151561170e57600080fd5b61172233600d61228490919063ffffffff16565b151561172d57600080fd5b600c60009054906101000a900473ffffffffffffffffffffffffffffffffffffffff1673ffffffffffffffffffffffffffffffffffffffff1663cf9df5eb8b8b8b8b8b8b8b8b6000604051602001526040518963ffffffff167c0100000000000000000000000000000000000000000000000000000000028152600401808973ffffffffffffffffffffffffffffffffffffffff1673ffffffffffffffffffffffffffffffffffffffff1681526020018873ffffffffffffffffffffffffffffffffffffffff1673ffffffffffffffffffffffffffffffffffffffff1681526020018773ffffffffffffffffffffffffffffffffffffffff1673ffffffffffffffffffffffffffffffffffffffff1681526020018673ffffffffffffffffffffffffffffffffffffffff1673ffffffffffffffffffffffffffffffffffffffff1681526020018581526020018473ffffffffffffffffffffffffffffffffffffffff1673ffffffffffffffffffffffffffffffffffffffff168152602001836000191660001916815260200182815260200198505050505050505050602060405180830381600087803b15156118e257600080fd5b6102c65a03f115156118f357600080fd5b50505060405180519050905061190d898260019004612823565b806001900491505098975050505050505050565b600b60009054906101000a900473ffffffffffffffffffffffffffffffffffffffff1673ffffffffffffffffffffffffffffffffffffffff163373ffffffffffffffffffffffffffffffffffffffff1614151561197d57600080fd5b6119c8816040805190810160405280601381526020017f646562742d746f6b656e2d6372656174696f6e00000000000000000000000000815250600d61260f9092919063ffffffff16565b50565b600b60149054906101000a900460ff161515156119e757600080fd5b6119f18282612877565b5050565b611a0033838361129c565b5050565b6040805190810160405280600e81526020017f646562742d746f6b656e2d75726900000000000000000000000000000000000081525081565b600b60149054906101000a900460ff16151515611a5957600080fd5b611a63828461231d565b611a6f848484846129b3565b50505050565b611a7d61345e565b611a86826112d2565b1515611a9157600080fd5b600a60008381526020019081526020016000208054600181600116156101000203166002900480601f016020809104026020016040519081016040528092919081815260200182805460018160011615610100020316600290048015611b385780601f10611b0d57610100808354040283529160200191611b38565b820191906000526020600020905b815481529060010190602001808311611b1b57829003601f168201915b50505050509050919050565b6000600360008473ffffffffffffffffffffffffffffffffffffffff1673ffffffffffffffffffffffffffffffffffffffff16815260200190815260200160002060008373ffffffffffffffffffffffffffffffffffffffff1673ffffffffffffffffffffffffffffffffffffffff16815260200190815260200160002060009054906101000a900460ff16905092915050565b600b60009054906101000a900473ffffffffffffffffffffffffffffffffffffffff1673ffffffffffffffffffffffffffffffffffffffff163373ffffffffffffffffffffffffffffffffffffffff16141515611c3457600080fd5b600073ffffffffffffffffffffffffffffffffffffffff168173ffffffffffffffffffffffffffffffffffffffff1614151515611c7057600080fd5b8073ffffffffffffffffffffffffffffffffffffffff16600b60009054906101000a900473ffffffffffffffffffffffffffffffffffffffff1673ffffffffffffffffffffffffffffffffffffffff167f8be0079c531659141344cd1fd0a4f28419497f9722a3daafe3b4186f6b6457e060405160405180910390a380600b60006101000a81548173ffffffffffffffffffffffffffffffffffffffff021916908373ffffffffffffffffffffffffffffffffffffffff16021790555050565b6000806000611d3f8686612284565b1515611d4a57600080fd5b8560010160008673ffffffffffffffffffffffffffffffffffffffff1673ffffffffffffffffffffffffffffffffffffffff168152602001908152602001600020549250600186600201805490500391508560020182815481101515611dac57fe5b906000526020600020900160009054906101000a900473ffffffffffffffffffffffffffffffffffffffff1690508560000160008673ffffffffffffffffffffffffffffffffffffffff1673ffffffffffffffffffffffffffffffffffffffff16815260200190815260200160002060006101000a81549060ff0219169055808660020184815481101515611e3d57fe5b906000526020600020900160006101000a81548173ffffffffffffffffffffffffffffffffffffffff021916908373ffffffffffffffffffffffffffffffffffffffff160217905550828660010160008373ffffffffffffffffffffffffffffffffffffffff1673ffffffffffffffffffffffffffffffffffffffff168152602001908152602001600020819055508560010160008673ffffffffffffffffffffffffffffffffffffffff1673ffffffffffffffffffffffffffffffffffffffff168152602001908152602001600020600090558560020182815481101515611f2257fe5b906000526020600020900160006101000a81549073ffffffffffffffffffffffffffffffffffffffff021916905560018660020181818054905003915081611f6a9190613472565b508473ffffffffffffffffffffffffffffffffffffffff167f0814e4ee85854cea446b4a27a460e5ffb41516230dbc02f226c07907e432241c856040518080602001828103825283818151815260200191508051906020019080838360005b83811015611fe4578082015181840152602081019050611fc9565b50505050905090810190601f1680156120115780820380516001836020036101000a031916815260200191505b509250505060405180910390a2505050505050565b61202e61344a565b816002018054806020026020016040519081016040528092919081815260200182805480156120b257602002820191906000526020600020905b8160009054906101000a900473ffffffffffffffffffffffffffffffffffffffff1673ffffffffffffffffffffffffffffffffffffffff1681526020019060010190808311612068575b50505050509050919050565b60006120c98261138f565b90508073ffffffffffffffffffffffffffffffffffffffff168373ffffffffffffffffffffffffffffffffffffffff161415151561210657600080fd5b8073ffffffffffffffffffffffffffffffffffffffff163373ffffffffffffffffffffffffffffffffffffffff16148061214657506121458133611b44565b5b151561215157600080fd5b600073ffffffffffffffffffffffffffffffffffffffff1661217283610f77565b73ffffffffffffffffffffffffffffffffffffffff161415806121c25750600073ffffffffffffffffffffffffffffffffffffffff168373ffffffffffffffffffffffffffffffffffffffff1614155b1561227f57826001600084815260200190815260200160002060006101000a81548173ffffffffffffffffffffffffffffffffffffffff021916908373ffffffffffffffffffffffffffffffffffffffff1602179055508273ffffffffffffffffffffffffffffffffffffffff168173ffffffffffffffffffffffffffffffffffffffff167f8c5be1e5ebec7d5bd14f71427d1e84f3dd0314c0f7b2291e5b200ac8c7c3b925846040518082815260200191505060405180910390a35b505050565b60008260000160008373ffffffffffffffffffffffffffffffffffffffff1673ffffffffffffffffffffffffffffffffffffffff16815260200190815260200160002060009054906101000a900460ff16905092915050565b6122e6826112d2565b15156122f157600080fd5b80600a6000848152602001908152602001600020908051906020019061231892919061349e565b505050565b8073ffffffffffffffffffffffffffffffffffffffff16600c60009054906101000a900473ffffffffffffffffffffffffffffffffffffffff1673ffffffffffffffffffffffffffffffffffffffff1663ba20dda4846001026000604051602001526040518263ffffffff167c0100000000000000000000000000000000000000000000000000000000028152600401808260001916600019168152602001915050602060405180830381600087803b15156123d857600080fd5b6102c65a03f115156123e957600080fd5b5050506040518051905073ffffffffffffffffffffffffffffffffffffffff161415156124f457600c60009054906101000a900473ffffffffffffffffffffffffffffffffffffffff1673ffffffffffffffffffffffffffffffffffffffff16635969549e83600102836040518363ffffffff167c01000000000000000000000000000000000000000000000000000000000281526004018083600019166000191681526020018273ffffffffffffffffffffffffffffffffffffffff1673ffffffffffffffffffffffffffffffffffffffff16815260200192505050600060405180830381600087803b15156124df57600080fd5b6102c65a03f115156124f057600080fd5b5050505b5050565b8061250333826129f2565b151561250e57600080fd5b600073ffffffffffffffffffffffffffffffffffffffff168473ffffffffffffffffffffffffffffffffffffffff161415151561254a57600080fd5b600073ffffffffffffffffffffffffffffffffffffffff168373ffffffffffffffffffffffffffffffffffffffff161415151561258657600080fd5b6125908483612a87565b61259a8483612bf0565b6125a48383612e0b565b8273ffffffffffffffffffffffffffffffffffffffff168473ffffffffffffffffffffffffffffffffffffffff167fddf252ad1be2c89b69c2b068fc378daa952ba7f163c4a11628f55a4df523b3ef846040518082815260200191505060405180910390a350505050565b6126198383612edf565b151561262457600080fd5b60018360000160008473ffffffffffffffffffffffffffffffffffffffff1673ffffffffffffffffffffffffffffffffffffffff16815260200190815260200160002060006101000a81548160ff021916908315150217905550826002018054806001018281612694919061351e565b9160005260206000209001600084909190916101000a81548173ffffffffffffffffffffffffffffffffffffffff021916908373ffffffffffffffffffffffffffffffffffffffff1602179055505060018360020180549050038360010160008473ffffffffffffffffffffffffffffffffffffffff1673ffffffffffffffffffffffffffffffffffffffff168152602001908152602001600020819055508173ffffffffffffffffffffffffffffffffffffffff167f571925c699f9072cec76b6c6c000571cc8d0bb5c47e5819202e2e9496c6508b5826040518080602001828103825283818151815260200191508051906020019080838360005b838110156127ac578082015181840152602081019050612791565b50505050905090810190601f1680156127d95780820380516001836020036101000a031916815260200191505b509250505060405180910390a2505050565b806127f633826129f2565b151561280157600080fd5b61281d8484846020604051908101604052806000815250611a3d565b50505050565b61282d8282612ef4565b60088054905060096000838152602001908152602001600020819055506008805480600101828161285e919061354a565b9160005260206000209001600083909190915055505050565b3373ffffffffffffffffffffffffffffffffffffffff168273ffffffffffffffffffffffffffffffffffffffff16141515156128b257600080fd5b80600360003373ffffffffffffffffffffffffffffffffffffffff1673ffffffffffffffffffffffffffffffffffffffff16815260200190815260200160002060008473ffffffffffffffffffffffffffffffffffffffff1673ffffffffffffffffffffffffffffffffffffffff16815260200190815260200160002060006101000a81548160ff0219169083151502179055508173ffffffffffffffffffffffffffffffffffffffff163373ffffffffffffffffffffffffffffffffffffffff167f17307eab39ab6107e8899845ad3d59bd9653f200f220920489ca2b5937696c3183604051808215151515815260200191505060405180910390a35050565b816129be33826129f2565b15156129c957600080fd5b6129d4858585611084565b6129e085858585612fa4565b15156129eb57600080fd5b5050505050565b6000806129fe8361138f565b90508073ffffffffffffffffffffffffffffffffffffffff168473ffffffffffffffffffffffffffffffffffffffff161480612a6d57508373ffffffffffffffffffffffffffffffffffffffff16612a5584610f77565b73ffffffffffffffffffffffffffffffffffffffff16145b80612a7e5750612a7d8185611b44565b5b91505092915050565b8173ffffffffffffffffffffffffffffffffffffffff16612aa78261138f565b73ffffffffffffffffffffffffffffffffffffffff16141515612ac957600080fd5b600073ffffffffffffffffffffffffffffffffffffffff166001600083815260200190815260200160002060009054906101000a900473ffffffffffffffffffffffffffffffffffffffff1673ffffffffffffffffffffffffffffffffffffffff16141515612bec5760006001600083815260200190815260200160002060006101000a81548173ffffffffffffffffffffffffffffffffffffffff021916908373ffffffffffffffffffffffffffffffffffffffff160217905550600073ffffffffffffffffffffffffffffffffffffffff168273ffffffffffffffffffffffffffffffffffffffff167f8c5be1e5ebec7d5bd14f71427d1e84f3dd0314c0f7b2291e5b200ac8c7c3b925836040518082815260200191505060405180910390a35b5050565b6000806000612bff858561317a565b60076000858152602001908152602001600020549250612c6b6001600660008873ffffffffffffffffffffffffffffffffffffffff1673ffffffffffffffffffffffffffffffffffffffff168152602001908152602001600020805490506132a890919063ffffffff16565b9150600660008673ffffffffffffffffffffffffffffffffffffffff1673ffffffffffffffffffffffffffffffffffffffff16815260200190815260200160002082815481101515612cb957fe5b906000526020600020900154905080600660008773ffffffffffffffffffffffffffffffffffffffff1673ffffffffffffffffffffffffffffffffffffffff16815260200190815260200160002084815481101515612d1457fe5b9060005260206000209001819055506000600660008773ffffffffffffffffffffffffffffffffffffffff1673ffffffffffffffffffffffffffffffffffffffff16815260200190815260200160002083815481101515612d7157fe5b906000526020600020900181905550600660008673ffffffffffffffffffffffffffffffffffffffff1673ffffffffffffffffffffffffffffffffffffffff168152602001908152602001600020805480919060019003612dd29190613576565b50600060076000868152602001908152602001600020819055508260076000838152602001908152602001600020819055505050505050565b6000612e1783836132c1565b600660008473ffffffffffffffffffffffffffffffffffffffff1673ffffffffffffffffffffffffffffffffffffffff168152602001908152602001600020805490509050600660008473ffffffffffffffffffffffffffffffffffffffff1673ffffffffffffffffffffffffffffffffffffffff1681526020019081526020016000208054806001018281612ead919061354a565b916000526020600020900160008490919091505550806007600084815260200190815260200160002081905550505050565b6000612eeb8383612284565b15905092915050565b600073ffffffffffffffffffffffffffffffffffffffff168273ffffffffffffffffffffffffffffffffffffffff1614151515612f3057600080fd5b612f3a8282612e0b565b8173ffffffffffffffffffffffffffffffffffffffff16600073ffffffffffffffffffffffffffffffffffffffff167fddf252ad1be2c89b69c2b068fc378daa952ba7f163c4a11628f55a4df523b3ef836040518082815260200191505060405180910390a35050565b600080612fc68573ffffffffffffffffffffffffffffffffffffffff16613419565b1515612fd55760019150613171565b8473ffffffffffffffffffffffffffffffffffffffff1663f0b9e5ba8786866000604051602001526040518463ffffffff167c0100000000000000000000000000000000000000000000000000000000028152600401808473ffffffffffffffffffffffffffffffffffffffff1673ffffffffffffffffffffffffffffffffffffffff16815260200183815260200180602001828103825283818151815260200191508051906020019080838360005b838110156130a0578082015181840152602081019050613085565b50505050905090810190601f1680156130cd5780820380516001836020036101000a031916815260200191505b50945050505050602060405180830381600087803b15156130ed57600080fd5b6102c65a03f115156130fe57600080fd5b50505060405180519050905063f0b9e5ba7c0100000000000000000000000000000000000000000000000000000000027bffffffffffffffffffffffffffffffffffffffffffffffffffffffff1916817bffffffffffffffffffffffffffffffffffffffffffffffffffffffff19161491505b50949350505050565b8173ffffffffffffffffffffffffffffffffffffffff1661319a8261138f565b73ffffffffffffffffffffffffffffffffffffffff161415156131bc57600080fd5b61320f6001600260008573ffffffffffffffffffffffffffffffffffffffff1673ffffffffffffffffffffffffffffffffffffffff168152602001908152602001600020546132a890919063ffffffff16565b600260008473ffffffffffffffffffffffffffffffffffffffff1673ffffffffffffffffffffffffffffffffffffffff16815260200190815260200160002081905550600080600083815260200190815260200160002060006101000a81548173ffffffffffffffffffffffffffffffffffffffff021916908373ffffffffffffffffffffffffffffffffffffffff1602179055505050565b60008282111515156132b657fe5b818303905092915050565b600073ffffffffffffffffffffffffffffffffffffffff1660008083815260200190815260200160002060009054906101000a900473ffffffffffffffffffffffffffffffffffffffff1673ffffffffffffffffffffffffffffffffffffffff1614151561332e57600080fd5b8160008083815260200190815260200160002060006101000a81548173ffffffffffffffffffffffffffffffffffffffff021916908373ffffffffffffffffffffffffffffffffffffffff1602179055506133d26001600260008573ffffffffffffffffffffffffffffffffffffffff1673ffffffffffffffffffffffffffffffffffffffff1681526020019081526020016000205461342c90919063ffffffff16565b600260008473ffffffffffffffffffffffffffffffffffffffff1673ffffffffffffffffffffffffffffffffffffffff168152602001908152602001600020819055505050565b600080823b905060008111915050919050565b600080828401905083811015151561344057fe5b8091505092915050565b602060405190810160405280600081525090565b602060405190810160405280600081525090565b8154818355818115116134995781836000526020600020918201910161349891906135a2565b5b505050565b828054600181600116156101000203166002900490600052602060002090601f016020900481019282601f106134df57805160ff191683800117855561350d565b8280016001018555821561350d579182015b8281111561350c5782518255916020019190600101906134f1565b5b50905061351a91906135a2565b5090565b8154818355818115116135455781836000526020600020918201910161354491906135a2565b5b505050565b8154818355818115116135715781836000526020600020918201910161357091906135a2565b5b505050565b81548183558181151161359d5781836000526020600020918201910161359c91906135a2565b5b505050565b6135c491905b808211156135c05760008160009055506001016135a8565b5090565b905600a165627a7a723058208f550c33b22ac6330f8e4675b79bb6380b3fd1103d8642c52a40b844ca1ec06a0029",
  "source": "/*\r\n\r\n  Copyright 2017 Dharma Labs Inc.\r\n\r\n  Licensed under the Apache License, Version 2.0 (the \"License\");\r\n  you may not use this file except in compliance with the License.\r\n  You may obtain a copy of the License at\r\n\r\n    http://www.apache.org/licenses/LICENSE-2.0\r\n\r\n  Unless required by applicable law or agreed to in writing, software\r\n  distributed under the License is distributed on an \"AS IS\" BASIS,\r\n  WITHOUT WARRANTIES OR CONDITIONS OF ANY KIND, either express or implied.\r\n  See the License for the specific language governing permissions and\r\n  limitations under the License.\r\n\r\n*/\r\n \r\npragma solidity 0.4.18;\r\n\r\n// Internal dependencies.\r\nimport \"./DebtRegistry.sol\";\r\nimport \"./ERC165.sol\";\r\nimport { PermissionsLib, PermissionEvents } from \"./libraries/PermissionsLib.sol\";\r\n\r\n// External dependencies.\r\nimport \"zeppelin-solidity/contracts/lifecycle/Pausable.sol\";\r\nimport \"zeppelin-solidity/contracts/token/ERC721/ERC721Token.sol\";\r\nimport \"zeppelin-solidity/contracts/token/ERC20/ERC20.sol\";\r\n\r\n\r\n/**\r\n * The DebtToken contract governs all business logic for making a debt agreement\r\n * transferable as an ERC721 non-fungible token.  Additionally, the contract\r\n * allows authorized contracts to trigger the minting of a debt agreement token\r\n * and, in turn, the insertion of a debt issuance into the DebtRegsitry.\r\n *\r\n * Author: Nadav Hollander -- Github: nadavhollander\r\n */\r\ncontract DebtToken is ERC721Token, ERC165, Pausable, PermissionEvents {\r\n    using PermissionsLib for PermissionsLib.Permissions;\r\n\r\n    DebtRegistry public registry;\r\n\r\n    PermissionsLib.Permissions internal tokenCreationPermissions;\r\n    PermissionsLib.Permissions internal tokenURIPermissions;\r\n\r\n    string public constant CREATION_CONTEXT = \"debt-token-creation\";\r\n    string public constant URI_CONTEXT = \"debt-token-uri\";\r\n\r\n    /**\r\n     * Constructor that sets the address of the debt registry.\r\n     */\r\n    function DebtToken(address _registry)\r\n        public\r\n        ERC721Token(\"DebtToken\", \"DDT\")\r\n    {\r\n        registry = DebtRegistry(_registry);\r\n    }\r\n\r\n    /**\r\n     * ERC165 interface.\r\n     * Returns true for ERC721, false otherwise\r\n     */\r\n    function supportsInterface(bytes4 interfaceID)\r\n        external\r\n        view\r\n        returns (bool _isSupported)\r\n    {\r\n        return interfaceID == 0x80ac58cd; // ERC721\r\n    }\r\n\r\n    /**\r\n     * Mints a unique debt token and inserts the associated issuance into\r\n     * the debt registry, if the calling address is authorized to do so.\r\n     */\r\n    function create(\r\n        address _version,\r\n        address _beneficiary,\r\n        address _debtor,\r\n        address _underwriter,\r\n        uint _underwriterRiskRating,\r\n        address _termsContract,\r\n        bytes32 _termsContractParameters,\r\n        uint _salt\r\n    )\r\n        public\r\n        whenNotPaused\r\n        returns (uint _tokenId)\r\n    {\r\n        require(tokenCreationPermissions.isAuthorized(msg.sender));\r\n\r\n        bytes32 entryHash = registry.insert(\r\n            _version,\r\n            _beneficiary,\r\n            _debtor,\r\n            _underwriter,\r\n            _underwriterRiskRating,\r\n            _termsContract,\r\n            _termsContractParameters,\r\n            _salt\r\n        );\r\n\r\n        super._mint(_beneficiary, uint(entryHash));\r\n\r\n        return uint(entryHash);\r\n    }\r\n\r\n    /**\r\n     * Adds an address to the list of agents authorized to mint debt tokens.\r\n     */\r\n    function addAuthorizedMintAgent(address _agent)\r\n        public\r\n        onlyOwner\r\n    {\r\n        tokenCreationPermissions.authorize(_agent, CREATION_CONTEXT);\r\n    }\r\n\r\n    /**\r\n     * Removes an address from the list of agents authorized to mint debt tokens\r\n     */\r\n    function revokeMintAgentAuthorization(address _agent)\r\n        public\r\n        onlyOwner\r\n    {\r\n        tokenCreationPermissions.revokeAuthorization(_agent, CREATION_CONTEXT);\r\n    }\r\n\r\n    /**\r\n     * Returns the list of agents authorized to mint debt tokens\r\n     */\r\n    function getAuthorizedMintAgents()\r\n        public\r\n        view\r\n        returns (address[] _agents)\r\n    {\r\n        return tokenCreationPermissions.getAuthorizedAgents();\r\n    }\r\n\r\n    /**\r\n     * Adds an address to the list of agents authorized to set token URIs.\r\n     */\r\n    function addAuthorizedTokenURIAgent(address _agent)\r\n        public\r\n        onlyOwner\r\n    {\r\n        tokenURIPermissions.authorize(_agent, URI_CONTEXT);\r\n    }\r\n\r\n    /**\r\n     * Returns the list of agents authorized to set token URIs.\r\n     */\r\n    function getAuthorizedTokenURIAgents()\r\n        public\r\n        view\r\n        returns (address[] _agents)\r\n    {\r\n        return tokenURIPermissions.getAuthorizedAgents();\r\n    }\r\n\r\n    /**\r\n     * Removes an address from the list of agents authorized to set token URIs.\r\n     */\r\n    function revokeTokenURIAuthorization(address _agent)\r\n        public\r\n        onlyOwner\r\n    {\r\n        tokenURIPermissions.revokeAuthorization(_agent, URI_CONTEXT);\r\n    }\r\n\r\n    /**\r\n     * We override approval method of the parent ERC721Token\r\n     * contract to allow its functionality to be frozen in the case of an emergency\r\n     */\r\n    function approve(address _to, uint _tokenId)\r\n        public\r\n        whenNotPaused\r\n    {\r\n        super.approve(_to, _tokenId);\r\n    }\r\n\r\n    /**\r\n     * We override setApprovalForAll method of the parent ERC721Token\r\n     * contract to allow its functionality to be frozen in the case of an emergency\r\n     */\r\n    function setApprovalForAll(address _to, bool _approved)\r\n        public\r\n        whenNotPaused\r\n    {\r\n        super.setApprovalForAll(_to, _approved);\r\n    }\r\n\r\n    /**\r\n     * Support deprecated ERC721 method\r\n     */\r\n    function transfer(address _to, uint _tokenId)\r\n        public\r\n    {\r\n        safeTransferFrom(msg.sender, _to, _tokenId);\r\n    }\r\n\r\n    /**\r\n     * We override transferFrom methods of the parent ERC721Token\r\n     * contract to allow its functionality to be frozen in the case of an emergency\r\n     */\r\n    function transferFrom(address _from, address _to, uint _tokenId)\r\n        public\r\n        whenNotPaused\r\n    {\r\n        _modifyBeneficiary(_tokenId, _to);\r\n        super.transferFrom(_from, _to, _tokenId);\r\n    }\r\n\r\n    /**\r\n     * We override safeTransferFrom methods of the parent ERC721Token\r\n     * contract to allow its functionality to be frozen in the case of an emergency\r\n     */\r\n    function safeTransferFrom(address _from, address _to, uint _tokenId)\r\n        public\r\n        whenNotPaused\r\n    {\r\n        _modifyBeneficiary(_tokenId, _to);\r\n        super.safeTransferFrom(_from, _to, _tokenId);\r\n    }\r\n\r\n    /**\r\n     * We override safeTransferFrom methods of the parent ERC721Token\r\n     * contract to allow its functionality to be frozen in the case of an emergency\r\n     */\r\n    function safeTransferFrom(address _from, address _to, uint _tokenId, bytes _data)\r\n        public\r\n        whenNotPaused\r\n    {\r\n        _modifyBeneficiary(_tokenId, _to);\r\n        super.safeTransferFrom(_from, _to, _tokenId, _data);\r\n    }\r\n\r\n    /**\r\n     * Allows senders with special permissions to set the token URI for a given debt token.\r\n     */\r\n    function setTokenURI(uint256 _tokenId, string _uri)\r\n        public\r\n        whenNotPaused\r\n    {\r\n        require(tokenURIPermissions.isAuthorized(msg.sender));\r\n        super._setTokenURI(_tokenId, _uri);\r\n    }\r\n\r\n    /**\r\n     * _modifyBeneficiary mutates the debt registry. This function should be\r\n     * called every time a token is transferred or minted\r\n     */\r\n    function _modifyBeneficiary(uint _tokenId, address _to)\r\n        internal\r\n    {\r\n        if (registry.getBeneficiary(bytes32(_tokenId)) != _to) {\r\n            registry.modifyBeneficiary(bytes32(_tokenId), _to);\r\n        }\r\n    }\r\n}\r\n",
  "sourcePath": "/mnt/c/Users/devan/fixer/check-dharma/contracts/DebtToken.sol",
  "compiler": {
    "name": "solc",
    "version": "0.4.18+commit.9cf6e910.Emscripten.clang"
  },
  "schemaVersion": "1.0.1",
  "updatedAt": "2018-11-27T07:48:43.664Z"
}