{
  "contractName": "MockERC20Token",
  "abi": [
    {
      "constant": false,
      "inputs": [
        {
          "name": "_to",
          "type": "address"
        },
        {
          "name": "_allowance",
          "type": "uint256"
        }
      ],
      "name": "approve",
      "outputs": [
        {
          "name": "_success",
          "type": "bool"
        }
      ],
      "payable": false,
      "stateMutability": "nonpayable",
      "type": "function"
    },
    {
      "constant": true,
      "inputs": [
        {
          "name": "_to",
          "type": "address"
        },
        {
          "name": "_amount",
          "type": "uint256"
        }
      ],
      "name": "wasTransferCalledWith",
      "outputs": [
        {
          "name": "wasCalled",
          "type": "bool"
        }
      ],
      "payable": false,
      "stateMutability": "view",
      "type": "function"
    },
    {
      "constant": true,
      "inputs": [
        {
          "name": "functionName",
          "type": "string"
        },
        {
          "name": "argsSignature",
          "type": "bytes32"
        }
      ],
      "name": "getMockReturnValue",
      "outputs": [
        {
          "name": "_mockReturnValue",
          "type": "bytes32"
        }
      ],
      "payable": false,
      "stateMutability": "view",
      "type": "function"
    },
    {
      "constant": false,
      "inputs": [
        {
          "name": "_from",
          "type": "address"
        },
        {
          "name": "_to",
          "type": "address"
        },
        {
          "name": "_amount",
          "type": "uint256"
        }
      ],
      "name": "transferFrom",
      "outputs": [
        {
          "name": "_success",
          "type": "bool"
        }
      ],
      "payable": false,
      "stateMutability": "nonpayable",
      "type": "function"
    },
    {
      "constant": false,
      "inputs": [
        {
          "name": "_owner",
          "type": "address"
        },
        {
          "name": "_balance",
          "type": "uint256"
        }
      ],
      "name": "mockBalanceOfFor",
      "outputs": [],
      "payable": false,
      "stateMutability": "nonpayable",
      "type": "function"
    },
    {
      "constant": true,
      "inputs": [
        {
          "name": "_owner",
          "type": "address"
        }
      ],
      "name": "balanceOf",
      "outputs": [
        {
          "name": "_balance",
          "type": "uint256"
        }
      ],
      "payable": false,
      "stateMutability": "view",
      "type": "function"
    },
    {
      "constant": true,
      "inputs": [
        {
          "name": "_from",
          "type": "address"
        },
        {
          "name": "_to",
          "type": "address"
        },
        {
          "name": "_amount",
          "type": "uint256"
        }
      ],
      "name": "wasTransferFromCalledWith",
      "outputs": [
        {
          "name": "wasCalled",
          "type": "bool"
        }
      ],
      "payable": false,
      "stateMutability": "view",
      "type": "function"
    },
    {
      "constant": false,
      "inputs": [
        {
          "name": "functionName",
          "type": "string"
        },
        {
          "name": "argsSignature",
          "type": "bytes32"
        },
        {
          "name": "returnValue",
          "type": "bytes32"
        }
      ],
      "name": "mockReturnValue",
      "outputs": [],
      "payable": false,
      "stateMutability": "nonpayable",
      "type": "function"
    },
    {
      "constant": false,
      "inputs": [
        {
          "name": "_to",
          "type": "address"
        },
        {
          "name": "_amount",
          "type": "uint256"
        }
      ],
      "name": "transfer",
      "outputs": [
        {
          "name": "_success",
          "type": "bool"
        }
      ],
      "payable": false,
      "stateMutability": "nonpayable",
      "type": "function"
    },
    {
      "constant": true,
      "inputs": [
        {
          "name": "_to",
          "type": "address"
        },
        {
          "name": "_allowance",
          "type": "uint256"
        }
      ],
      "name": "wasApproveCalledWith",
      "outputs": [
        {
          "name": "wasCalled",
          "type": "bool"
        }
      ],
      "payable": false,
      "stateMutability": "view",
      "type": "function"
    },
    {
      "constant": false,
      "inputs": [],
      "name": "reset",
      "outputs": [],
      "payable": false,
      "stateMutability": "nonpayable",
      "type": "function"
    },
    {
      "constant": true,
      "inputs": [
        {
          "name": "_owner",
          "type": "address"
        },
        {
          "name": "_to",
          "type": "address"
        }
      ],
      "name": "allowance",
      "outputs": [
        {
          "name": "_allowance",
          "type": "uint256"
        }
      ],
      "payable": false,
      "stateMutability": "view",
      "type": "function"
    },
    {
      "constant": false,
      "inputs": [
        {
          "name": "_owner",
          "type": "address"
        },
        {
          "name": "_to",
          "type": "address"
        },
        {
          "name": "_allowance",
          "type": "uint256"
        }
      ],
      "name": "mockAllowanceFor",
      "outputs": [],
      "payable": false,
      "stateMutability": "nonpayable",
      "type": "function"
    }
  ],
  "bytecode": "0x6060604052341561000f57600080fd5b6115458061001e6000396000f3006060604052600436106100c5576000357c0100000000000000000000000000000000000000000000000000000000900463ffffffff168063095ea7b3146100ca5780630e81bd9f14610124578063131018581461017e57806323b872dd1461020457806351d5d7a91461027d57806370a08231146102bf578063771a70091461030c57806380da20d414610385578063a9059cbb146103fc578063b801982014610456578063d826f88f146104b0578063dd62ed3e146104c5578063e39ff13d14610531575b600080fd5b34156100d557600080fd5b61010a600480803573ffffffffffffffffffffffffffffffffffffffff16906020019091908035906020019091905050610592565b604051808215151515815260200191505060405180910390f35b341561012f57600080fd5b610164600480803573ffffffffffffffffffffffffffffffffffffffff16906020019091908035906020019091905050610635565b604051808215151515815260200191505060405180910390f35b341561018957600080fd5b6101e6600480803590602001908201803590602001908080601f0160208091040260200160405190810160405280939291908181526020018383808284378201915050505050509190803560001916906020019091905050610687565b60405180826000191660001916815260200191505060405180910390f35b341561020f57600080fd5b610263600480803573ffffffffffffffffffffffffffffffffffffffff1690602001909190803573ffffffffffffffffffffffffffffffffffffffff16906020019091908035906020019091905050610716565b604051808215151515815260200191505060405180910390f35b341561028857600080fd5b6102bd600480803573ffffffffffffffffffffffffffffffffffffffff1690602001909190803590602001909190505061076c565b005b34156102ca57600080fd5b6102f6600480803573ffffffffffffffffffffffffffffffffffffffff16906020019091905050610803565b6040518082815260200191505060405180910390f35b341561031757600080fd5b61036b600480803573ffffffffffffffffffffffffffffffffffffffff1690602001909190803573ffffffffffffffffffffffffffffffffffffffff1690602001909190803590602001909190505061089f565b604051808215151515815260200191505060405180910390f35b341561039057600080fd5b6103fa600480803590602001908201803590602001908080601f0160208091040260200160405190810160405280939291908181526020018383808284378201915050505050509190803560001916906020019091908035600019169060200190919050506108f3565b005b341561040757600080fd5b61043c600480803573ffffffffffffffffffffffffffffffffffffffff16906020019091908035906020019091905050610a1d565b604051808215151515815260200191505060405180910390f35b341561046157600080fd5b610496600480803573ffffffffffffffffffffffffffffffffffffffff16906020019091908035906020019091905050610a71565b604051808215151515815260200191505060405180910390f35b34156104bb57600080fd5b6104c3610b12565b005b34156104d057600080fd5b61051b600480803573ffffffffffffffffffffffffffffffffffffffff1690602001909190803573ffffffffffffffffffffffffffffffffffffffff16906020019091905050610e09565b6040518082815260200191505060405180910390f35b341561053c57600080fd5b610590600480803573ffffffffffffffffffffffffffffffffffffffff1690602001909190803573ffffffffffffffffffffffffffffffffffffffff16906020019091908035906020019091905050610ee9565b005b600061062b6040805190810160405280600781526020017f617070726f7665000000000000000000000000000000000000000000000000008152508484604051808373ffffffffffffffffffffffffffffffffffffffff1673ffffffffffffffffffffffffffffffffffffffff166c01000000000000000000000000028152601401828152602001925050506040518091039020610fc4565b6001905092915050565b600061067f6040805190810160405280600881526020017f7472616e7366657200000000000000000000000000000000000000000000000081525061067a85856110fd565b611160565b905092915050565b60006001836040518082805190602001908083835b6020831015156106c1578051825260208201915060208101905060208303925061069c565b6001836020036101000a03801982511681845116808217855250505050505090500191505090815260200160405180910390206000836000191660001916815260200190815260200160002054905092915050565b60006107616040805190810160405280600c81526020017f7472616e7366657246726f6d000000000000000000000000000000000000000081525061075c8686866111fc565b610fc4565b600190509392505050565b6107ff6040805190810160405280600981526020017f62616c616e63654f66000000000000000000000000000000000000000000000081525083604051808273ffffffffffffffffffffffffffffffffffffffff1673ffffffffffffffffffffffffffffffffffffffff166c010000000000000000000000000281526014019150506040518091039020836001026108f3565b5050565b60006108946040805190810160405280600981526020017f62616c616e63654f66000000000000000000000000000000000000000000000081525083604051808273ffffffffffffffffffffffffffffffffffffffff1673ffffffffffffffffffffffffffffffffffffffff166c010000000000000000000000000281526014019150506040518091039020610687565b600190049050919050565b60006108ea6040805190810160405280600c81526020017f7472616e7366657246726f6d00000000000000000000000000000000000000008152506108e58686866111fc565b611160565b90509392505050565b6000836040518082805190602001908083835b60208310151561092b5780518252602082019150602081019050602083039250610906565b6001836020036101000a038019825116818451168082178552505050505050905001915050908152602001604051809103902080548060010182816109709190611450565b916000526020600020900160008490919091509060001916905550806001846040518082805190602001908083835b6020831015156109c4578051825260208201915060208101905060208303925061099f565b6001836020036101000a0380198251168184511680821785525050505050509050019150509081526020016040518091039020600084600019166000191681526020019081526020016000208160001916905550505050565b6000610a676040805190810160405280600881526020017f7472616e73666572000000000000000000000000000000000000000000000000815250610a6285856110fd565b610fc4565b6001905092915050565b6000610b0a6040805190810160405280600781526020017f617070726f7665000000000000000000000000000000000000000000000000008152508484604051808373ffffffffffffffffffffffffffffffffffffffff1673ffffffffffffffffffffffffffffffffffffffff166c01000000000000000000000000028152601401828152602001925050506040518091039020611160565b905092915050565b6000610b1c61147c565b600080600093505b600a841015610e0357610b356112a3565b84600a81101515610b4257fe5b6020020151925060008351141515610df657600091505b6000836040518082805190602001908083835b602083101515610b915780518252602082019150602081019050602083039250610b6c565b6001836020036101000a038019825116818451168082178552505050505050905001915050908152602001604051809103902080549050821015610d7e576000836040518082805190602001908083835b602083101515610c075780518252602082019150602081019050602083039250610be2565b6001836020036101000a038019825116818451168082178552505050505050905001915050908152602001604051809103902082815481101515610c4757fe5b90600052602060002090015490506002836040518082805190602001908083835b602083101515610c8d5780518252602082019150602081019050602083039250610c68565b6001836020036101000a03801982511681845116808217855250505050505090500191505090815260200160405180910390206000826000191660001916815260200190815260200160002060006101000a81549060ff02191690556001836040518082805190602001908083835b602083101515610d215780518252602082019150602081019050602083039250610cfc565b6001836020036101000a038019825116818451168082178552505050505050905001915050908152602001604051809103902060008260001916600019168152602001908152602001600020600090558180600101925050610b59565b6000836040518082805190602001908083835b602083101515610db65780518252602082019150602081019050602083039250610d91565b6001836020036101000a03801982511681845116808217855250505050505090500191505090815260200160405180910390206000610df59190611490565b5b8380600101945050610b24565b50505050565b6000610edd6040805190810160405280600981526020017f616c6c6f77616e636500000000000000000000000000000000000000000000008152508484604051808373ffffffffffffffffffffffffffffffffffffffff1673ffffffffffffffffffffffffffffffffffffffff166c010000000000000000000000000281526014018273ffffffffffffffffffffffffffffffffffffffff1673ffffffffffffffffffffffffffffffffffffffff166c01000000000000000000000000028152601401925050506040518091039020610687565b60019004905092915050565b610fbf6040805190810160405280600981526020017f616c6c6f77616e636500000000000000000000000000000000000000000000008152508484604051808373ffffffffffffffffffffffffffffffffffffffff1673ffffffffffffffffffffffffffffffffffffffff166c010000000000000000000000000281526014018273ffffffffffffffffffffffffffffffffffffffff1673ffffffffffffffffffffffffffffffffffffffff166c01000000000000000000000000028152601401925050506040518091039020836001026108f3565b505050565b60016002836040518082805190602001908083835b602083101515610ffe5780518252602082019150602081019050602083039250610fd9565b6001836020036101000a03801982511681845116808217855250505050505090500191505090815260200160405180910390206000836000191660001916815260200190815260200160002060006101000a81548160ff0219169083151502179055506000826040518082805190602001908083835b6020831015156110995780518252602082019150602081019050602083039250611074565b6001836020036101000a038019825116818451168082178552505050505050905001915050908152602001604051809103902080548060010182816110de9190611450565b9160005260206000209001600083909190915090600019169055505050565b60008282604051808373ffffffffffffffffffffffffffffffffffffffff1673ffffffffffffffffffffffffffffffffffffffff166c01000000000000000000000000028152601401828152602001925050506040518091039020905092915050565b60006002836040518082805190602001908083835b60208310151561119a5780518252602082019150602081019050602083039250611175565b6001836020036101000a03801982511681845116808217855250505050505090500191505090815260200160405180910390206000836000191660001916815260200190815260200160002060009054906101000a900460ff16905092915050565b6000838383604051808473ffffffffffffffffffffffffffffffffffffffff1673ffffffffffffffffffffffffffffffffffffffff166c010000000000000000000000000281526014018373ffffffffffffffffffffffffffffffffffffffff1673ffffffffffffffffffffffffffffffffffffffff166c010000000000000000000000000281526014018281526020019350505050604051809103902090509392505050565b6112ab6114b1565b610140604051908101604052806040805190810160405280600881526020017f7472616e7366657200000000000000000000000000000000000000000000000081525081526020016040805190810160405280600c81526020017f7472616e7366657246726f6d000000000000000000000000000000000000000081525081526020016040805190810160405280600981526020017f616c6c6f77616e6365000000000000000000000000000000000000000000000081525081526020016040805190810160405280600981526020017f62616c616e63654f66000000000000000000000000000000000000000000000081525081526020016040805190810160405280600781526020017f617070726f7665000000000000000000000000000000000000000000000000008152508152602001602060405190810160405280600081525081526020016020604051908101604052806000815250815260200160206040519081016040528060008152508152602001602060405190810160405280600081525081526020016020604051908101604052806000815250815250905090565b8154818355818115116114775781836000526020600020918201910161147691906114e0565b5b505050565b602060405190810160405280600081525090565b50805460008255906000526020600020908101906114ae91906114e0565b50565b61014060405190810160405280600a905b6114ca611505565b8152602001906001900390816114c25790505090565b61150291905b808211156114fe5760008160009055506001016114e6565b5090565b90565b6020604051908101604052806000815250905600a165627a7a7230582003e46a2a52f269068dd5e90b81fcacb490531e2c9ba93bd72f966c8011cb009d0029",
  "source": "/*\r\n\r\n  Copyright 2017 Dharma Labs Inc.\r\n\r\n  Licensed under the Apache License, Version 2.0 (the \"License\");\r\n  you may not use this file except in compliance with the License.\r\n  You may obtain a copy of the License at\r\n\r\n    http://www.apache.org/licenses/LICENSE-2.0\r\n\r\n  Unless required by applicable law or agreed to in writing, software\r\n  distributed under the License is distributed on an \"AS IS\" BASIS,\r\n  WITHOUT WARRANTIES OR CONDITIONS OF ANY KIND, either express or implied.\r\n  See the License for the specific language governing permissions and\r\n  limitations under the License.\r\n\r\n*/\r\n\r\npragma solidity 0.4.18;\r\n\r\nimport \"./MockContract.sol\";\r\nimport \"zeppelin-solidity/contracts/token/ERC20/ERC20.sol\";\r\n\r\n\r\ncontract MockERC20Token is MockContract {\r\n    function transfer(\r\n        address _to,\r\n        uint _amount\r\n    )\r\n        public\r\n        returns (bool _success)\r\n    {\r\n        functionCalledWithArgs(\"transfer\", getTransferArgsSignature(\r\n            _to,\r\n            _amount\r\n        ));\r\n\r\n        return true;\r\n    }\r\n\r\n    function wasTransferCalledWith(\r\n        address _to,\r\n        uint _amount\r\n    )\r\n        public\r\n        view\r\n        returns (bool wasCalled)\r\n    {\r\n        return wasFunctionCalledWithArgs(\"transfer\", getTransferArgsSignature(\r\n            _to,\r\n            _amount\r\n        ));\r\n    }\r\n\r\n    function transferFrom(\r\n        address _from,\r\n        address _to,\r\n        uint _amount\r\n    )\r\n        public\r\n        returns (bool _success)\r\n    {\r\n        functionCalledWithArgs(\"transferFrom\", getTransferFromArgsSignature(\r\n            _from,\r\n            _to,\r\n            _amount\r\n        ));\r\n\r\n        return true;\r\n    }\r\n\r\n    function wasTransferFromCalledWith(\r\n        address _from,\r\n        address _to,\r\n        uint _amount\r\n    )\r\n        public\r\n        view\r\n        returns (bool wasCalled)\r\n    {\r\n        return wasFunctionCalledWithArgs(\"transferFrom\", getTransferFromArgsSignature(\r\n            _from,\r\n            _to,\r\n            _amount\r\n        ));\r\n    }\r\n\r\n    /* `balanceOf` */\r\n\r\n    function balanceOf(address _owner) public view returns(uint _balance) {\r\n        return uint(getMockReturnValue(\"balanceOf\", keccak256(_owner)));\r\n    }\r\n\r\n    function mockBalanceOfFor(address _owner, uint _balance) public {\r\n        mockReturnValue(\"balanceOf\", keccak256(_owner), bytes32(_balance));\r\n    }\r\n\r\n    /* `approve` */\r\n\r\n    function approve(address _to, uint _allowance) public returns (bool _success)\r\n    {\r\n        functionCalledWithArgs(\"approve\", keccak256(_to, _allowance));\r\n        return true;\r\n    }\r\n\r\n    function wasApproveCalledWith(address _to, uint _allowance) public view returns (bool wasCalled)\r\n    {\r\n        return wasFunctionCalledWithArgs(\"approve\", keccak256(_to, _allowance));\r\n    }\r\n\r\n    /* `allowance` */\r\n\r\n    function allowance(address _owner, address _to) public view returns(uint _allowance) {\r\n        return uint(getMockReturnValue(\"allowance\", keccak256(_owner, _to)));\r\n    }\r\n\r\n    function mockAllowanceFor(address _owner, address _to, uint _allowance) public {\r\n        mockReturnValue(\"allowance\", keccak256(_owner, _to), bytes32(_allowance));\r\n    }\r\n\r\n    function getTransferArgsSignature(\r\n        address _to,\r\n        uint _amount\r\n    )\r\n        internal\r\n        pure\r\n        returns (bytes32 args)\r\n    {\r\n        return keccak256(\r\n            _to,\r\n            _amount\r\n        );\r\n    }\r\n\r\n    function getTransferFromArgsSignature(\r\n        address _from,\r\n        address _to,\r\n        uint _amount\r\n    )\r\n        internal\r\n        pure\r\n        returns (bytes32 argsSignature)\r\n    {\r\n        return keccak256(\r\n            _from,\r\n            _to,\r\n            _amount\r\n        );\r\n    }\r\n\r\n    function getFunctionList()\r\n        internal\r\n        returns (string[10] functionNames)\r\n    {\r\n        return [\"transfer\", \"transferFrom\", \"allowance\", \"balanceOf\", \"approve\", \"\", \"\", \"\", \"\", \"\"];\r\n    }\r\n}\r\n",
  "sourcePath": "/mnt/c/Users/devan/fixer/check-dharma/contracts/test/mocks/MockERC20Token.sol",
  "compiler": {
    "name": "solc",
    "version": "0.4.18+commit.9cf6e910.Emscripten.clang"
  },
  "schemaVersion": "1.0.1",
  "updatedAt": "2018-11-27T07:48:41.641Z"
}