{
  "contractName": "TrancheRegistry",
  "abi": [
    {
      "constant": true,
      "inputs": [
        {
          "name": "_tokenID",
          "type": "bytes32"
        }
      ],
      "name": "getTranche",
      "outputs": [
        {
          "name": "",
          "type": "uint256"
        }
      ],
      "payable": false,
      "stateMutability": "view",
      "type": "function"
    },
    {
      "constant": false,
      "inputs": [
        {
          "name": "_beneficiary",
          "type": "address"
        },
        {
          "name": "_cdo",
          "type": "address"
        },
        {
          "name": "_priority",
          "type": "uint256"
        },
        {
          "name": "_salt",
          "type": "uint256"
        }
      ],
      "name": "insert",
      "outputs": [
        {
          "name": "_issuanceHash",
          "type": "bytes32"
        }
      ],
      "payable": false,
      "stateMutability": "nonpayable",
      "type": "function"
    },
    {
      "constant": true,
      "inputs": [
        {
          "name": "_tokenID",
          "type": "bytes32"
        }
      ],
      "name": "checkEntryExists",
      "outputs": [
        {
          "name": "exists",
          "type": "bool"
        }
      ],
      "payable": false,
      "stateMutability": "view",
      "type": "function"
    },
    {
      "constant": true,
      "inputs": [
        {
          "name": "_tokenID",
          "type": "bytes32"
        }
      ],
      "name": "getBeneficiary",
      "outputs": [
        {
          "name": "",
          "type": "address"
        }
      ],
      "payable": false,
      "stateMutability": "view",
      "type": "function"
    },
    {
      "constant": true,
      "inputs": [
        {
          "name": "_tokenID",
          "type": "bytes32"
        }
      ],
      "name": "getCDO",
      "outputs": [
        {
          "name": "",
          "type": "address"
        }
      ],
      "payable": false,
      "stateMutability": "view",
      "type": "function"
    }
  ],
  "bytecode": "0x6060604052341561000f57600080fd5b61064b8061001e6000396000f30060606040526004361061006d576000357c0100000000000000000000000000000000000000000000000000000000900463ffffffff1680631608c61414610072578063a9420a11146100ad578063b1a9695714610133578063ba20dda414610172578063ecb92dda146101d9575b600080fd5b341561007d57600080fd5b610097600480803560001916906020019091905050610240565b6040518082815260200191505060405180910390f35b34156100b857600080fd5b610115600480803573ffffffffffffffffffffffffffffffffffffffff1690602001909190803573ffffffffffffffffffffffffffffffffffffffff16906020019091908035906020019091908035906020019091905050610267565b60405180826000191660001916815260200191505060405180910390f35b341561013e57600080fd5b610158600480803560001916906020019091905050610416565b604051808215151515815260200191505060405180910390f35b341561017d57600080fd5b61019760048080356000191690602001909190505061048c565b604051808273ffffffffffffffffffffffffffffffffffffffff1673ffffffffffffffffffffffffffffffffffffffff16815260200191505060405180910390f35b34156101e457600080fd5b6101fe6004808035600019169060200190919050506104d3565b604051808273ffffffffffffffffffffffffffffffffffffffff1673ffffffffffffffffffffffffffffffffffffffff16815260200191505060405180910390f35b60008060008360001916600019168152602001908152602001600020600201549050919050565b60006102716105ca565b60006080604051908101604052808873ffffffffffffffffffffffffffffffffffffffff1681526020018773ffffffffffffffffffffffffffffffffffffffff1681526020018681526020018581525091506102cf8787878761051a565b9050600073ffffffffffffffffffffffffffffffffffffffff16600080836000191660001916815260200190815260200160002060000160009054906101000a900473ffffffffffffffffffffffffffffffffffffffff1673ffffffffffffffffffffffffffffffffffffffff1614151561034957600080fd5b81600080836000191660001916815260200190815260200160002060008201518160000160006101000a81548173ffffffffffffffffffffffffffffffffffffffff021916908373ffffffffffffffffffffffffffffffffffffffff16021790555060208201518160010160006101000a81548173ffffffffffffffffffffffffffffffffffffffff021916908373ffffffffffffffffffffffffffffffffffffffff16021790555060408201518160020155606082015181600301559050508092505050949350505050565b60008073ffffffffffffffffffffffffffffffffffffffff16600080846000191660001916815260200190815260200160002060000160009054906101000a900473ffffffffffffffffffffffffffffffffffffffff1673ffffffffffffffffffffffffffffffffffffffff1614159050919050565b6000806000836000191660001916815260200190815260200160002060000160009054906101000a900473ffffffffffffffffffffffffffffffffffffffff169050919050565b6000806000836000191660001916815260200190815260200160002060010160009054906101000a900473ffffffffffffffffffffffffffffffffffffffff169050919050565b600084848484604051808573ffffffffffffffffffffffffffffffffffffffff1673ffffffffffffffffffffffffffffffffffffffff166c010000000000000000000000000281526014018473ffffffffffffffffffffffffffffffffffffffff1673ffffffffffffffffffffffffffffffffffffffff166c0100000000000000000000000002815260140183815260200182815260200194505050505060405180910390209050949350505050565b608060405190810160405280600073ffffffffffffffffffffffffffffffffffffffff168152602001600073ffffffffffffffffffffffffffffffffffffffff168152602001600081526020016000815250905600a165627a7a7230582091c3a8e132430cd08a5cc635ad52c04889f12c0c28313a527b9034a82b1326190029",
  "source": "pragma solidity ^ 0.4.18;\r\n\r\nimport \"zeppelin-solidity/contracts/token/ERC721/ERC721Token.sol\";\r\n\r\n/**\r\n * TrancheRegistry maps TrancheToken's ID's to their information.\r\n *\r\n * TODO: GAS OPTIMIZATION\r\n * Gas optimize through ordering of variable declarations.\r\n * Code has been left in a readable / organized manner.\r\n *\r\n * METADATA\r\n * Non-core functionality still needs to be implemented.\r\n *\r\n * Author: Devan Purhar\r\n */\r\n\r\ncontract TrancheRegistry {\r\n\r\n    /// mapping from tokenID's to details\r\n    mapping(bytes32 => TokenDetails) internal registry;\r\n\r\n    struct TokenDetails {\r\n        address beneficiary;\r\n        address cdo;\r\n        uint priority;\r\n        uint salt;\r\n    }\r\n\r\n    /*\r\n    * Inserts a new entry into the registry\r\n    */\r\n    function insert(\r\n        address _beneficiary,\r\n        address _cdo,\r\n        uint _priority,\r\n        uint _salt\r\n    )\r\n        public\r\n        returns(bytes32 _issuanceHash)\r\n    {\r\n        TokenDetails memory tokenDetails = TokenDetails(\r\n            _beneficiary,\r\n            _cdo,\r\n            _priority,\r\n            _salt\r\n        );\r\n\r\n        bytes32 issuanceHash = createIssuanceHash(\r\n            _beneficiary,\r\n            _cdo,\r\n            _priority,\r\n            _salt\r\n            );\r\n\r\n        require(registry[issuanceHash].beneficiary == address(0));\r\n\r\n        registry[issuanceHash] = tokenDetails;\r\n\r\n        return issuanceHash;\r\n    }\r\n\r\n    /**\r\n     * Helper function for computing the hash of a given issuance.\r\n     */\r\n    function createIssuanceHash(\r\n        address beneficiary,\r\n        address cdo,\r\n        uint priority,\r\n        uint _salt\r\n    )\r\n        internal\r\n        pure\r\n        returns(bytes32)\r\n    {\r\n        return keccak256(\r\n            beneficiary,\r\n            cdo,\r\n            priority,\r\n            _salt\r\n        );\r\n    }\r\n\r\n    /*\r\n    * Returns the beneficiary of the given tokenID\r\n    */\r\n    function getBeneficiary(bytes32 _tokenID)\r\n        public\r\n        view\r\n        returns(address)\r\n    {\r\n        return registry[_tokenID].beneficiary;\r\n    }\r\n\r\n    /*\r\n    * Returns the tranche of the given tokenID\r\n    */\r\n    function getTranche(bytes32 _tokenID)\r\n        public\r\n        view\r\n        returns(uint)\r\n    {\r\n        return registry[_tokenID].priority;\r\n    }\r\n\r\n    /*\r\n    * Returns the CDO instance of the given tokenID\r\n    */\r\n    function getCDO(bytes32 _tokenID)\r\n        public\r\n        view\r\n        returns(address)\r\n    {\r\n        return registry[_tokenID].cdo;\r\n    }\r\n\r\n    /* Ensures an entry with the specified agreement ID exists within the debt registry. */\r\n    function checkEntryExists(bytes32 _tokenID)\r\n        public\r\n        view\r\n        returns (bool exists)\r\n    {\r\n        return registry[_tokenID].beneficiary != address(0);\r\n    }\r\n\r\n}\r\n",
  "sourcePath": "/mnt/c/Users/devan/fixer/check-dharma/contracts/CDO/TrancheRegistry.sol",
  "compiler": {
    "name": "solc",
    "version": "0.4.18+commit.9cf6e910.Emscripten.clang"
  },
  "schemaVersion": "1.0.1",
  "updatedAt": "2018-11-27T07:48:41.627Z"
}